:100000000C94C3170C94ED170C94ED170C94ED178A
:100010000C94553B0C94553B0C94553B0C94553B20
:100020000C94ED170C94E4750C94ED170C94ED17EB
:100030000C94ED170C9424960C94ED170C94ED177A
:100040000C94ED170C94C4BB0C9480D10C94ED1758
:100050000C948B370C9481370C94ED170C94ED179E
:100060000C94ED170C94ED170C94ED170C94ED1700
:100070000C94ED170C94ED170C94ED170C94ED17F0
:100080000C94ED170C94ED170C94ED17533658366D
:100090005D366736953695367136793681368B36CC
:1000A00087458A457D458145A145A1458E459245B7
:1000B00098459C454EB6F8B42FB58AB62FB52FB5E6
:1000C0002FB52FB52FB52FB52FB52FB52FB52FB510
:1000D0002FB52FB52FB52FB52FB52FB52FB52FB500
:1000E0002FB52FB52FB52FB52FB52FB52FB52FB5F0
:1000F00084B62FB52FB52FB52FB52FB52FB52FB58A
:100100002FB55DB62FB52FB52FB52FB52FB52FB5A0
:100110002FB52FB52FB52FB5A1B62CB54E414E49F1
:100120004E495459494E46CDCCCC3D0AD7233C17B5
:10013000B7D13877CC2B329595E6241FB14F0A0002
:100140000020410000C84200401C4620BCBE4CCAF2
:100150001B0E5AAEC59D7400407A10F35A00A0726F
:100160004E18090010A5D4E80000E87648170000F2
:10017000E40B54020000CA9A3B000000E1F50500C0
:100180000080969800000040420F000000A0860109
:10019000000000102700000000E8030000000064D9
:1001A00000000000000A0000000000010000000044
:1001B000002C76D888DC674F0823DFC1DFAE59E119
:1001C000B1B796E5E3E453C63AE651997696E8E688
:1001D000C28426EB898C9B62ED407C6FFCEFBC9C5B
:1001E0009F40F2BAA56FA5F490055A2AF75C936B6D
:1001F0006CF9676DC11BFCE0E40D47FEF520E6B528
:1002000000D0ED902E0300943577050080841E0801
:100210000000204E0A000000C80C333333330F981F
:100220006E12831141EF8D2114893BE65516CFFEE6
:10023000E6DB18D1844B381BF77C1D901DA4BBE472
:1002400024203284725E228100C9F124ECA1E53DB4
:1002500027434F4D4D554E49434154494F4E00445D
:10026000525952554E004552524F525300494E4634
:100270004F004543484F0055C59B70696A2E2E2E8E
:10028000004F637A656B6977616E69652E2E2E006B
:100290004272616B20727563687500456E642066FA
:1002A000696C65206C6973740A00426567696E2029
:1002B00066696C65206C6973740A004E6F206D6509
:1002C0006469610A00286E6F2066696C65290043C5
:1002D000757272656E742066696C653A20005344CD
:1002E000207072696E74696E67206279746520008F
:1002F0004E6F74205344207072696E74696E670A81
:100300000044656C6574696F6E206661696C656434
:100310002C2046696C653A200046696C652064654E
:100320006C657465643A0025697920256964202527
:1003300069682025696D20256973005072696E74A3
:100340002074696D653A200020573A004368C582E1
:100350006F647A656E69652E2E2E00526F7A677211
:100360007A6577616E69652E2E2E00452025530033
:100370006F66660044454255473A004D31313220A0
:1003800053687574646F776E004D313133205300BC
:100390004368C5826F647A656E69652073746FC542
:1003A00082752E2E2E00526F7A67727A6577616E93
:1003B00069652073746FC582752E2E2E00416E659F
:1003C00074204136204F46462E004348414D424559
:1003D000525F54454D50455241545552450042419B
:1003E00042595354455050494E47004152435300DF
:1003F0004D4F54494F4E5F4D4F444553005448456F
:10040000524D414C5F50524F54454354494F4E005A
:100410004C4F4E475F46494C454E414D4500415576
:10042000544F5245504F52545F53445F53544154BC
:100430005553005344434152440050524F4D505481
:100440005F535550504F525400454D455247454E0D
:1004500043595F50415253455200434153455F4C0D
:10046000494748545F4252494748544E4553530008
:10047000544F47474C455F4C494748545300534FEE
:100480004654574152455F504F57455200425549D7
:100490004C445F50455243454E54004C4556454CE4
:1004A000494E475F44415441005A5F50524F4245C4
:1004B0000052554E4F5554004155544F4C455645EA
:1004C0004C005052494E545F4A4F420050524F47E1
:1004D00052455353004155544F5245504F52545F6B
:1004E00054454D5000564F4C554D455452494300CC
:1004F00042494E4152595F46494C455F5452414E24
:10050000534645520053455249414C5F584F4E5F48
:10051000584F4646004649524D574152455F4E415D
:100520004D453A4D61726C696E20322E302E372E59
:100530003220284465632020382032303230203287
:10054000333A30343A31362920534F555243455FC0
:10055000434F44455F55524C3A68747470733A2F58
:100560002F6769746875622E636F6D2F4D61726CB1
:10057000696E4669726D776172652F4D61726C6943
:100580006E2050524F544F434F4C5F564552534983
:100590004F4E3A312E30204D414348494E455F542D
:1005A0005950453A416E65742041362045585452A1
:1005B000554445525F434F554E543A3120555549A5
:1005C000443A63656465326132662D343161322D9F
:1005D000343734382D396231322D63353563363254
:1005E0006633363766660A002F2F20004D313435CA
:1005F00020533C696E6465783E206F7574206F6689
:100600002072616E67652028302D31290A00416310
:1006100063656C65726174696F6E3A2050003F4A81
:10062000206F7574206F662072616E6765202830B8
:100630002E303120746F20302E33290A0020204DB7
:1006400061783A200020204D696E3A2000536F6691
:100650007420656E6473746F70733A200046523A6A
:100660000020466C6F773A200020643A0020693AF7
:100670000020703A00496E76616C69642065787478
:1006800072756465720A006469730043290A006127
:10069000626C656420286D696E2074656D70200041
:1006A000436F6C6420657874727564657320617241
:1006B0006520004E616A706965727720486F6D65CC
:1006C0002025732573257300506F7A2E207A65726A
:1006D0006F7761207573742E004572723A20546FE3
:1006E0006F206661722100546F6F20666172206610
:1006F000726F6D207265666572656E636520706FDE
:10070000696E740A00454550524F4D204F4B0A0008
:10071000446F6E65207072696E74696E67206669D9
:100720006C650A004D3737004D33310072026D029F
:1007300066025F0251024572726F722077726974AD
:10074000696E6720746F20454550524F4D210A0055
:100750002121204B494C4C206361757365642062F4
:100760007920746F6F206D75636820696E616374A2
:100770006976652074696D65202D206375727265D8
:100780006E7420636F6D6D616E643A20004D34317C
:1007900030004D313132004D313038005A617472C1
:1007A0007A796D616E792E20005072696E7465726F
:1007B0002073746F707065642064756520746F2099
:1007C0006572726F72732E20466978207468652096
:1007D0006572726F7220616E6420757365204D3989
:1007E000393920746F20726573746172742E2028F9
:1007F00054656D70657261747572652069732072DD
:10080000657365742E205365742069742061667465
:1008100065722072657374617274696E67290A006B
:100820004E6F20436865636B73756D2077697468DC
:10083000206C696E65206E756D6265722C204C614E
:100840007374204C696E653A2000636865636B734E
:10085000756D206D69736D617463682C204C6173D4
:1008600074204C696E653A20004C696E65204E75A7
:100870006D626572206973206E6F74204C617374B1
:10088000204C696E65204E756D6265722B312C208F
:100890004C617374204C696E653A20004D313130E3
:1008A0000053442072656164206572726F720A00A1
:1008B000627573793A2070617573656420666F7232
:1008C00020696E7075740A00627573793A207061E0
:1008D0007573656420666F7220757365720A0062B5
:1008E0007573793A2070726F63657373696E670A06
:1008F000004B617274612077C5826FC5BC6F6E61F9
:100900000050726F737AC499207A72657365746F40
:100910007761C487004472756B61726B61207A6184
:1009200074727A796D2E0025533A20255300556252
:100930006974792E20005072696E74657220686146
:100940006C7465642E206B696C6C28292063616C63
:100950006C6564210A006563686F3A004572726FC6
:10096000723A00204D393220580020496E76616C71
:1009700069642065787472756465722000687474A7
:1009800070733A2F2F6D61726C696E66772E6F727D
:100990006700322E302E372E32002020506C616ED0
:1009A0006E657242756666657242797465733A2047
:1009B000002046726565204D656D6F72793A2000A2
:1009C000436F6D70696C65643A204465632020381C
:1009D00020323032300A00204C617374205570642C
:1009E000617465643A20323032302D31302D31352A
:1009F000207C20417574686F723A202852616C66C1
:100A00005F452C20414E455420413620636F6E6671
:100A10006967290A00322E302E372E320A004D61C6
:100A2000726C696E0020536F667477617265205234
:100A3000657365740A00205761746368646F67208A
:100A400052657365740A002042726F776E206F756D
:100A5000742052657365740A002045787465726E5F
:100A6000616C2052657365740A00506F776572552A
:100A7000700A006175746F25632E6700473238581D
:100A800059004D31303031006572726F72207772CB
:100A90006974696E6720746F2066696C650A00442A
:100AA0006F6E6520736176696E672066696C652E6E
:100AB0000A004D3239004B7261C58463C3B3772E8F
:100AC000002553202563202563202563202563000E
:100AD000656E6473746F7073206869743A200001E6
:100AE000FFFFFFFFFFFFFFFFFFFFFFFFFF0FFFFF06
:100AF000FFFFFFFFFFFFFFFFFFFFFF1E00000000E3
:100B000000000000000007FFFF38000000000000A8
:100B10000000000003FFFF70000000000000000064
:100B2000000001FFFF600000000000000000000066
:100B300000FFFF6000000000000000000000007FD8
:100B4000FFC000000000000000007800003FFFC070
:100B50000FC0FC00000000007818001FFFC03FE13C
:100B6000FF0000000000783C000FFFC07FF3FF8013
:100B700000000000783C0007FFC0FFFFFFC000003E
:100B80000000783C0003FFC1F87F87E00000000010
:100B900078000001FFC1F03F03E000000000780092
:100BA0000000FFC1E01E01E01F0003E0783C03F0FD
:100BB0007FC1E01E01E07FC00FF8783C07FC3FC119
:100BC000E01E01E1FFE01FFC783C0FFE1FC1E01EAC
:100BD00001E3FFF03FFE783C1FFE0FC1E01E01E382
:100BE000F3F83F3E783C3F3F07C1E01E01E7E0FCE1
:100BF0007C1F783C3E1F07C1E01E01E7C07C7C0FD4
:100C0000783C3C0F03C1E01E01E7807C780F783C04
:100C10003C0F03C1E01E01E7803C7800783C3C0FAC
:100C200003C1E01E01E7803C7800783C3C0F03C123
:100C3000E01E01E7803C7800783C3C0F03C1E01ED9
:100C400001E7C03C7800783C3C0F03C1E01E01E3A3
:100C5000E03C78007C3C3C0F03C1E01E01E3FF3F19
:100C6000F8007FBC3C0F03C1E01E01E1FF3FF8002C
:100C70003FBFFC0F03C1E01E01E0FF3FF8001FBFB4
:100C8000FC0F03C1E01E01E07F3FF8000FBFFC0F27
:100C9000036000000000000000000000000007608A
:100CA00000000000000000000000000006700000CE
:100CB000000000000000000000000E3800000000EE
:100CC00000000000000000001C1E000000000000EA
:100CD000000000000000780FFFFFFFFFFFFFFFFF95
:100CE000FFFFFFFFF001FFFFFFFFFFFFFFFFFFFF21
:100CF000FFFF801000AA03F0013A019002220130A8
:100D0000031001D00302017004F7001005ED00B0DC
:100D100005E5005006DD00F006D7009007D1003051
:100D200008CC00D008C7007009C300100ABE00B08C
:100D30000ABB00500BB700F00BB300900CB000D012
:100D40000DAA00100FA5005010A00090119B00D01C
:100D5000129600B014900090168B00701885005009
:100D60001A8000301C7B00B01E750030216F00B06F
:100D70002369003026640010285F00902A5A007012
:100D80002C5500F02E4F0070314800B0324500F075
:100D90003341007036390010373700503833009037
:100DA000392D00D03A2700B03C1C00503D1700F010
:100DB0003D1100903E0900D03FE5FF3F00496E69BC
:100DC0007469616C697A756A20454550524F4D00CF
:100DD0004472756B2070727A657277616E79004D1E
:100DE00032350050617573696E672E2E2E004545B1
:100DF00050524F4D2056657273696F6E2045727266
:100E00006F7200454550524F4D20496E6465782001
:100E10004572726F7200454550524F4D2043524308
:100E2000204572726F720049676E6F72650052657D
:100E3000736574756A006F70656E00545249474758
:100E400045524544007A5F6D696E00795F6D696E49
:100E500000785F6D696E005265706F7274696E67BD
:100E600020656E6473746F70207374617475730A97
:100E7000005A65726F77616E6965206E6965756489
:100E8000616E65005761726E696E673A20486F6DDA
:100E9000696E672042756D702044697669736F7260
:100EA000203C20310A000000484200004842000077
:100EB00080400202040000A0400000A040000000AA
:100EC00040000061430000634300006643FFFFFFF2
:100ED0004B61727461205344004472756B207773C8
:100EE00074727A796D616E790050727A657375C526
:100EF0008420636F2025736D6D0050727A65737561
:100F0000C58420636F202E316D6D0050727A657339
:100F100075C58420636F20316D6D0050727A6573E2
:100F200075C58420636F2031306D6D005275636824
:100F3000206F736900456B737472757A6A6120283B
:100F40006F732045290050727A657375C5842077C8
:100F5000205A0050727A657375C584207720590035
:100F600050727A657375C5842077205800220A0074
:100F7000556E6B6E6F776E20636F6D6D616E643A48
:100F8000202200416E657420413620676F746F77B0
:100F9000792E004472756B6F77616E69652E2E2E07
:100FA0000020453A00205A3A0020593A000000003B
:100FB000010200090A000000000403080700000005
:100FC0000000000000000000000000000020746F1E
:100FD0006F206C6F6E6720657874727573696F6EC1
:100FE0002070726576656E7465640A0020636F6CAC
:100FF0006420657874727573696F6E20707265769F
:10100000656E7465640A00DB0FC93F45BCDA3F8F2B
:10101000B30240FCF0274056946140FE4B9B408455
:10102000A5D840E0231841346A5641E859974164F5
:10103000DBD5416E271742B4B75542CE1A9742C846
:10104000AED542B5885A43D40684BFA65FA7BF7405
:1010500043E0BF10B11AC01C2C58C0E8F697C0B8C6
:1010600049D6C04E4E17C124D355C1802497C1A084
:10107000B5D5C1121A17C244AE55C2781797C26CC3
:10108000ACD5C267885AC300002200250028002B77
:101090000000002100240027002A000202020202B0
:1010A000020202040404040404040403030303030B
:1010B0000303030101010101010101010204081000
:1010C0002040800102040810204080010204081022
:1010D00020408080402010080402015A414E494BB4
:1010E0002054454D5045524154555259005468655D
:1010F000726D616C2052756E61776179004D383484
:101100000054656D7065726174757261004142537F
:1011100000504C41004F62726F747920776961749E
:1011200072616B61004D656E752067C582C3B377D0
:101130006E65005779C582C485637A2073696C6EC9
:10114000696B6900506F7A79636A61207A65726FA2
:1011500077610047323800526F7A67727A656A2089
:1011600024204479737A6100526F7A67727A656AD3
:101170002024207374C3B3C582004368C5826F64A2
:101180007A656E696500526F7A67727A656A2024A3
:10119000004261627973746570205A0050727A65FA
:1011A00070C582797700507265646B6FC59BC48788
:1011B0000011110D117C3C3E5E2B3D3F2F5B5D3BD2
:1011C0002C2A225C00557374617769656E6965200D
:1011D0007A616177616E736F77616E65004B6F6ED8
:1011E000666967757261636A610057637A797461D1
:1011F0006A207A2070616D69C499636900557374BF
:1012000061772E206661627279637A6E65005A6139
:101210007069737A20772070616D69C49963690081
:10122000526F7A67727A656A2024207573746177C9
:101230002E0053746F70004D3231005A776F6C6E10
:1012400069656E6965206B61727479004D32320098
:10125000577A6E6F7769656E6965005374726F6A4D
:10126000656E696500577374727A796D616A20647E
:1012700072756B00496E69636A616C2E206B6172D6
:10128000747920534400456B72616E2067C582C338
:10129000B3776E79002053697A653A200043616E16
:1012A0006E6F74206F70656E207375626469722052
:1012B0000053442063617264206F6B0A006F706595
:1012C0006E526F6F74206661696C65640A00766F98
:1012D0006C756D652E696E6974206661696C6564F4
:1012E0000A004E6F20534420636172640A004D323D
:1012F00034004D3233202573006F70656E206661B7
:10130000696C65642C2046696C653A200046696CFE
:10131000652073656C65637465640A0046696C6575
:10132000206F70656E65643A2000454E4420535529
:1013300042524F5554494E450A002220706F7300A7
:101340002220706172656E743A2200535542524FEA
:101350005554494E452043414C4C20746172676599
:10136000743A220053756263616C6C204F7665722B
:10137000666C6F77004578636565646564206D61B0
:101380007820535542524F5554494E45206465705C
:1013900074683A310A0057726974696E6720746F15
:1013A0002066696C653A2000667265736800646F38
:1013B000696E67004E6F77200002000040C0000099
:1013C000A0C00000000000005E4300005E4300007B
:1013D000664353657474696E67732053746F7265E6
:1013E000640053657474696E67732053746F72651B
:1013F00064202800000C0F00FE0000000000FCFC30
:1014000000070000000507070600002000F8102074
:1014100040F8000C0F00FE0000000000DADB000ABC
:10142000000000050A0A0600001020007088807085
:1014300008887005080806000010200078807008F1
:10144000F0000C0F00FE0000000000C1C4000A0004
:101450000000050707060000404060C040407803D8
:101460000707060100C04060C04040E0050A0A06C8
:1014700000001020008888C8A898888805080806F9
:101480000000102000B0C8888888000C0F00FE0003
:101490000000000099990005FE00000507070600FE
:1014A000FE7088F080702030000C0F00FE000000FD
:1014B00000008787000800000005080806000010EB
:1014C00020007088808870000C0F00FE0000000073
:1014D0000084850007FE00000509090600FE7088EB
:1014E00088F888888810080507070600FE700878C5
:1014F00088782030020084852D00C7140200878779
:101500001F00A814020099991E008A140200C1C489
:10151000490041140200DADB2F0012140200FCFC27
:101520001E00F4131FE020102010201010201020A7
:101530002010201030300840048003001FE03FF0EE
:101540003FF03FF01FE01FE03FF03FF03FF00FC0E3
:10155000078003003FFFF038007030FC3020FC10A3
:101560002078102030102C00D02E31D02F7BD02F9F
:101570007BD02E31D02C00D020301020781020FCD1
:101580001030FC303800703FFFF03FFFF038007043
:101590003186302387102787902F87D02F03D020C4
:1015A00030102078102078102030102F03D02F8793
:1015B000D02787902387103186303800703FFFF0A6
:1015C0001FFFF81FFFF80410400208200208200443
:1015D00010400820801041001041000820800410B5
:1015E000400000001FFFF81FFFF82568753A2530FE
:1015F00032687500256875642025303268753A2593
:10160000303268750020202020202020004F627595
:10161000646F776100C59A722E2066696C2E005740
:1016200079C5822E0057C5822E00452077206D6D2A
:10163000C2B30056736B6F6B206D696E00566D6997
:101640006E00566D6178204500566D6178205A0015
:10165000566D6178205900566D61782058002052EF
:101660000020204D33303420500020490020204DF0
:101670003330312050005049442073657474696ED2
:1016800067733A0020460020480020204D31343551
:101690002053004D6174657269616C2068656174E6
:1016A000757020706172616D65746572733A0020A7
:1016B000204D323036205800486F6D65206F6666C9
:1016C0007365743A00204A0020204D3230352042A4
:1016D00000416476616E6365643A20423C6D696ED8
:1016E0005F7365676D656E745F74696D655F757353
:1016F0003E20533C6D696E5F66656564726174651A
:101700003E20543C6D696E5F74726176656C5F66F5
:10171000656564726174653E204A3C6A756E635FFC
:101720006465763E0020540020204D323034205035
:1017300000416363656C65726174696F6E20287522
:101740006E6974732F7332293A20503C7072696E3F
:10175000745F616363656C3E20523C7265747261B4
:1017600063745F616363656C3E20543C74726176A0
:10177000656C5F616363656C3E0020204D323031E3
:101780002058004D6178696D756D20416363656C0B
:1017900065726174696F6E2028756E6974732F733A
:1017A00032293A0020204D3230332058004D6178E4
:1017B000696D756D20666565647261746573202856
:1017C000756E6974732F73293A00537465707320B2
:1017D00070657220756E69743A0020440020204DB7
:1017E0003230302053002044697361626C65640AB2
:1017F0000046696C616D656E742073657474696E02
:1018000067733A0020204D3134392043203B205566
:101810006E69747320696E2043656C736975730A11
:101820000020286D6D290020204732312020202003
:101830003B20556E69747320696E206D6D0024F431
:10184000D43050C38E20C2A24017828B7011127AFE
:10185000910D816CD90AA861E108C75866076151EA
:1018600043061E4B5D05C145A7041A411104093DFD
:101870009803713931034036DB0265339102D4306D
:101880005402802E1D02632CEE01752AC501B0287A
:10189000A001102781018F2564012B244B01E02238
:1018A0003401AC211F018D200D01801FFC00841E1E
:1018B000ED00971DDF00B81CD200E61BC600201B00
:1018C000BC00641AB200B219A8000A19A0006A1874
:1018D0009900D117910040178B00B516840031167E
:1018E0007E00B31579003A157300C7146F005814C1
:1018F0006A00EE1366008813630025135E00C712AA
:101900005B006C12570015125400C1115100701188
:101910004F0021114B00D61049008D104700461092
:10192000440002104200C00F4000800F3E00420FF2
:101930003C00060F3B00CB0E3800930E37005C0EC8
:101940003500270E3400F30D3200C10D3100900D2B
:101950003000600D2E00320D2D00050D2C00D90C2D
:101960002B00AE0C2900850C29005C0C2700350CDF
:1019700027000E0C2600E80B2400C40B2400A00B4B
:1019800023007D0B23005A0B2100390B2100180B7B
:101990002000F80A1F00D90A1E00BB0A1E009D0A7B
:1019A0001D00800A1D00630A1C00470A1B002C0A48
:1019B0001B00110A1A00F7091A00DD091900C409F1
:1019C0001900AB091900920917007B091800630977
:1019D00017004C09160036091600200916000A09DE
:1019E0001500F5081500E0081400CC081400B8082C
:1019F0001400A4081400900813007D0812006B085E
:101A00001300580812004608120034081100230879
:101A100011001208110001081100F0071000E00782
:101A20001000D0071000C0071000B0070F00A1077A
:101A3000100091070E0083070F0074070F00650761
:101A40000E0057070E0049070E003B070D002E073A
:101A50000E0020070D0013070D0006070D00F90604
:101A60000C00ED060D00E0060C00D4060C00C806C4
:101A70000C00BC060C00B0060C00A4060B00990676
:101A80000C008D060B0082060B0077060B006C061F
:101A90000B0061060A0057060B004C060A004206BE
:101AA0000A0038060A002E060A0024060A001A0652
:101AB0000A001006090007060A00FD050900F405E2
:101AC0000900EB050900E2050900D9050900D00568
:101AD0000900C7050900BE050900B5050800AD05E8
:101AE0000800A50509009C050800940508008C0560
:101AF0000800840508007C050800740508006C05D2
:101B00000700650508005D050700560508004E053D
:101B100007004705070040050800380507003105A4
:101B200007002A050700230507001C050600160507
:101B300007000F0507000805060002050700FB0463
:101B40000600F5040700EE040600E8040600E204BF
:101B50000700DB040600D5040600CF040600C90414
:101B60000600C3040600BD040600B7040600B10465
:101B70000500AC040600A6040600A00405009B04B2
:101B8000060095040500900406008A0405008504FB
:101B90000500800406007A04050075040500700441
:101BA00005006B04050066040500610405005C0483
:101BB000050057040500520405004D0405004804C3
:101BC0000500430405003E0404003A040500350402
:101BD0000500300404002C0405002704040023043D
:101BE00005001E0404001A04040016040500110474
:101BF00004000D04040009040500040404000004AA
:101C00000400FC030400F8030400F4030400F003E0
:101C10000400EC030400E8030400E4030400E00310
:101C20000400DC030400D8030400D4030400D00340
:101C30000400CC030400C8030300C503030024F41C
:101C400004D9201BC40C5C0E9804C4095F0265070C
:101C50007101F405F900FB04B30048048700C103D7
:101C600069005803550003034500BE023A00840290
:101C7000310053022A002902250004022000E40159
:101C80001C00C8011900AF0117009801140084015D
:101C90001300710110006101100051010E00430199
:101CA0000D0036010B002B010B0020010B0015016C
:101CB00009000C01090003010800FB000800F30003
:101CC0000800EB000700E4000600DE000600D80074
:101CD0000600D2000600CC000500C7000500C200C7
:101CE0000500BD000400B9000400B5000400B10007
:101CF0000400AD000400A9000400A5000300A20038
:101D000003009F0004009B0003009800030095005F
:101D1000020093000300900003008D0002008B007E
:101D20000300880002008600020084000300810096
:101D300002007F0002007D0002007B0002007900AB
:101D400002007700010076000200740002007200B9
:101D50000100710002006F0002006D0001006C00C4
:101D600002006A00010069000200670001006600CD
:101D700001006500010064000200620001006100D2
:101D80000100600001005F0002005D0001005C00D6
:101D900001005B0001005A000100590001005800D9
:101DA00001005700010056000100550001005400D9
:101DB00001005300000053000100520001005100D7
:101DC0000100500001004F0001004E0000004E00D5
:101DD00001004D0001004C0001004B0000004B00D1
:101DE00001004A00010049000100480000004800CD
:101DF00001004700010046000000460001004500C8
:101E000000004500010044000100430000004300C1
:101E100001004200000042000100410000004100BA
:101E20000100400001003F0000003F0001003E00B3
:101E300000003E0001003D0000003D0001003C00AC
:101E400000003C0000003C0001003B0000003B00A3
:101E500001003A0000003A0001003900000039009A
:101E60000100380000003800000038000100370091
:101E70000000370001003600000036000000360088
:101E8000010035000000350000003500010034007D
:101E90000000340000003400010033000000330073
:101EA0000000330001003200000032000000320068
:101EB000010031000000310000003100010030005D
:101EC000000030000000300001002F0000002F0053
:101ED00000002F0000002F0001002E0000002E0047
:101EE00000002E0001002D0000002D0000002D003C
:101EF00000002D0001002C0000002C0000002C0030
:101F000000002C0001002B0000002B0000002B0023
:101F100000002B0001002A0000002A0000002A0017
:101F200000002A000100290000002900000029000B
:101F300000002900000029000100280000002800FE
:101F400000002800000028000000280001002700F1
:101F500000002700000027000000270000002700E5
:101F600001002600000026000000260000002600D8
:101F700000002600010025000000250000002500CB
:101F800000002500000025000000250001002400BD
:101F900000002400000024000000240000002400B1
:101FA00001002300000023000000230000002300A4
:101FB0000000230000002300000023000100220095
:101FC0000000220000002200000022000000220089
:101FD000000022000100210000002100000021007B
:101FE000000021000000210000002100000021006D
:101FF0000100200000002000000020000000200060
:102000000000200000002000000020000000200050
:1020100001001F0000001F0000001F0000001F0043
:1020200000001F0000001F0000001F0001001E0034
:1020300000001E0000001E0000001E00000004370B
:1020400000001E290000511B00005810000010095C
:102050000000CC0400007802000041010000416D46
:102060006178204500416D6178205A00416D6178AA
:10207000205900416D6178205800412D70727A65B9
:102080007375C5842E00412D7779636F66616E6923
:10209000650050727A7973706965737A656E6965E7
:1020A000006B726F6B69452F6D6D006B726F6B69A2
:1020B0005A2F6D6D006B726F6B69592F6D6D006BD0
:1020C000726F6B69582F6D6D00496E69632E004DFC
:1020D0003432380046696C616D656E74006B726FE6
:1020E0006B692F6D6D004A756E6374696F6E204465
:1020F00065760050727A7973706965737A656E6976
:102100006520284129005072C499646B6FC59BC437
:102110008720285629005573742E20706F7A2E2040
:102120007A65722E0050727A657277696A00577309
:102130007465637A00527563680053746172742029
:1021400077796472756B75004472756B756A0043BC
:10215000616E6E6F7420656E746572207375626453
:1021600069723A2000022E2E00014F647377696570
:10217000C5BC004479737A61207A61207A696D6EFA
:10218000610050726F63656564004361703A006579
:102190006E7175657565696E672022006F6B005200
:1021A0006573656E643A200023646566696E652018
:1021B00044454641554C545F004B6420004B692018
:1021C000004B702000504944204175746F74756E47
:1021D000652066696E697368656421205075742096
:1021E000746865206C617374204B702C204B6920DF
:1021F000616E64204B6420636F6E7374616E7473E0
:102200002066726F6D2062656C6F7720696E746FE7
:1022100020436F6E66696775726174696F6E2E68B0
:102220000A00504944204175746F74756E652066CC
:1022300061696C6564212074696D656F75740A004D
:102240000A20436C617373696320504944200A007B
:10225000204B643A2000204B693A2000204B703A12
:1022600020000A204E6F206F76657273686F6F745E
:102270000A002054753A2000204B753A2000206D4A
:1022800061783A2000206D696E3A200020643A207F
:102290000020626961733A200050494420417574FE
:1022A0006F74756E652073746172740A00504944CE
:1022B000204175746F74756E65206661696C656424
:1022C000212054656D706572617475726520746F3C
:1022D0006F20686967680A00504944204175746F2F
:1022E0007374726F6A656E69650050494420417568
:1022F000746F74756E65206661696C656421204237
:102300006164206578747275646572206E756D62A3
:1023100065720A00202D20496E76616C6964206523
:1023200078747275646572206E756D6265722021B5
:102330000A0042C582C485643A204D415854454D37
:1023400050004D415854454D50207472696767657F
:102350007265640042C582C485643A204D494E547A
:10236000454D50004D494E54454D5020747269679B
:10237000676572656400202F002042403A002040CB
:102380003A002062797465733B2063726320004ECB
:102390006F20454550524F4D2E0A00454550524F33
:1023A0004D206461746173697A65206572726F7221
:1023B0002E0A002073746F726564207365747469EB
:1023C0006E67732072657472696576656420280093
:1023D000202863616C63756C6174656429210A004F
:1023E00020213D2000454550524F4D20435243206F
:1023F0006D69736D61746368202D202873746F722A
:102400006564292000496E6465783A200044494794
:1024100049504F5453204C6F616465640A0044492D
:102420004749504F5453204C6F6164696E670A00EE
:10243000204D61726C696E3D563832290A0045455F
:1024400050524F4D2076657273696F6E206D6973BF
:102450006D617463682028454550524F4D3D0048DA
:10246000617264636F6465642044656661756C7451
:102470002053657474696E6773204C6F6164656482
:102480000A003B20000000C8430000C84300008051
:10249000400000C8410000C8420000C8420000C817
:1024A000430000BE422823000088130000320000D1
:1024B00000102700004572723A2075746638206655
:1024C0006F6E74206E6F7420696E697469616C69D7
:1024D0007A65642E00000C0F00FE07022503BB0185
:1024E000FFFE0AFE08FE05080806000040F0C88846
:1024F00088987810050808060000C0F88888888841
:1025000088F80505050600012030F8302005080888
:102510000600002070F820202020E00509090600B0
:10252000FF2070A8A8B8888870200705050700015B
:10253000D86C366CD80509090600FFF8A888888889
:102540008888A8F8050A0A0600FE205050505088D6
:10255000A8A8887003030306000340A040FFFFFF04
:10256000FFFFFFFFFFFFFFFFFFFFFFFFFFFFFFFF7B
:10257000FFFFFF0000000605FF01070706020080BD
:10258000808080800080030303060105A0A0A005D1
:10259000060606000050F85050F8500509090600DC
:1025A000FF2070A8A07028A870200507070600006B
:1025B000C8C8102040989805070706000040A0A052
:1025C00040A8906801030306020580808003090982
:1025D0000601FF204040808080404020030909061A
:1025E00001FF804040202020404080050707060072
:1025F0000020A8702070A8200505050600012020F5
:10260000F820200203030601FFC0408005010106F7
:102610000003F8020202060100C0C0050707060019
:102620000008101020404080050707060000708851
:1026300098A8C8887003070706010040C0404040C2
:1026400040E0050707060000708808102040F805E4
:102650000707060000F8081030088870050707060D
:10266000000010305090F81010050707060000F821
:1026700080F008088870050707060000304080F0E9
:10268000888870050707060000F808101020202031
:10269000050707060000708888708888700507079E
:1026A00006000070888878081060020505060100A1
:1026B000C0C000C0C00206060601FFC0C000C04086
:1026C0008003050506010120408040200503030624
:1026D0000002F800F8030505060101804020408053
:1026E0000507070600007088102020002005070756
:1026F0000600007088B8A8B88070050707060000BB
:10270000708888F8888888050707060000F0484820
:10271000704848F0050707060000708880808088B0
:1027200070050707060000F04848484848F00507CC
:1027300007060000F88080F08080F8050707060093
:1027400000F88080F0808080050707060000708810
:102750008080988870050707060000888888F888B8
:102760008888030707060100E04040404040E0053C
:1027700007070600003810101010906005070706C4
:1027800000008890A0C0A090880507070600008080
:102790008080808080F805070706000088D8A88818
:1027A0008888880507070600008888C8A898888850
:1027B0000507070600007088888888887005070765
:1027C000060000F08888F08080800507070600007A
:1027D00070888888A89068050707060000F0888838
:1027E000F0A09088050707060000708880700888B0
:1027F00070050707060000F820202020202005078C
:102800000706000088888888888870050707060002
:1028100000888888885050200507070600008888AF
:102820008888A8A85005070706000088885020500F
:10283000888805070706000088885020202020058A
:102840000707060000F80810204080F80309090671
:1028500001FFE080808080808080E005070706001F
:1028600000804040201010080309090601FFE02005
:10287000202020202020E0050303060005205088AA
:102880000501010600FEF803030306010580402050
:10289000050505060000700878887805070706001A
:1028A000008080F0888888F00505050600007080AB
:1028B00080887005070706000008087888888878EF
:1028C0000505050600007088F08070050707060002
:1028D00000304840E04040400507070600FE708891
:1028E00088887808700507070600008080F08888CF
:1028F00088880307070601004000C0404040E0040C
:1029000009090601FE100030101010109060050734
:102910000706000080808890E09088030707060182
:1029200000C04040404040E0050505060000D0A83A
:10293000A8A8A8050505060000B0C8888888050570
:102940000506000070888888700507070600FEF0FD
:10295000888888F080800507070600FE78888888C8
:10296000780808050505060000B0C88080800505C8
:102970000506000078807008F005070706000020B3
:1029800020F8202020180505050600008888889872
:10299000680505050600008888885020050505069D
:1029A00000008888A8A8500505050600008850206A
:1029B00050880507070600FE88888850204080055B
:1029C0000505060000F8102040F80309090601FF7C
:1029D0002040404080404040200109090602FF801D
:1029E00080808080808080800309090601FF80400C
:1029F0004040204040408005030306000248A89064
:102A0000FFFFFFFFFFFFFFFFFFFFFFFFFFFFFFFFD6
:102A1000FFFFFFFFFFFFFFFFFFFFFFFFFFFFFFFFC6
:102A2000FF0000000605FF01070706020080008086
:102A3000808080800507070600FF2070A8A0A8708E
:102A400020050707060000304840E04048B0050573
:102A500005060000A8508850A80507070600008852
:102A600050F820F82020010707060200808080002F
:102A700080808004080806010070806090906010DB
:102A8000E0030101060107A006070706000078849D
:102A9000B4A4B4847803050506010460A06000E0D6
:102AA0000505050600002850A05028050303060070
:102AB00001F80808030101060103E0060707060004
:102AC000007884B4A4A48478050101060007F80402
:102AD00004040601056090906005070706000020C9
:102AE00020F8202000F803050506010440A020403E
:102AF000E0030505060104C0204020C003030306CF
:102B000001052040800507070600FE88888898E8B0
:102B1000808005080806000078E8E8E8682828288A
:102B2000020202060203C0C00302020601FE20C028
:102B300003050506010440C04040E0030505060109
:102B40000540A04000E0050505060000A050285003
:102B5000A0050A0A06000040C048506050B05078F6
:102B600010050A0A06000040C048506050A808102E
:102B700038050A0A060000C0204830E050B05078FE
:102B80001005070706000020002020408870050A75
:102B90000A060000402000708888F8888888050AA6
:102BA0000A060000102000708888F8888888050AC6
:102BB0000A060000205000708888F8888888050A76
:102BC0000A06000068B000708888F88888880509BF
:102BD000090600005000708888F8888888050A0A6D
:102BE000060000205020708888F88888880507072C
:102BF00006000078A0A0F0A0A0B80509090600FE14
:102C0000708880808088701060050A0A0600004085
:102C10002000F88080F08080F8050A0A0600001085
:102C20002000F88080F08080F8050A0A0600002065
:102C30005000F88080F08080F805090906000050F7
:102C400000F88080F08080F8030A0A0601008040C6
:102C500000E04040404040E0030A0A0601002040F6
:102C600000E04040404040E0030A0A06010040A066
:102C700000E04040404040E0030909060100A00098
:102C8000E04040404040E00507070600007048482B
:102C9000E8484870050A0A06000068B0008888C83D
:102CA000A8988888050A0A060000402000708888D5
:102CB00088888870050A0A0600001020007088883D
:102CC00088888870050A0A060000205000708888ED
:102CD00088888870050A0A06000068B00070888835
:102CE0008888887005090906000050007088888867
:102CF0008888700505050600018850205088050960
:102D0000090600FF087098A8A8A8C87080050A0ADC
:102D100006000040200088888888888870050A0A94
:102D200006000010200088888888888870050A0AB4
:102D30000600002050008888888888887005090966
:102D4000060000500088888888888870050A0A066E
:102D5000000010200088885020202020040707064B
:102D6000010080E0909090E0800507070600007069
:102D70008890A09088B005080806000040200070E8
:102D80000878887805080806000010200070087888
:102D900088780508080600002050007008788878B8
:102DA00005080806000068B00070087888780507F4
:102DB00007060000500070087888780508080600AB
:102DC00000205020700878887805050506000070FE
:102DD0002870A0780507070600FE708880887010AC
:102DE000600508080600004020007088F08070052B
:102DF00008080600001020007088F08070050808A0
:102E00000600002050007088F0807005070706005B
:102E10000050007088F080700308080601008040B0
:102E200000C0404040E0030808060100204000C008
:102E3000404040E003080806010040A000C04040B8
:102E400040E0030707060100A000C0404040E00545
:102E50000909060000502050087888888870050805
:102E60000806000068B000B0C88888880508080611
:102E7000000040200070888888700508080600005F
:102E8000102000708888887005080806000020500F
:102E900000708888887005080806000068B0007017
:102EA00088888870050707060000500070888888A9
:102EB000700505050600012000F80020050505063F
:102EC00000007898A8C8F005080806000040200017
:102ED0008888888870050808060000102000888807
:102EE00088887005080806000020500088888888B7
:102EF0007005070706000050008888888870050A5A
:102F00000A0600FE102000888888502040800509AD
:102F1000090600FE8080F0888888F0808005090915
:102F20000600FE5000888888502040805374C3B348
:102F3000C5820020436F756E7420583A00453100F9
:102F4000626564002C2073797374656D2073746FEF
:102F50007070656421204865617465725F49443A08
:102F60002000526F7A67727A2E206E6965756461EF
:102F70006E650048656174696E67206661696C659D
:102F80006400C0DAC7DB11241FBECFEFD0E4DEBF80
:102F9000CDBF11E0A0E0B1E0EAEFF5ED01E00BBF3D
:102FA00002C007900D92AE3CB107D9F722E1AEEC1A
:102FB000B1E001C01D92AC37B207E1F717E1C2ECF6
:102FC000D7E104C02197FE010E943DE8C13CD10732
:102FD000C9F70E94CAD10C94F0EA0C9400002F9219
:102FE0003F924F925F926F927F928F929F92AF9299
:102FF000BF92CF92DF92EF92FF920F931F93CF93E6
:10300000DF93CDB7DEB7EE970FB6F894DEBF0FBEF5
:10301000CDBF8EAF2091DC012CAF21E02093DC01ED
:103020008091E8108D3409F431C3843511F40C9487
:103030004928873411F00C946E288091E610909105
:10304000E7108531910511F40C9470284CF497FD2C
:1030500019C38230910544F1049709F450C212C398
:103060008A35910509F499C224F44C9709F485C274
:1030700009C38B35910509F494C28C35910509F08B
:1030800001C3E9E62E2EE1E03E2EF4E5EF2EF4E05A
:10309000FF2EA6E1B1E0B9A3A8A3A8EECA2EA4E032
:1030A000DA2E00E010E0BEC280910104813011F000
:1030B0000C94702811E6C12E14E0D12E06E1E02E0A
:1030C00001E0F02E88EEA82E84E0B82E10E088E50E
:1030D000810F0E94812F882319F10E94002F2B015C
:1030E0003C01812F0E949F2E882351F0D7012D9102
:1030F0003D914D915C91C301B2010E9461E809C00C
:10310000F5012081318142815381C301B2010E94C6
:1031100060E8D6016D937D938D939C9313970AC0BD
:10312000F70180819181A281B381F601808391832F
:10313000A283B3831F5FF4E0CF0ED11C24E0E20E24
:10314000F11C34E0A30EB11C133009F685E40E9493
:10315000812F882301F10E94002F6B017C0183E005
:103160000E949F2E882371F020912201309123012B
:103170004091240150912501C701B6010E9461E8E8
:103180006B017C01C0926D04D0926E04E0926F04DA
:10319000F092700410C08091220190912301A091BF
:1031A0002401B091250180936D0490936E04A09347
:1031B0006F04B093700486E40E94812F8823C9F0C5
:1031C0000E94002F20E030E0A9010E94E4E91816D7
:1031D00084F40E94002F20E030E040E752E40E9497
:1031E000E4E86093000170930101809302019093E1
:1031F000030180913D01882309F4BCC01091600453
:1032000010FF3CC0C0903F01D0904001E0904101D0
:10321000F090420120916104309162044091630476
:1032200050916404C701B6010E94E4E9181644F401
:10323000C0926104D0926204E0926304F09264044C
:10324000C0904B01D0904C01E0904D01F0904E01A8
:1032500020916104309162044091630450916404B0
:10326000C701B6010E944AE187FF08C0C09261040D
:10327000D0926204E0926304F092640411FF3CC0B7
:10328000C0904301D0904401E0904501F090460188
:103290002091650430916604409167045091680460
:1032A000C701B6010E94E4E9181644F4C09265040F
:1032B000D0926604E0926704F0926804C0904F01D7
:1032C000D0905001E0905101F0905201209165049E
:1032D000309166044091670450916804C701B601BB
:1032E0000E944AE187FF08C0C0926504D09266043C
:1032F000E0926704F092680412FF3CC0C09047015E
:10330000D0904801E0904901F0904A012091690471
:1033100030916A0440916B0450916C04C701B6016E
:103320000E94E4E9181644F4C0926904D0926A0439
:10333000E0926B04F0926C04C0905301D090540161
:10334000E0905501F09056012091690430916A0493
:1033500040916B0450916C04C701B6010E944AE190
:1033600087FF08C0C0926904D0926A04E0926B049F
:10337000F0926C048091D40983FD85C020912201D4
:1033800030912301409124015091250160916D04F9
:1033900070916E0480916F04909170040E944AE1D4
:1033A000882309F470C08091210581111BC06091B0
:1033B000510C7091520C8091530C9091540C0E94BE
:1033C00056E920912A0130912B01215031096217D1
:1033D000730744F40E94EA308CEE9FE00E94C430F0
:1033E00011E001C010E020912201309123014091B1
:1033F00024015091250160916D0470916E048091BB
:103400006F04909170040E9460E86B017C0120E0E1
:1034100030E0A9010E94E4E987FF04C0F7FAF094C4
:10342000F7F8F0942091260130912701409128016E
:1034300050912901C701B6010E94B0E120E030E0BF
:1034400048E453E40E94E4E918163CF40E94EA3090
:103450008DEC9FE00E94C43002C01123A1F0809146
:103460006D0490916E04A0916F04B09170048093EC
:10347000220190932301A0932401B09325018DE6AE
:1034800094E00E941E842AE037ED43E25CE3609101
:1034900000017091010180910201909103010E944D
:1034A000B0E16B017C016091590170915A01072EC6
:1034B000000C880B990B0E9451E19B01AC01C701E4
:1034C000B6010E94B0E169837A838B839C838E016D
:1034D0000F5F1F4F2DE634E049E654E065E674E0E7
:1034E00081E694E00E941C5880E1E1E6F4E0A6E168
:1034F000B1E001900D928A95E1F70C94702880E577
:103500000E94812F882329F00E94B82E6B017C0134
:1035100003C0C12CD12C760183E50E94812F882322
:1035200061F00E94002F20E030E04AE754E40E945E
:10353000B0E10E945DE96B017C010E94778180917E
:10354000E911811105C060E087E792E00E94AACCF2
:103550000E9474D1C60ED71EE81EF91E0E9474D1B7
:10356000DC01CB018C199D09AE09BF09B7FD02C072
:103570000C9470280E947F33F1CF80916004877093
:10358000873011F00C94912860E08FE40E948E2F18
:1035900081110C9470280C9491281092DB010C94EA
:1035A00070288FE08093DB010C9470280E94002F1C
:1035B0002B013C01133049F0D6012D913D914D91E5
:1035C0005C910E9460E82B013C01E8A1F9A12081F7
:1035D000318142815381C301B2010E9460E84B01F5
:1035E0005C012DEB37E346E855EB0E94E4E987FDEB
:1035F00021C02DEB37E346E855E3C501B4010E9435
:103600004AE11816BCF01F5FF4E0EF0EF11C28A190
:1036100039A12C5F3F4F39A328A334E0C30ED11C3E
:10362000143031F1F10181911F010E94812F882313
:1036300051F3BCCF133051F4409222015092230138
:10364000609224017092250101E0DDCFA501940173
:10365000D7016D917D918D919C910E9461E8F70158
:103660006083718382839383812F0E944E39CBCFF5
:10367000002321F082E291E00E941E840E94A43A7D
:103680000C9470280E9489430C9470288091E61055
:103690009091E7108237910509F453C70CF0B3C03D
:1036A0008B34910509F4B4C40CF049C088319105FC
:1036B00009F4CAC24CF58231910509F45EC66CF476
:1036C00097FF02C00C944628823091050CF4F3C198
:1036D000419709F44DC20C9446288531910509F4AF
:1036E00095C22CF4449709F460C20C9446288631A4
:1036F000910509F48FC2479711F00C944628E09188
:10370000E410F091E51094C28C31910509F422C3C4
:103710003CF48A31910509F4BCC20CF4A1C2C7C2C1
:103720008E31910509F425C30CF41CC38F3191052A
:1037300009F4C3C3809709F47DC30C9446288836E6
:10374000910509F482C4ACF58235910509F407C6E8
:1037500004F58D34910509F474C40CF45DC481350D
:10376000910511F00C9446280E94FCBB0E94023C7B
:103770000E9487810E947D3068EE73E080E090E0D7
:103780000E94A32F60E08DEB93E00E94AACC0C94E2
:1037900070288435910509F4F0C50CF4E7C585352A
:1037A000910509F421C68C35910509F440C60C94A5
:1037B00046288D36910509F46FC4ACF48A3691051C
:1037C00009F4A6C40CF491C48B36910509F4DCC449
:1037D0008C36910511F00C944628109244041092F6
:1037E00014010C9470288F36910509F4E6C40CF48A
:1037F000D3C48037910509F424C58137910509F4B4
:1038000027C50C9446288D3D910511F40C945D2537
:103810000CF0D5C08B39910509F47BC50CF0A4C020
:103820008737910509F4DEC60CF08EC08537910507
:1038300009F48EC60CF09CC68337910511F00C94E8
:10384000462885E195E00E94C43060E085E095E07F
:103850000E94E3B360E080EF94E00E94E3B361E094
:1038600089EC9DE00E94E3B361E085EE94E00E9464
:10387000E3B361E085ED94E00E94E3B360E08CEC9B
:1038800094E00E94E3B361E082EC94E00E94E3B331
:1038900060E088EB94E00E94E3B360E081EB94E0A9
:1038A0000E94E3B360E089EA94E00E94E3B360E041
:1038B0008BE994E00E94E3B360E08DE894E00E941D
:1038C000E3B360E08EE794E00E94E3B360E080E75A
:1038D00094E00E94E3B360E08AE594E00E94E3B3E1
:1038E00060E089E494E00E94E3B360E08AE394E05E
:1038F0000E94E3B361E083E394E00E94E3B360E0FD
:103900008EE194E00E94E3B360E080E194E00E94E5
:10391000E3B361E08DEF93E00E94E3B360E080EFFA
:1039200093E00E94E3B360E08BEE93E00E94E3B388
:1039300061E08EED93E00E94E3B360E08AEC93E0F7
:103940000E94E3B30C9470288937910509F455C699
:103950000CF44BC68C38910509F49CC4813991054F
:1039600009F452C60C9446288C3C910509F453C7BF
:10397000ACF4883C910509F4BFC634F48E3B910544
:1039800009F4A7C40C944628893C910509F4FBC6A8
:103990008B3C910509F41DC70C9446288E3C91057B
:1039A00009F480C70CF46BC7833D910509F498C7EF
:1039B0008C3D910511F40C9436250C9446288C3AD4
:1039C00041E0940711F40C946B277CF58E32A1E052
:1039D0009A0711F40C94212784F48C32E1E09E07BD
:1039E00011F40C94102614F00C942F26823291407E
:1039F00011F40C94B3250C944628803331E09307DE
:103A000011F40C94AE2614F40C946527803951E01F
:103A1000950711F40C9468278A39914011F00C94A1
:103A200046280E94DB2F0C947028883FB1E09B074A
:103A300011F40C9401282CF5853FF1E09F0711F457
:103A40000C94FB274CF4843F914011F00C944628D1
:103A50000E94A37C0C947028863F41E0940711F4E7
:103A60000C94FE27873F914011F00C94462861E0AA
:103A700083E50E948E2F91E089270E94499D0C9436
:103A80007028803AA3E09A0709F409C23CF48C300C
:103A9000924011F40C9411280C944628873EF3E0D0
:103AA0009F0711F40C941E28893E934011F40C9446
:103AB0002C280C94462880E50E94812F882329F029
:103AC0000E94B82E6B017C0103C0C12CD12C760161
:103AD00083E50E94812F882361F00E94002F20E05F
:103AE00030E04AE754E40E94B0E10E945DE96B01D6
:103AF0007C010E9477818091E4109091E5100097FD
:103B000021F061E00E94FACC05C060E081E892E01B
:103B10000E94AACC1091DC0183E08093DC0181E05B
:103B200080934404C114D104E104F10431F00E94F3
:103B300074D1C60ED71EE81EF91E80914404882356
:103B400011F40C94BF29C114D104E104F10411F45F
:103B50000C94C6290E9474D1DC01CB018C199D09FB
:103B6000AE09BF09B7FF02C00C94C6290C94BF2947
:103B70008091E01084FF02C00C94CA298091E21069
:103B800087FF02C00C94CA298091E310837011F062
:103B90000C94CA2960E080E992E00E94AACC5E9869
:103BA0005E9815985E980C9470288091840E83FF1F
:103BB00025C08AEA92E00E94C4308091840E83FF7F
:103BC00017C08DEB9CE00E94376B8BE1EDEBFCE0C6
:103BD000DE01119601900D928A95E1F760E070E0A8
:103BE000CE0101960E944A7BCE0101960E942B6D68
:103BF0008BE992E00E94C4300C9470280E94EA3055
:103C00008BEB92E00E94C4300C9470280E943C79A7
:103C10000C9470280E9480788091840E877F806247
:103C20008093840E0C947028803209F410823196AF
:103C300080818111F9CF60E08091E4109091E510CE
:103C40000E94327A0C9470280E945D30882321F003
:103C50000E948F780E94CC3B0E94FD420C947028F9
:103C60008091840E82FF03C08B7F8093840E8091AD
:103C7000E704813089F782E08093E7040E9474D1E1
:103C800060935004709351048093520490935304B2
:103C9000E3CF8091840E83FD02C00C94702883E5ED
:103CA0000E94812F81110C94DC290C94702883E4EC
:103CB0000E94332F882319F18FEC92E00E94C430C8
:103CC0008091670C882391F0BE016F5F7F4F84E67F
:103CD0009CE00E94FE698E010F5F1F4FD8018D91FD
:103CE0008D01882339F00E94BD30F8CF85EC92E039
:103CF0000E94C4308AE00E94BD300C9470288091EC
:103D0000840E82FF21C08EED92E00E94C43060914B
:103D1000800E7091810E8091820E9091830E4AE008
:103D20000E94BA318FE20E94BD3060917C0E70918A
:103D30007D0E80917E0E90917F0E4AE00E94BA31F6
:103D40000E9458330C94702880EF92E00E94C43097
:103D50000C9470288091E4109091E5100E94EB790A
:103D60000C9470288091840E8E7F8093840E0C9426
:103D700070288091840E83FD02C00C9470280E94EC
:103D800072438091840E83FD02C00C947028409190
:103D9000E4105091E510BE01645E7F4F80E00E9408
:103DA00047D08C01009711F40C9470286C8D7D8D98
:103DB00019821C8222E0AC01CE0101960E94316D75
:103DC000811102C0F12C14C0CE0101960E941F5E29
:103DD0008823C1F361E0CE0101960E94A669009795
:103DE00089F325EEFC0120831C820E942E65F82EAB
:103DF000CE0101960E942B6DB801FF2089F089E168
:103E000093E00E94D3308AE00E94BD301092800E71
:103E10001092810E1092820E1092830E0C947028D4
:103E200081E093E00E94D33088E993E20E94C4309D
:103E30000C9470288091840E82FD0E94778180917D
:103E4000840E83FD02C00C94702860E080E50E941F
:103E50008E2F182F682F8091E4109091E5100E940A
:103E6000327A83E50E94812F882381F00E94C82E38
:103E7000AB01BC014093800E5093810E6093820E83
:103E80007093830E84E69CE00E9421670E948F78E5
:103E900011110C9470280E94CC3B0C947028209136
:103EA000E4103091E5109091840E92609093840E0E
:103EB000C9010E94EB790C9470280E947D3B7B0124
:103EC0008C0120E831E541E050E00E94A0E7C90103
:103ED0006DE671E00E94F6E74B015C01C801B70195
:103EE00020E13EE040E050E00E94A0E7CA01B901B5
:103EF00028E130E040E050E00E94A0E7762E672EF7
:103F0000C62ED72E7CE3272E312C412C512CC801F4
:103F1000B701A20191010E94A0E7F62EE72ECA0187
:103F2000B901A20191010E94A0E7CB018E010F5FB0
:103F30001F4F8114910499F0EF92FF927F936F933A
:103F40006F927F92BF92AF929F928F9287E293E09F
:103F50009F938F931F930F930E94E2E013C0A114CD
:103F6000B104B1F0EF92FF927F936F936F927F92C3
:103F7000BF92AF928BE293E09F938F931F930F9327
:103F80000E94E2E00FB6F894DEBF0FBECDBF30C096
:103F9000CD2879F0EF92FF927F936F936F927F928B
:103FA0008FE293E09F938F931F930F930E94E2E021
:103FB000E9CF892B69F0EF92FF927F936F9383E3B0
:103FC00093E09F938F931F930F930E94E2E0DACFC9
:103FD000EF92FF9287E393E09F938F931F930F934A
:103FE0000E94E2E00F900F900F900F900F900F90B3
:103FF00060E0C8010E94FACC0E94EA30B8018BE36D
:1040000093E00E94D3308AE00E94BD300C94702867
:104010000E94CC3B0C9470288091E704813011F011
:104020000C94702882E08093E7040E9474D160931E
:1040300050047093510480935204909353040C9451
:1040400070280E94023C0C9470288091D40983FF50
:1040500002C00C9470280E946E3287FF02C00C943C
:10406000702889E40E94812F882311F40C94ED2993
:104070000E94DC2E90E01816190614F481E090E0FE
:1040800026E0289FF001299FF00D1124E759FF4EEB
:10409000808191810C94F8298091D40983FF02C01A
:1040A0000C9470280E946E3288AB87FF02C00C947B
:1040B000702889E40E94812F882311F40C94FF2931
:1040C0000E94DC2E90E01816190614F481E090E0AE
:1040D00026E0289FF001299FF00D1124E759FF4E9B
:1040E0008081918118A20C94102A0E946E32182FA0
:1040F00087FF02C00C9475288CE991E20E94C430BD
:10410000812F0E94DBB98AE00E94BD300C94752893
:1041100080E50E94974381110C94702881E40E94ED
:10412000332F882329F060911005062F10E002C07C
:104130000FEF10E089E40E94812F882399F00E94FC
:10414000DC2E90E01816190614F481E090E026E0C9
:10415000289FF001299FF00D1124E759FF4E04819B
:10416000158108C083E50E94812F882319F00E94E1
:10417000C82E8B01B8010F3F110519F010F06FEF39
:1041800070E060931005ACC780E50E9497438111F1
:10419000A7C710921005A4C78EE40E94812F882320
:1041A00009F49EC70E94C82E60936D1170936E1122
:1041B00080936F119093701193C783E50E94332F02
:1041C000882329F083E50E9497438093D4090E94B5
:1041D000EA3084E793E00E94C4308091D4098823B8
:1041E00069F13CE2E32E37E0F32E00E010E020E03E
:1041F0008091D40990E0A0E0B0E0002E04C0B69514
:10420000A795979587950A94D2F780FF0EC0DD2475
:10421000D394D20E222319F08CE20E94BD30F70114
:10422000859194910E94C4302D2D0F5F1F4F32E075
:10423000E30EF11C05301105D9F65CCD80E793E063
:1042400057CD41E060E070E08BE793E00E94EE30F4
:1042500083E50E94812F882371F00E94DC2E282F95
:1042600030E02D3331051CF48093040139C78CE311
:104270008093040135C70E94EA304091040150E068
:1042800060E070E089E893E00E9427328AE00E94B3
:10429000BD3026C78091D40983FD22C789E40E94DE
:1042A000812F882311F40C947F2C0E94DC2E90E047
:1042B0001816190614F481E090E026E0289FF0011A
:1042C000299FF00D1124E759FF4E628173810C94F0
:1042D000892C8091D40983FD03C789E40E94812F32
:1042E000882311F40C94982B0E94DC2E90E0181671
:1042F000190614F481E090E026E0289FF001299F40
:10430000F00D1124E759FF4E6281738118A20C94BD
:10431000A82B83E50E94812F882309F4E1C60E941F
:10432000DC2E182F90E0CD970CF01CE31093D201F7
:104330000E9474D16B017C01212F30E0A8EEB3E024
:104340000E94CDE7C60ED71EE81EF91EC092CE0110
:10435000D092CF01E092D001F092D101C1C68091FC
:10436000DB018F7D80618093DB01BAC68091DB0128
:104370008F7E80628093DB01B3C683E50E94812F2C
:104380008823E9F00E9474D16093D7017093D8011B
:104390008093D9019093DA010E94002F20E030E051
:1043A0004AE754E40E94B0E10E945DE96093050190
:1043B00070930601809307019093080191C6809144
:1043C000E01084FF02C00C94522D8091E21087FF10
:1043D00002C00C94522D8091E310837011F00C9464
:1043E000522D0E9487817CC683E50E94332F88234B
:1043F00009F476C60E9474D16093D7017093D801F6
:104400008093D9019093DA010E94002F20E030E0E0
:104410004AE754E40E94B0E10E945DE96093D30151
:104420007093D4018093D5019093D60159C60E9410
:104430006E3287FD55C69091E01094FD04C09091B6
:10444000E21097FF0AC019E6C12E11E0D12E05ED4A
:10445000E02E09E0F02E10E009C09091E310937077
:1044600091F7682F81E00E941D333AC6D6018D91E5
:104470006D010E94812F882309F459C0133009F07F
:104480004FC00E94002F4B015C0120E030E040EA69
:1044900051E40E944AE187FF3AC0A501940160916E
:1044A000F5097091F6098091F7099091F8090E9439
:1044B000E4E82B013C019B01AC016091050A70917D
:1044C000060A8091070A9091080A0E94B0E1609361
:1044D000050A7093060A8093070A9093080A609170
:1044E00004057091050580910605909107050E94CD
:1044F0004FE1A30192010E94B0E10E945DE9609347
:104500000405709305058093060590930705809236
:10451000F5099092F609A092F709B092F80907C040
:104520000E94002FF701648B758B868B978B1F5F22
:10453000F4E0EF0EF11C143009F098CF0E9453857F
:10454000CFC50E94984283E09DE00E9442CCC8C53E
:104550008091E4109091E510009709F47DCBDC0187
:104560002C91222309F478CB60E00E94FACCB8C5E4
:104570000091E4101091E51094E0F12C40E091508E
:1045800021F1F8018081282F2B7F213421F4218112
:104590002133D9F407C08035C1F4818180538A303A
:1045A00048F013C0813421F0853421F441E002C089
:1045B000FF24F39498012E5F3F4F89012F5F3F4FF7
:1045C000F80180818032C9F3DACF41110E94EA30CC
:1045D000FF2021F088EE95E00E94C430C8010E94BF
:1045E0005E337EC50E942E3B7BC581E080936C02CA
:1045F00080936B020E944F3B73C510926C02109225
:104600006B020E944F3B6CC583E50E94812F88237B
:1046100059F00E94D82E823048F00E94E6308CEE8D
:1046200095E00E94C4305CC580E090E08C011127C9
:1046300088E40E94812F8823E1F00E94D82E8A3AD4
:10464000910544F00E94D82E8530914034F40E94A8
:10465000D82E05C08AEA90E002C084E091E026E00E
:10466000209FF001219FF00D1124E759FF4E918307
:10467000808382E40E94812F8823D9F00E94D82E63
:10468000059744F00E94D82E8937910534F40E9492
:10469000D82E05C085E090E002C088E790E026E0D3
:1046A000209FF001219FF00D1124E759FF4E9383C5
:1046B000828386E40E94812F882309F411C50E9419
:1046C000D82E97FD09C00E94D82E8F3F910509F082
:1046D00034F40E94D82E05C080E090E002C08FEF35
:1046E00090E026E0209FF001219FF00D1124E75972
:1046F000FF4E95838483F4C40E946E32182F87FD89
:10470000EFC40091791084E40E94812F882311F472
:104710000C94772D0E94002F6B017C0120E030E08B
:10472000A9010E944AE1882341F124E01202F0012C
:104730001124EB58FF4EC082D182E282F38220E046
:1047400030E0A9016091751070917610809177101A
:10475000909178100E944AE181110CC080E090E0B5
:10476000A0EEBFE38093751090937610A09377101E
:10477000B093781001E00C94772D80E0809379104D
:104780000E943E7CADC40E946E3287FDA9C4A9E69A
:10479000EA2EA1E0FA2E05ED19E0B5EECB2EB9E038
:1047A000DB2ED7018D917D010E94332F882359F094
:1047B0000E94002F0E945DE9F8016083718382836B
:1047C00093830E9430810C5F1F4FC016D10649F7BA
:1047D00087C40E946E3287FD83C4E9E6EE2EE1E0D5
:1047E000FE2E05ED19E0F5EECF2EF9E0DF2ED70114
:1047F0008D917D010E94332F882339F00E94002F74
:10480000F80164A375A386A397A30C5F1F4FC0167E
:10481000D10669F765C48091E11087FF02C00C944E
:104820007D2D8091E2108E7011F00C947D2D4091C1
:10483000090A50910A0A60910B0A70910C0A8EE0E5
:1048400096E00E940C3340910D0A50910E0A60913F
:104850000F0A7091100A8EE596E10E940C33409188
:10486000110A5091120A6091130A7091140A85E29C
:1048700097E10E940C338AE00E94BD3031C48091E0
:10488000E01081FF02C00C94C32D8091E11081FFE4
:1048900002C00C94C32D8091E2108C7011F00C9426
:1048A000C32D1EC47FE6E72E72E0F72E10E088E5E8
:1048B000810F0E94332F882359F00E94002FD701C7
:1048C0006D937D938D939C931397812F0E944E3906
:1048D0001F5FB4E0EB0EF11C133049F70C943E1B44
:1048E0004090E8045090E9046090EA047090EB0472
:1048F00020913F013091400140914101509142018E
:10490000C301B2010E9461E868A379A38AA39BA3B3
:104910008090EC049090ED04A090EE04B090EF0431
:10492000209143013091440140914501509146014D
:10493000C501B4010E9461E86CA37DA38EA39FA36F
:10494000C090F004D090F104E090F204F090F304F1
:1049500020914701309148014091490150914A010D
:10496000C701B6010E9461E868A779A78AA79BA73B
:1049700020914B0130914C0140914D0150914E01DD
:10498000C301B2010E9461E82B013C0120914F015B
:10499000309150014091510150915201C501B40133
:1049A0000E9461E84B015C01209153013091540158
:1049B0004091550150915601C701B6010E9461E82E
:1049C0006B017C010E94EA308DE496E00E94C430C5
:1049D00083E50E94332F882321F00E94F02E8093DC
:1049E0003D0180913D01882319F08CE592E002C0E1
:1049F00081E195E00E94C43085E496E00E94C430D5
:104A000048A159A16AA17BA180E897E10E940C33DB
:104A10004CA15DA16EA17FA18DE59FE00E940C33AA
:104A200048A559A56AA57BA589E991E10E940C33A7
:104A30008BE096E10E94C4308DE396E00E94C43082
:104A4000B301A20180E897E10E940C33B501A401F3
:104A50008DE59FE00E940C33B701A60189E991E141
:104A60000E940C338AE00E94BD303AC383E50E9465
:104A7000812F882331F00E94D82E90935A01809381
:104A800059018091E0109091E110A091E210B09155
:104A9000E310892B8A2B8B2B09F022C360915901DB
:104AA00070915A018DE596E00E94613285E20E9484
:104AB000BD308AE00E94BD3013C30E946E32F82ED2
:104AC00087FD0EC383E50E94812F0F2D0F2C000C54
:104AD000110B882369F10E94D82EF801EE0FFF1FF9
:104AE000E55CFE4F91838083000F111F000F111FA3
:104AF000F801EA5DFE4F7F01BC01990F880B990B0D
:104B00000E9451E12AE037ED43E25CE30E94B0E10C
:104B1000F801E450F04F20813181428153810E949D
:104B2000B0E1D7016D937D938D939C931397D8C279
:104B30000E94EA3085E40E94BD3080E38F0D0E9420
:104B4000BD30000F111FF801E55CFE4F60817181DF
:104B500081E696E00E94613285E20E94BD308AE0E3
:104B60000E94BD30BDC28AE50E94812F811106C01E
:104B700083E50E94812F882309F443C00E94002FFF
:104B800020E030E040E050EC0E944AE187FF02C0A4
:104B90000C94232E0E94002F20E030E040E050E4EF
:104BA0000E94E4E9181614F40C941C2E0E94002FA5
:104BB0006B017C0184E00E946E39811122C020913A
:104BC000F1093091F2094091F3095091F409C701BC
:104BD000B6010E94B0E10E9456E92091860F309103
:104BE000870F260F371F3093870F2093860F209152
:104BF000781130917911620F731F7093791160935E
:104C000078118091E21087FF02C00C942A2E8091C7
:104C1000E310837011F00C942A2E0E94EA3060C2D7
:104C200083E50E94812F882321F00E94C82E8B01EA
:104C300002C004E011E080E50E94812F882349F042
:104C40000E94C82ECB016938734128F088E893E1AF
:104C500002C088EE93E0B8010E947B4141C285E426
:104C60000E949743811173C080E50E94332F8823EF
:104C700051F00E94002F6093580C7093590C809350
:104C80005A0C90935B0C89E40E94332F882381F0A7
:104C90000E94002F2CEA35EC47E25EE30E94B0E16F
:104CA00060935C0C70935D0C80935E0C90935F0C32
:104CB00084E40E94332F882381F00E94002F2CEA85
:104CC00035EC47E25EE30E94E4E86093600C709389
:104CD000610C8093620C9093630C0E94EA304091C7
:104CE000580C5091590C60915A0C70915B0C81E7F3
:104CF00096E00E940C332CEA35EC47E25EE36091CB
:104D00005C0C70915D0C80915E0C90915F0C0E9428
:104D1000E4E8AB01BC018DE696E00E940C332CEA7E
:104D200035EC47E25EE36091600C7091610C80911C
:104D3000620C9091630C0E94B0E1AB01BC0189E66A
:104D400096E00E940C338AE00E94BD30C9C10E94E7
:104D5000E63085E796E00E94C430C2C180E50E943B
:104D6000332F882351F00E94002F60938511709398
:104D70008611809387119093881189E40E94332FC4
:104D8000882381F00E94002F2CEA35EC47E25EE395
:104D90000E94B0E16093891170938A1180938B1106
:104DA00090938C1184E40E94332F882381F00E9419
:104DB000002F2CEA35EC47E25EE30E94E4E86093C2
:104DC0008D1170938E1180938F11909390110E948A
:104DD000EA30409185115091861160918711709150
:104DE000881181E796E00E940C332CEA35EC47E20B
:104DF0005EE36091891170918A1180918B1190917D
:104E00008C110E94E4E8AB01BC018DE696E00E94A3
:104E10000C332CEA35EC47E25EE360918D11709122
:104E20008E1180918F11909190110E94B0E1AB0191
:104E3000BC0189E696E00E940C338AE00E94BD30F6
:104E40004FC183E50E94332F182F882371F00E94F1
:104E5000002F0E9456E970932B0160932A0121E0F4
:104E6000672B09F020E02093210580E50E94332F75
:104E7000882359F020912A0130912B01232B11F026
:104E80000E94F02E809321052BC1111129C10E948F
:104E9000EA3080EA96E00E94C430809121058823A0
:104EA00019F088E39EE002C087E896E00E94C430D3
:104EB00060912A0170912B018FE896E00E94613287
:104EC0008BE896E00E94C4300BC10E94EDAB08C194
:104ED0000E94778105C187E00E946E39FE013196FC
:104EE0001F01882391F182FF03C04EEB51E002C005
:104EF00045EC51E081FF03C020EC31E002C025EC1D
:104F000031E080FF03C082EC91E002C085EC91E0CB
:104F10005F934F933F932F939F938F9383EB96E0F1
:104F20009F938F933F922F920E94E2E00E94EA307B
:104F3000C1010E945E3360E0C1010E94FACC0FB64D
:104F4000F894DEBF0FBECDBFCBC00AEB13E126E164
:104F500031E039A328A39DECC92E9EE0D92E7F0114
:104F6000F8016591759185919491A8A1B9A18D9051
:104F70009D90AD90BD90B9A3A8A3A50194010E94F6
:104F800060E82B013C01F701608371838283938386
:104F900020E030E040EA51EC0E94E4E987FD0AC0DD
:104FA00020E030E040EA51E4C301B2010E944AE14E
:104FB00018162CF4F601849118160CF452C6D70179
:104FC0008D909D90AD90BD907D0120E030E040EA55
:104FD00051ECC501B4010E94E4E987FD4DC620E013
:104FE00030E040EA51E4C501B4010E944AE11816DC
:104FF0000CF056C641C60E9433C472C00E94ACBDBC
:105000006FC0209396110E94C5BE109296118823FE
:1050100009F466C00E94EA3085E097E00E94C4303F
:105020005FC08091840E82FF04C080648093840EF0
:1050300057C083FF55C00E94724352C081E08093E5
:1050400001041092141260E083E50E948E2F8111FA
:1050500047C00E94D0B144C00E947D3B6D337105B2
:105060008105910520F088E297E00E94FDB384E27B
:1050700097E00E94FDB380E197E00E94C4308DEF7D
:1050800090E190937D0280937C022AC00E94894324
:1050900027C00091E6101091E7100E9474D1609330
:1050A000D7017093D8018093D9019093DA0100233E
:1050B000B9F00E94EA3084E50E94BD30B80177273C
:1050C000072E000C880B990B0E94453280E20E944B
:1050D000BD3085E796E00E94C43002C00E9489433B
:1050E000FEADF11102C00E94C0B12CAD2093DC01D5
:1050F000EE960FB6F894DEBF0FBECDBFDF91CF9115
:105100001F910F91FF90EF90DF90CF90BF90AF90E5
:105110009F908F907F906F905F904F903F902F90D7
:1051200008950E94778110923E010E9474D160938D
:10513000D7017093D8018093D9019093DA018091BF
:10514000000190910101A0910201B09103018093AF
:10515000DF019093E001A093E101B093E20180911F
:10516000590190915A019093DE018093DD0184E60C
:1051700090E090935A018093590181E080936C02F2
:105180000E944F3B8AE50E94332F382E88E50E940B
:10519000332F882E89E50E94332F8812EEC03814F1
:1051A00011F0D82C06C0DD24D394882483943324B2
:1051B000339482E50E94812F882369F00E94002F9A
:1051C0002B013C0120E030E0A9010E944AE1882344
:1051D00009F4A0C005C0412C512CB0E46B2E762CF4
:1051E000811003C0DD2009F49FC020E030E0A90158
:1051F000C301B2010E9461E87B018C0190901E0105
:10520000C0901F01B0902001A0902101292D3C2DBC
:105210004B2D5A2D0E944AE14090160150901701E3
:10522000609018017090190120911A0130911B01B2
:1052300040911C0150911D0128A339A34AA35BA3EF
:1052400020E030E046E653E487FD60C5B701C801C1
:105250000E944AE187FD04C0E12CF12C06E613E42C
:1052600080E090E0A0E8B0E48C8F9D8FAE8FBF8F80
:1052700089839A83AB83BC839701A801692D7C2D18
:105280008B2D9A2D0E944AE187FF0EC0C701D801DD
:1052900080931E0190931F01A0932001B0932101E0
:1052A000CE014C960E94813940921601509217010E
:1052B000609218017092190188A199A1AAA1BBA1BD
:1052C00080931A0190931B01A0931C01B0931D01C0
:1052D000CE0101960E9481399701A80160911E01BB
:1052E00070911F0180912001909121010E94E4E9B9
:1052F000181674F4C701D80180931E0190931F0102
:10530000A0932001B0932101CE014C960E948139D7
:105310000E947781882019F080E00E94D339DD2037
:1053200019F081E00E94D339332019F082E00E9405
:10533000D3390E94913980916B0280936C028091E5
:10534000DF019091E001A091E101B091E201809331
:10535000000190930101A0930201B0930301809199
:10536000DD019091DE0190935A018093590183E011
:10537000809315010E94A43AB3CED82E1ACF109272
:1053800044041093DC010E94FD42AACE0E947F33A8
:105390000C949D1D88E50E94332F81115E9889E54C
:1053A0000E94332F81115E988AE50E94332F882353
:1053B00009F496CE159894CE0E94C82EAB01BC017C
:1053C0004093800E5093810E6093820E7093830EF3
:1053D00084E69CE00E94216783CE83E50E94812FB2
:1053E000882309F47DCE0E94002F0E9456E9CB014C
:1053F0000E94CBB961E080E00E94E1DB71CE83E5E1
:105400000E94812F88A3811106C082E50E94812F0E
:10541000882309F465CE0E94002F0E9456E9CB0133
:105420000E94CBB961E081E00E94E1DB6091550C04
:105430007091560C072E000C880B990B0E9451E1BD
:105440006B017C018090510C9090520CA090530CF9
:10545000B090540CA50194010E94E4E918160CF4D4
:105460004BC2B8A1B11119C0A5019401C701B60181
:105470000E94E4E918160CF43FC28CE493E09F9379
:105480008F938BE693E09F938F931F920E94E1CCC2
:105490000F900F900F900F900F9081E08093140168
:1054A00018A619A61AA61BA61CAA1DAA1EAA1FAAE0
:1054B00019AEECE3EAAFFCE1FBAF26E42DAFC12C63
:1054C000D12C50E8E52E6FEBF62E1CA231E038AF60
:1054D000812C912C54016091550C7091560C072E23
:1054E000000C880B990B0E9451E1162F072F782E84
:1054F000692E9601A7010E944AE18823F1F02091CC
:10550000510C3091520C4091530C5091540C88A185
:10551000612F702F811109C0872D962D0E944AE1BD
:10552000881F8827881F8CA30CC0872D962D0E946A
:105530004AE187FDD7C11CA204C01C2D0D2D7E2C75
:105540006F2C0E9474D16B017C01DC01CB012CA972
:105550003DA94EA95FA9821B930BA40BB50BB7FD08
:1055600033C0D701C60188519C4FAF4FBF4F8CABA2
:105570009DABAEABBFAB88A90E94DBB988E493E0DA
:105580000E94C43081149104A104B104B9F0D50182
:10559000C401805F984DAF4FBF4FBC01CD016C1966
:1055A0007D098E099F0928EE33E040E050E00E941B
:1055B000A0E7CA01B9010E94453203C08FE30E94EF
:1055C000BD308AE00E94BD300E947F330E9474D1BA
:1055D0006093D7017093D8018093D9019093DA0139
:1055E0009091510C9CA7A091520CADA7B091530C77
:1055F000BEA7E091540CEFA7292F3A2F4B2F5E2F17
:10560000612F702F872D962D0E9460E81B012C01C1
:1056100020E030E0A9010E94E4E987FF04C057FAC6
:10562000509457F8509481149104A104B104E1F40A
:1056300020E030E040E85FE3C201B1010E944AE1AE
:1056400087FF1EC0F8ADFF2339F045E0842E4DE002
:10565000942EA12CB12C03C0812C912C54018C0CC4
:105660009D1CAE1CBF1C0CC020E030E040E450E4A8
:10567000C201B1010E94E4E9181614F44601570171
:105680002CA12223C1F188A599A5AAA5BBA5892B88
:105690008A2B8B2B61F0D701C60128A539A54AA515
:1056A0005BA5821B930BA40BB50BB7FD24C02CA5E7
:1056B0003DA54EA55FA569AD7AAD8BAD9DAD0E94B0
:1056C00060E820E030E040EC5FE30E944AE187FDC3
:1056D00009C1D701C601805A9541AF4FBF4F88A776
:1056E00099A7AAA7BBA79CA599AFADA5AAAFBEA530
:1056F000BBAFEFA5EDAF80911401882309F4F2C090
:1057000081149104A104B10431F418AEC12ED02E3D
:10571000E72CF62CE0CEF0E1CF1AF7E2DF0AE10841
:10572000F108C818D908EA08FB08F7FCEECFDAC080
:1057300083E50E94812F88A3811106C082E50E9423
:10574000812F882309F4CCCC0E94002F0E9456E9B7
:10575000683771050CF0A3C1962F872F90938211A3
:10576000809383110E9443B860E081E00E94E1DBF6
:105770006091821170918311072E000C880B990B98
:105780000E9451E120917E1130917F114091801152
:10579000509181110E94E4E918160CF0CDC086EA00
:1057A00093E060E00E94AACC81E08093140118A6E7
:1057B00019A61AA61BA618AA19AA1AAA1BAA18AED5
:1057C0004CE349AF5CE15AAF86E48BAFC12CD12CDE
:1057D00090E8E92E2FEBF22E1CA291E09CAB812CDD
:1057E000912C54016091821170918311072E000C4D
:1057F000880B990B0E9451E1162F072F782E692EE6
:105800009601A7010E944AE1882309F49EC02091D5
:105810007E1130917F114091801150918111A8A18A
:10582000612F702F872D962DA11189C00E944AE10A
:10583000881F8827881F8CA30E9474D16B017C016C
:10584000DC01CB0128A939A94AA95BA9821B930BCA
:10585000A40BB50BB7FF7EC00E947F330E9474D1AA
:105860006093D7017093D8018093D9019093DA01A6
:1058700090917E119CA7A0917F11ADA7B09180114E
:10588000BEA7E0918111EFA7292F3A2F4B2F5E2F52
:10589000612F702F872D962D0E9460E81B012C012F
:1058A00020E030E0A9010E94E4E987FF04C057FA34
:1058B000509457F8509481149104A104B10409F054
:1058C0008FC020E030E040E85FE3C201B1010E94F8
:1058D0004AE187FD73C02CA1211190C08091140171
:1058E0008111C5C080911401882309F4F9CB10926D
:1058F00014010E94FD42F4CB8BE593E0C0CD83E51B
:105900000E94812F882309F4EBCB0E94002F0E9474
:1059100056E9683771056CF4962F872F90938211A2
:10592000809383110E9443B861E080E00E94E1DB34
:10593000D7CB98E780E0F2CF80E993E032CF0E94A6
:105940004AE187FDCFCF1CA277CF1C2D0D2D7E2CD9
:105950006F2C72CFD701C60188519C4FAF4FBF4FFC
:1059600088AB99ABAAABBBAB80E00E94DBB988E403
:1059700093E00E94C43081149104A104B104B9F0F1
:10598000D501C401805F984DAF4FBF4FBC01CD0121
:105990006C197D098E099F0928EE33E040E050E044
:1059A0000E94A0E7CA01B9010E94453203C08FE3FB
:1059B0000E94BD308AE00E94BD304ECFFCA9FF237B
:1059C00039F085E0882E8DE0982EA12CB12C03C0F3
:1059D000812C912C54018C0C9D1CAE1CBF1C7BCFC8
:1059E00020E030E040E450E4C201B1010E94E4E96B
:1059F00018160CF070CF460157016DCF88A599A5F8
:105A0000AAA5BBA5892B8A2B8B2B61F0D701C601D8
:105A100028A539A54AA55BA5821B930BA40BB50B42
:105A2000B7FD5CCF2CA53DA54EA55FA568AD79ADB2
:105A30008AAD9BAD0E9460E820E030E040E85FE383
:105A40000E944AE187FD4ECFD701C601805A954199
:105A5000AF4FBF4F88A799A7AAA7BBA79CA598AF90
:105A6000ADA5A9AFBEA5BAAFEFA5EBAF37CF8114F7
:105A70009104A104B10431F41CAAC12ED02EE72C4C
:105A8000F62CB0CEF0E1CF1AF7E2DF0AE108F10818
:105A9000C818D908EA08FB08F7FCEECF23CF98E72F
:105AA00080E05CCE0E94778188E50E94332F8823B6
:105AB00031F05E9A80916E028E7F80936E0289E54E
:105AC0000E94332F882331F05E9A80916E028D7F81
:105AD00080936E028AE50E94332F882309F400CB5D
