:100000000C947A1B0C94A41B0C94A41B0C94A41B9E
:100010000C94A41B0C94A41B0C94A41B0C94A41B64
:100020000C94A41B0C94A41B0C94A41B0C94A41B54
:100030000C94A41B0C9469580C94A41B0C94A41B42
:100040000C94A41B0C9402840C94D9C00C94A41B93
:100050000C9471420C94A41B0C94A41B0C94A41B30
:100060000C94A41B0C94A41B0C94A41B0C94A41B14
:100070000C94A41B0C94A41B0C94A41B0C94A41B04
:100080000C94A41B0C94A41B0C94A41B4C4B554B1C
:100090005F4B684B714B8C4B994BA24B7A4B834B0C
:1000A0005254555448544C546C546C5459545D54E7
:1000B00063546754B6BD3ABEEABDE4BDFCBD01BEA3
:1000C0002EBE48C04DC052C05CC08AC08AC066C047
:1000D0006EC076C080C04E414E494E495459494E7B
:1000E00046CDCCCC3D0AD7233C17B7D13877CC2BA3
:1000F000329595E6241FB14F0A000020410000C848
:100100004200401C4620BCBE4CCA1B0E5AAEC59DC8
:1001100074434F4D4D554E49434154494F4E004451
:10012000525952554E004552524F525300494E4675
:100130004F004543484F0020746F6F206C6F6E670F
:1001400020657874727573696F6E2070726576655C
:100150006E7465640A0020636F6C64206578747245
:100160007573696F6E2070726576656E7465640A6A
:1001700000536C6565702E2E2E00526573756D6987
:100180006E67207072696E74003344205072696E1D
:100190007465722072656164792E00436C69636BCB
:1001A00020746F20726573756D652E2E2E004E6F54
:1001B000206D6F76652E00456E642066696C652043
:1001C0006C6973740A00426567696E2066696C65C4
:1001D000206C6973740A004D31323500534420702D
:1001E00072696E74696E67206279746520004E6F63
:1001F00074205344207072696E74696E670A0046F9
:10020000696C652064656C657465643A0044656C6E
:100210006574696F6E206661696C65642C2046693F
:100220006C653A20006F70656E206661696C65646C
:100230002C2046696C653A20002569730025696D9C
:1002400020256973002569682025696D202569735B
:1002500000256964202569682025696D202569735A
:100260000025697920256964202569682025696D44
:1002700020256973005072696E742074696D653A47
:10028000200050726F7465637465642050696E0A53
:1002900000452569202573003344205072696E742F
:1002A00065722072656164792E0032012D0126018C
:1002B0001F0111016F66660044454255473A004BE5
:1002C000494C4C45442E20004D3131332053006FB2
:1002D0006B0048656174696E6720646F6E652E00FF
:1002E00020573A0045256920257300334420507279
:1002F000696E7465722072656164792E004265646E
:1003000020646F6E652E0020573A004265642048D5
:10031000656174696E672E003344205072696E7493
:100320006572204F66662E00454D455247454E4347
:10033000595F50415253455200434153455F4C4928
:100340004748545F4252494748544E45535300541E
:100350004F47474C455F4C494748545300534F461D
:1003600054574152455F504F574552004255494CF2
:10037000445F50455243454E54004C4556454C4908
:100380004E475F44415441005A5F50524F4245002E
:100390004155544F4C4556454C005052494E545FC0
:1003A0004A4F420050524F47524553530041555413
:1003B0004F5245504F52545F54454D5000564F4C8C
:1003C000554D455452494300454550524F4D0053F9
:1003D000455249414C5F584F4E5F584F4646004684
:1003E00049524D574152455F4E414D453A4D61721C
:1003F0006C696E20413820504C55532056312E36B2
:1004000020284769746875622920534F5552434527
:100410005F434F44455F55524C3A68747470733A69
:100420002F2F6769746875622E636F6D2F4D61722F
:100430006C696E4669726D776172652F4D61726C81
:10044000696E2050524F544F434F4C5F56455253A4
:10045000494F4E3A312E30204D414348494E455F79
:10046000545950453A3344205072696E7465722075
:1004700045585452554445525F434F554E543A31B6
:1004800020555549443A63656465326132662D34BE
:100490003161322D343734382D396231322D6335A4
:1004A000356336326633363766660A002F2F2000F2
:1004B0007A5F6D696E3A2000795F6D696E3A20004F
:1004C000785F6D696E3A20005265706F7274696E64
:1004D0006720656E6473746F7020737461747573D4
:1004E0000A004D31343520533C696E6465783E20F6
:1004F0006F7574206F662072616E67652028302DDD
:1005000031290A0053657474696E672054726176EC
:10051000656C20416363656C65726174696F6E3AE6
:10052000200053657474696E67205265747261634C
:100530007420416363656C65726174696F6E3A2003
:100540000053657474696E67205072696E7420413F
:100550006363656C65726174696F6E3A2000536500
:100560007474696E67205072696E7420616E6420C5
:1005700054726176656C20416363656C6572617469
:10058000696F6E3A2000205A002059005800202040
:100590004D61783A2000205A002059005800202050
:1005A0004D696E3A20004F6E20004F666600536F13
:1005B000667420656E6473746F70733A2000000176
:1005C0000F150E12FF16170E13FF03021A14FFFF6A
:1005D000FF0C04FFFFFF01000EFFFF0C190DFF18B9
:1005E000FFFFFFFFFFFF20643A0020693A00207000
:1005F0003A0043290A0061626C656420286D696EC7
:100600002074656D702000436F6C6420657874728F
:10061000756465732061726520004F66667365744A
:1006200073206170706C696564004572723A205481
:100630006F6F206661722100546F6F2066617220B7
:1006400066726F6D207265666572656E6365207097
:100650006F696E740A00454550524F4D20646973AE
:1006600061626C65640A004E6F2063617365206C83
:10067000696768740A004163746976652045787417
:1006800072756465723A2000556E6B6E6F776E20DE
:10069000636F6D6D616E643A2022004C696E652057
:1006A0004E756D626572206973206E6F74204C61A7
:1006B0007374204C696E65204E756D6265722B31C6
:1006C0002C204C617374204C696E653A20004B49B4
:1006D0004C4C45442E200053544F505045442E203E
:1006E000005072696E7465722073746F7070656407
:1006F0002064756520746F206572726F72732E208E
:1007000046697820746865206572726F7220616E28
:100710006420757365204D39393920746F207265F6
:1007200073746172742E202854656D7065726174E3
:100730007572652069732072657365742E20536528
:1007400074206974206166746572207265737461C7
:100750007274696E67290A004E6F20436865636B87
:1007600073756D2077697468206C696E65206E758D
:100770006D6265722C204C617374204C696E653A11
:100780002000636865636B73756D206D69736D61BF
:100790007463682C204C617374204C696E653A2038
:1007A000004D313130004D333100534420726561CA
:1007B00064206572726F720A00446F6E65207072F9
:1007C000696E74696E672066696C650A0020496EFF
:1007D00076616C6964206578747275646572200056
:1007E0000000C8C1000000000000000000009643A7
:1007F000000096430000AF43205A3A0020593A00C7
:1008000020436F756E7420583A0020453A00205AF4
:100810003A0020593A00583A003A004361703A00D1
:1008200023646566696E65202044454641554C54F5
:100830005F4B64200023646566696E652020444533
:100840004641554C545F4B69200023646566696ED0
:1008500065202044454641554C545F4B7020005064
:100860004944204175746F74756E652066696E69C0
:1008700073686564212050757420746865206C610C
:100880007374204B702C204B6920616E64204B6484
:1008900020636F6E7374616E74732066726F6D2067
:1008A00062656C6F7720696E746F20436F6E666946
:1008B0006775726174696F6E2E680A005049442032
:1008C0004175746F74756E65206661696C6564212D
:1008D0002074696D656F75740A00544845524D4126
:1008E0004C2052554E4157415900546865726D6114
:1008F0006C2052756E617761790048656174696E2C
:1009000067206661696C65640048656174696E673B
:10091000206661696C656400504944204175746FBC
:1009200074756E65206661696C6564212054656D1F
:10093000706572617475726520746F6F2068696785
:10094000680A00204B643A2000204B693A200020BE
:100950004B703A20000A20436C6173736963205026
:100960004944200A002054753A2000204B753A2053
:1009700000206D61783A2000206D696E3A200020D9
:10098000643A200020626961733A200045787472ED
:10099000756465206D6F726500526573756D6520B5
:1009A0007072696E7400524553554D45204F505436
:1009B000494F4E533A0020204E6F7A7A6C653A20A8
:1009C000006368616E6765006F6620746865206605
:1009D000696C616D656E74005761697420666F7231
:1009E000207374617274005052494E542050415526
:1009F0005345440020204E6F7A7A6C653A200020DF
:100A00000066696C616D656E7420756E6C6F6164F3
:100A1000005761697420666F72005052494E54202D
:100A20005041555345440020204E6F7A7A6C653A08
:100A300020002000506C6561736520776169742E19
:100A40002E2E0048656174696E67206E6F7A7A6C2D
:100A500065005052494E54205041555345440020A2
:100A6000204E6F7A7A6C653A2000200068656174C8
:100A7000206E6F7A7A6C652E0050726573732062F7
:100A80007574746F6E20746F005052494E5420502C
:100A900041555345440020204E6F7A7A6C653A20C8
:100AA00000746F20636F6E74696E75652E2E2E0054
:100AB000616E6420707265737320627574746F6EFA
:100AC00000496E736572742066696C616D656E7441
:100AD000005052494E542050415553454400202067
:100AE0004E6F7A7A6C653A2000200066696C616D01
:100AF000656E74206C6F6164005761697420666F65
:100B000072005052494E54205041555345440020E4
:100B1000204E6F7A7A6C653A2000200066696C611D
:100B20006D656E74206578747275646500576169CF
:100B30007420666F72005052494E542050415553F4
:100B4000454400746F20726573756D650057616967
:100B50007420666F72207072696E74005052494E34
:100B600054205041555345440056652D6A65726BBB
:100B70000056652D6A65726B0056652D6A65726B4D
:100B800000567A2D6A65726B00567A2D6A65726B13
:100B90000056792D6A65726B0056792D6A65726B05
:100BA0000056792D6A65726B0056782D6A65726BF6
:100BB0000056782D6A65726B0056782D6A65726BE7
:100BC000004D6F74696F6E004573746570732F6D9F
:100BD0006D004573746570732F6D6D005A73746585
:100BE00070732F6D6D005A73746570732F6D6D0087
:100BF0005973746570732F6D6D00597374657073DC
:100C00002F6D6D005873746570732F6D6D00587380
:100C1000746570732F6D6D004D6F74696F6E005346
:100C2000746570732F6D6D004A65726B004163636C
:100C3000656C65726174696F6E0056656C6F63698F
:100C4000747900436F6E74726F6C0046696C2E206D
:100C50004469612E0046696C2E204469612E004F64
:100C60006666004F6E20004520696E206D6D330072
:100C7000436F6E74726F6C0043616E6E6F742065AB
:100C80006E746572207375626469723A2000022E78
:100C90002E000152656672657368004D61696E00D1
:100CA00020204E6F7A7A6C653A2000200042616302
:100CB0006B004D696E696D756D2054656D702069AE
:100CC00073203137302E0048656174696E67206685
:100CD00061696C65640000002100240027002A007F
:100CE00000002200250028002B0000002000230027
:100CF0002600290002020202020202020404040485
:100D000004040404030303030303030301010101B7
:100D100001010101010204081020408001020408C1
:100D200010204080010204081020408080402010E4
:100D300008040201000000010200090A000000008E
:100D4000040308070000000000000000000000008D
:100D5000000000004B494C4C45442E2000202D2023
:100D6000496E76616C696420657874727564657229
:100D7000206E756D62657220210A0000000000007F
:100D80000000000000000000000000000000000063
:100D90000000000000000000000000000000000C47
:100DA0000000000000001E0000000C00001E0000FB
:100DB000000C00003E0000000C00003306701E3FD7
:100DC00000003306F87F3F000063071C638C0000BF
:100DD00061860CC18C0000E1860CFF8C0000FF8650
:100DE0000CFF8C0001FFC60CC00C000180C60CE19A
:100DF0000C000180C60C7F0F000300660C3E07004C
:100E00002020506C616E6E65724275666665724236
:100E1000797465733A20002046726565204D656DD2
:100E20006F72793A2000436F6D70696C65643A2087
:100E30004D617220313920323031390A00207C2056
:100E4000417574686F723A20286E6F6E652C20644D
:100E5000656661756C7420636F6E666967290A0048
:100E6000323031372D31322D32352031323A303077
:100E700000204C61737420557064617465643A207D
:100E800000413820504C55532056312E360A004D23
:100E900061726C696E0020536F66747761726520B1
:100EA00052657365740A00205761746368646F67E4
:100EB0002052657365740A002042726F776E206F4E
:100EC00075742052657365740A00204578746572E4
:100ED0006E616C2052657365740A00506F7765729D
:100EE00055700A0073746172740A006572726F72D1
:100EF0002077726974696E6720746F2066696C650B
:100F00000A00456E6473746F707320256320256337
:100F100020256320256300205A3A0020593A0020FA
:100F2000583A00656E6473746F7073206869743A20
:100F30002000446F6E6520736176696E6720666974
:100F40006C652E0A004D32390024F4D43050C38E23
:100F500020C2A24017828B7011127A910D816CD938
:100F60000AA861E108C7586607615143061E4B5D38
:100F700005C145A7041A411104093D98037139318F
:100F8000034036DB0265339102D4305402802E1DBB
:100F900002632CEE01752AC501B028A0011027813B
:100FA000018F2564012B244B01E0223401AC211F69
:100FB000018D200D01801FFC00841EED00971DDFB8
:100FC00000B81CD200E61BC600201BBC00641AB28D
:100FD00000B219A8000A19A0006A189900D1179147
:100FE0000040178B00B516840031167E00B31579CA
:100FF000003A157300C7146F0058146A00EE1366A8
:10100000008813630025135E00C7125B006C125743
:101010000015125400C111510070114F0021114BE5
:1010200000D61049008D10470046104400021042BF
:1010300000C00F4000800F3E00420F3C00060F3BF7
:1010400000CB0E3800930E37005C0E3500270E34AF
:1010500000F30D3200C10D3100900D3000600D2EF7
:1010600000320D2D00050D2C00D90C2B00AE0C29E3
:1010700000850C29005C0C2700350C27000E0C267F
:1010800000E80B2400C40B2400A00B23007D0B23DD
:10109000005A0B2100390B2100180B2000F80A1F01
:1010A00000D90A1E00BB0A1E009D0A1D00800A1DF1
:1010B00000630A1C00470A1B002C0A1B00110A1AB5
:1010C00000F7091A00DD091900C4091900AB091954
:1010D00000920917007B091800630917004C0916D4
:1010E0000036091600200916000A091500F5081532
:1010F00000E0081400CC081400B8081400A4081478
:1011000000900813007D0812006B081300580812A5
:1011100000460812003408110023081100120811BB
:101120000001081100F0071000E0071000D00710C0
:1011300000C0071000B0070F00A107100091070EB4
:101140000083070F0074070F0065070E0057070E96
:101150000049070E003B070D002E070E0020070D6B
:101160000013070D0006070D00F9060C00ED060D33
:1011700000E0060C00D4060C00C8060C00BC060CEF
:1011800000B0060C00A4060B0099060C008D060B9F
:101190000082060B0077060B006C060B0061060A46
:1011A0000057060B004C060A0042060A0038060AE1
:1011B000002E060A0024060A001A060A0010060974
:1011C0000007060A00FD050900F4050900EB050902
:1011D00000E2050900D9050900D0050900C7050985
:1011E00000BE050900B5050800AD050800A5050904
:1011F000009C050800940508008C0508008405087B
:10120000007C050800740508006C050700650508EA
:10121000005D050700560508004E05070047050755
:10122000004005080038050700310507002A0507BA
:1012300000230507001C050600160507000F05071B
:10124000000805060002050700FB040600F5040778
:1012500000EE040600E8040600E2040700DB0406D2
:1012600000D5040600CF040600C9040600C3040626
:1012700000BD040600B7040600B1040500AC040676
:1012800000A6040600A00405009B040600950405C2
:1012900000900406008A0405008504050080040609
:1012A000007A04050075040500700405006B040550
:1012B0000066040500610405005C04050057040590
:1012C00000520405004D04050048040500430405D0
:1012D000003E0404003A040500350405003004040F
:1012E000002C04050027040400230405001E040448
:1012F000001A04040016040500110404000D04047F
:1013000000090405000404040000040400FC0304B4
:1013100000F8030400F4030400F0030400EC0304E9
:1013200000E8030400E4030400E0030400DC030419
:1013300000D8030400D4030400D0030400CC030449
:1013400000C8030300C503030024F404D9201BC410
:101350000C5C0E9804C4095F0265077101F405F97D
:1013600000FB04B30048048700C10369005803551B
:101370000003034500BE023A008402310053022AF2
:10138000002902250004022000E4011C00C8011904
:1013900000AF0117009801140084011300710110BF
:1013A000006101100051010E0043010D0036010BD8
:1013B000002B010B0020010B00150109000C010995
:1013C0000003010800FB000800F3000800EB000721
:1013D00000E4000600DE000600D8000600D2000689
:1013E00000CC000500C7000500C2000500BD0004D8
:1013F00000B9000400B5000400B1000400AD000411
:1014000000A9000400A5000300A20003009F00043F
:10141000009B000300980003009500020093000366
:1014200000900003008D0002008B00030088000282
:10143000008600020084000300810002007F000299
:10144000007D0002007B00020079000200770001AD
:1014500000760002007400020072000100710002B8
:10146000006F0002006D0001006C0002006A0001C4
:1014700000690002006700010066000100650001CC
:1014800000640002006200010061000100600001D0
:10149000005F0002005D0001005C0001005B0001D4
:1014A000005A0001005900010058000100570001D6
:1014B00000560001005500010054000100530000D7
:1014C00000530001005200010051000100500001D2
:1014D000004F0001004E0000004E0001004D0001D1
:1014E000004C0001004B0000004B0001004A0001CD
:1014F00000490001004800000048000100470001C9
:1015000000460000004600010045000000450001C3
:1015100000440001004300000043000100420000BD
:1015200000420001004100000041000100400001B4
:10153000003F0000003F0001003E0000003E0001AF
:10154000003D0000003D0001003C0000003C0000A8
:10155000003C0001003B0000003B0001003A00009D
:10156000003A000100390000003900010038000095
:10157000003800000038000100370000003700018B
:101580000036000000360000003600010035000083
:101590000035000000350001003400000034000078
:1015A000003400010033000000330000003300016C
:1015B0000032000000320000003200010031000063
:1015C0000031000000310001003000000030000058
:1015D00000300001002F0000002F0000002F00004D
:1015E000002F0001002E0000002E0000002E000140
:1015F000002D0000002D0000002D0000002D000136
:10160000002C0000002C0000002C0000002C000129
:10161000002B0000002B0000002B0000002B00011D
:10162000002A0000002A0000002A0000002A000111
:101630000029000000290000002900000029000006
:1016400000290001002800000028000000280000F8
:1016500000280000002800010027000000270000EB
:1016600000270000002700000027000100260000DE
:1016700000260000002600000026000000260001D1
:1016800000250000002500000025000000250000C6
:1016900000250000002500010024000000240000B7
:1016A00000240000002400000024000100230000AA
:1016B000002300000023000000230000002300009E
:1016C000002300000023000100220000002200008F
:1016D0000022000000220000002200000022000181
:1016E0000021000000210000002100000021000076
:1016F0000021000000210000002100010020000066
:101700000020000000200000002000000020000059
:10171000002000000020000000200001001F000049
:10172000001F0000001F0000001F0000001F00003D
:10173000001F0000001F0001001E0000001E00002E
:10174000001E0000001E0000004D383420582059B3
:10175000205A2045006265640A002C207379737456
:10176000656D2073746F70706564212048656174C5
:1017700065725F49443A200048656174696E67206C
:101780006661696C65640048656174696E672066AE
:1017900061696C65640048617264636F64656420AC
:1017A00044656661756C742053657474696E677303
:1017B000204C6F616465640A009001000090010094
:1017C0000032000000102700000000164300001641
:1017D00043000080400000C8410000A0420000A07B
:1017E000420000C8430000BE4220440020490020BF
:1017F000204D3330312050005049442073657474BB
:10180000696E67733A0A00204600204200204800B3
:1018100020204D3134352053004D6174657269616B
:101820006C2068656174757020706172616D65749B
:101830006572733A0A00205A0020590020204D3268
:101840003036205800486F6D65206F66667365748A
:101850003A0A00204500205A002059002058002054
:10186000420020540020204D323035205300416486
:1018700076616E6365643A20533C6D696E5F6665A0
:101880006564726174653E20543C6D696E5F74726C
:101890006176656C5F66656564726174653E204261
:1018A0003C6D696E5F7365676D656E745F74696DBD
:1018B000655F75733E20583C6D61785F78795F6A2B
:1018C00065726B3E205A3C6D61785F7A5F6A657223
:1018D0006B3E20453C6D61785F655F6A65726B3E6B
:1018E0000A0020540020520020204D323034205075
:1018F00000416363656C65726174696F6E20287561
:101900006E6974732F7332293A20503C7072696E7D
:10191000745F616363656C3E20523C7265747261F2
:1019200063745F616363656C3E20543C74726176DE
:10193000656C5F616363656C3E0A00204500205A58
:101940000020590020204D3230312058004D617860
:10195000696D756D20416363656C65726174696F53
:101960006E2028756E6974732F7332293A0A00202D
:101970004500205A0020590020204D323033205895
:10198000004D6178696D756D20666565647261747E
:1019900065732028756E6974732F73293A0A0020C5
:1019A0004500205A0020590020204D39322058008F
:1019B00053746570732070657220756E69743A0A8D
:1019C0000020204D3230302044300A0020204D329B
:1019D00030302044002044697361626C65640A0001
:1019E00046696C616D656E742073657474696E67A9
:1019F000733A0020204D3134392043203B20556E6E
:101A000069747320696E2043656C736975730A008D
:101A10002020473231202020203B20556E697473EE
:101A200020696E206D6D0A007C3C3E5E2B3D3F2F91
:101A30005B5D3B2C2A225C006175746F25692E6703
:101A4000004D3234004D32332025730057726974D3
:101A5000696E6720746F2066696C653A20006F704C
:101A6000656E206661696C65642C2046696C653A18
:101A700020006F70656E206661696C65642C20467D
:101A8000696C653A200046696C652073656C656316
:101A90007465640A002053697A653A200046696CCF
:101AA00065206F70656E65643A20006F70656E200A
:101AB0006661696C65642C2046696C653A2000207B
:101AC00066696C653A2000646F696E6700667265CE
:101AD0007368004E6F772000454E442053554252A4
:101AE0004F5554494E450A002220706F7300222042
:101AF000706172656E743A2200535542524F5554CC
:101B0000494E452043414C4C207461726765743ADC
:101B100022004B494C4C45442E2000747279696E6A
:101B20006720746F2063616C6C207375622D67632E
:101B30006F64652066696C657320776974682074CA
:101B40006F6F206D616E79206C6576656C732E20E9
:101B50004D4158206C6576656C2069733A0045727A
:101B6000726F723A0043616E6E6F74206F70656EB3
:101B70002073756264697220006563686F3A00457E
:101B800078747275646572004D6F7665205A004DE9
:101B90006F76652059004D6F76652058005072654C
:101BA0007061726500526573746F72652066616959
:101BB0006C736166650046696C616D656E74004D9D
:101BC0006F74696F6E0054656D70657261747572C3
:101BD00065004D61696E00507265686561742041F1
:101BE000425320636F6E66005072656865617420B1
:101BF000504C4120636F6E66005049442D440050A4
:101C000049442D44005049442D49005049442D4930
:101C1000005049442D50005049442D5000200820C8
:101C20004661637400200820466163740020082028
:101C30004D6178002008204D6178002008204D611A
:101C400078002008204D696E002008204D696E0044
:101C50002008204D696E004F6666004F6E200041DF
:101C600075746F74656D700046616E207370656584
:101C7000640046616E2073706565640042656400AF
:101C8000426564004E6F7A7A6C65004E6F7A7A6CAA
:101C90006500436F6E74726F6C004265640042654C
:101CA00064004E6F7A7A6C65004E6F7A7A6C6500CC
:101CB00046616E2073706565640046616E207370C6
:101CC0006565640054656D70657261747572650058
:101CD00070012C0190012701B0012201C0011D01FA
:101CE000F00118011002130130020E016002090117
:101CF00090020401C002FF000003FA004003F50057
:101D00008003F000D003EB002004E6007004E10043
:101D1000E004DC004005D700C005D2004006CD003D
:101D2000D006C8008007C3003008BE00F008B90024
:101D3000C009B400B00AAF00B00BAA00D00CA500D7
:101D4000000EA000500F9B00C01096005012910092
:101D500000148C00C0158700B0178200B0197D00F8
:101D6000D01B7800001E730040206E009022690096
:101D7000F024640040275F0090295A00E02B5500B2
:101D8000102E500020304B0010324600E03341004E
:101D900090353C001037370070383200A0392D00E4
:101DA000B03A2800A03B2300603C1E00103D190003
:101DB000903D1400103E0F00703E0A00C03E05002A
:101DC000003F0000403FFBFF803FF6FFC03FF1FFB8
:101DD0004572723A204D494E54454D50204245447B
:101DE000004572723A204D494E54454D50004D49C0
:101DF0004E54454D50207472696767657265640082
:101E00004572723A204D415854454D502042454448
:101E1000004572723A204D415854454D50004D4195
:101E20005854454D50207472696767657265640047
:101E3000202F002042403A0020403A0020746F6F6B
:101E4000206C6F6E6720657874727573696F6E2091
:101E500070726576656E7465640A0020636F6C64E9
:101E600020657874727573696F6E2070726576651F
:101E70006E7465640A005072656865617420504C28
:101E80004120456E64005072656865617420504C55
:101E90004120426564005072656865617420504C51
:101EA00041005072657061726500507265686561CD
:101EB000742041425320456E64005072656865612C
:101EC0007420414253204265640050726568656128
:101ED00074204142530050726570617265004D3448
:101EE0003238005072656865617420504C4100437F
:101EF0006F6F6C646F776E005072656865617420F7
:101F0000414253004368616E67652066696C616D8C
:101F1000656E740044697361626C652073746570EA
:101F200070657273004D38340053657420686F6DAE
:101F300065206F666673657473004175746F206801
:101F40006F6D6500473238004D6F766520617869A6
:101F500073004D61696E004D6F76652058004D6FBE
:101F600076652059004D6F7665205A004578747269
:101F700075646572004D6F766520302E316D6D0091
:101F80004D6F766520316D6D004D6F766520313077
:101F90006D6D004D6F7665206178697300457874CA
:101FA0007275646572004D6F7665205A004D6F76CC
:101FB000652059004D6F766520580025753A25300B
:101FC000327500253032753A25303275002575643A
:101FD00020253032753A25303275005A00590058A4
:101FE00000092000000000000000000000000000C8
:101FF0007FFFE00000000000000000000000007013
:1020000000E000000000000000000000000061F897
:102010006000000000000000000000000041F82007
:1020200000000000000000000000000040F0200060
:1020300000000000000000000000004060200000E0
:10204000000000000000000000005801A07F800098
:102050000000000000004104005C63A0FFC000001D
:1020600000000000002082005EF7A0FFC00000001A
:10207000000000002082005EF7A0FFC0000000000A
:102080000000004104005C63A07F800000000000AD
:1020900000008208005801A07F80000000000000BE
:1020A00001041000406020FFC0000000000000019B
:1020B00004100040F020FFC000000000000000827B
:1020C000080041F820FFC0000000000000004104AB
:1020D0000061F8603F000000000000000000000008
:1020E0007000E01E0000000000000001FFFF807F84
:1020F000FFE00C0000000000000001FFFF80000076
:10210000000000000000000000000000007FFFE071
:102110000000000000000000000000007000E0006F
:102120000000000000000000000000630C600000E0
:1021300000000000000000000000470E200000002A
:102140000000000000000000004F0F200000000011
:1021500000000000000000005F0FA0000000000071
:10216000000000000000005E07A07F80000000006B
:10217000000000410400406020FFC000000000009B
:10218000000020820040F020FFC00000000000009E
:102190000020820040F020FFC0000000000000008E
:1021A0004104004060207F800000000000000082A9
:1021B00008005E07A07F80000000000000010410FE
:1021C000005F0FA0FFC0000000000000010410002D
:1021D0004F0F20FFC00000000000000082080047F1
:1021E0000E20FFC000000000000000410400630C4E
:1021F000603F00000000000000000000007000E0F0
:102200001E0000000000000001FFFF807FFFE00CC7
:102210000000000000000001FFFF80000000000936
:102220001200FC0A01E803D720FFFD0EFD0BFD00A4
:10223000000009000E010B0B0904008080808080E3
:10224000808000008080040404090307909090902F
:10225000080A0A090000242424FF2424FF2424243B
:10226000070B0B0901FF107C929050381412927CDE
:1022700010070A0A09010042A4A4481010244A4A7F
:1022800084070A0A09010060909090606294889423
:102290006201040409040780808080030C0C090398
:1022A000FF204040808080808080404020030C0CD4
:1022B0000903FF804040202020202020404080074C
:1022C00007070901031092543854921007070709B1
:1022D0000101101010FE1010100204040904FEC0C9
:1022E000C04080070101090104FE02020209040046
:1022F000C0C0070A0A0901000204040810102040A7
:102300004080070A0A090100384482828282828260
:102310004438070A0A0901001030509010101010BC
:1023200010FE070A0A09010038448202040810203E
:1023300040FE070A0A090100FE020408180402020E
:102340008478070A0A090100040C14244484FE045A
:102350000404070A0A090100FE808080F8040202D2
:102360008478070A0A0901003C408080B8C4828250
:102370004438070A0A090100FE0204040808101084
:102380001010070A0A090100384482443844828246
:102390004438070A0A09010038448282463A020298
:1023A0000478020707090400C0C0000000C0C00292
:1023B00009090904FEC0C0000000C0C04080050932
:1023C000090902000810204080402010080704047A
:1023D000090102FE0000FE050909090200804020F3
:1023E000100810204080070A0A09010038448202C0
:1023F000040810100010070A0A09010038449AAABC
:10240000AAAAAA9C403C070A0A0901001028282809
:10241000447C44828282070A0A090100F88482848B
:10242000F884828284F8070A0A0901003C4280800D
:1024300080808080423C070A0A090100F884828279
:102440008282828284F8070A0A090100FE80808065
:10245000F880808080FE070A0A090100FE808080E3
:10246000F88080808080070A0A0901003844828051
:10247000808E82824438070A0A09010082828282A1
:10248000FE8282828282050A0A090200F820202048
:102490002020202020F8070A0A0901003E08080829
:1024A000080808888870070A0A0901008284889051
:1024B000A0D088848282070A0A0901008080808077
:1024C0008080808080FE070A0A0901008282C6AAF5
:1024D000928282828282070A0A0901008282C2A253
:1024E000928A86828282070A0A0901007C8282829D
:1024F00082828282827C070A0A090100F884828231
:1025000084F880808080080B0B0901FF38448282A8
:102510008282828A443A01070A0A090100F8848209
:102520008284F890888482070A0A0901007C8280EC
:10253000807C020202827C070A0A090100FE101058
:1025400010101010101010070A0A09010082828270
:1025500082828282824438070A0A090100828282CA
:1025600044444428282810070A0A0901008282826C
:102570008292929292AA44070A0A09010082824436
:1025800028101028448282070A0A09010082824426
:1025900028101010101010070A0A090100FE02048A
:1025A000081020408080FE040C0C0903FFF080809E
:1025B0008080808080808080F0070A0A0901008086
:1025C000404020101008040402040C0C0902FFF023
:1025D00010101010101010101010F0070404090152
:1025E00006102844820801010900FFFF03030309C4
:1025F000030A8040200707070901007C02027E824F
:10260000867A070A0A090100808080BCC282828221
:10261000C2BC0707070901007C82808080827C079A
:102620000A0A0901000202027A86828282867A07F9
:1026300007070901007C8282FE80827C070A0A0962
:1026400001001C22222020F820202020070A0A094D
:1026500001FD7A84848478807C82827C070A0A095E
:102660000100808080BCC28282828282050A0A09BF
:102670000200600000E02020202020F8050D0D0958
:1026800002FD180000380808080808088888700744
:102690000A0A090100808080848890B0C88482057D
:1026A0000A0A090200E02020202020202020F8072C
:1026B0000707090100EC929292929282070707099C
:1026C0000100BCC282828282820707070901007C66
:1026D00082828282827C070A0A0901FDB8C4828252
:1026E00082C4B8808080070A0A0901FD3A468282C6
:1026F00082463A0202020707070901009C62424033
:102700004040400707070901007C82807C02827CF0
:102710000709090901002020FC20202020221C0795
:1027200007070901008282828282867A07070709E9
:10273000010082824444282810070707090100820B
:1027400082929292AA440707070901008244281046
:10275000284482070A0A0901FD4242242424181849
:10276000109060070707090100FE0408102040FED2
:10277000060B0B0902001C20202020C02020202056
:102780001C010C0C0904FF80808080808080808088
:10279000808080060B0B090100E0101010100C1057
:1027A000101010E007030309010762928CFFFFFF7E
:1027B000FFFFFFFFFFFFFFFFFFFFFFFFFFFFFFFF29
:1027C000FFFFFFFFFFFFFFFFFFFFFFFFFFFF000017
:1027D0000009000E010B0B090400808000008080BE
:1027E000808080808006080809010008789490A005
:1027F000A47840070A0A0901001C222020F82020A2
:1028000060A25C070606090103827C44447C8207BF
:102810000A0A090100828244287C107C10101001F1
:102820000B0B0904FF808080808000808080808086
:10283000040B0B0902FF60908060909090601090F4
:102840006003020209030BA0A00809090900013C6A
:102850004299A5A1A599423C05070709010360908B
:1028600070907800F8070808090101122448909038
:10287000482412060404090102FC040404050101B1
:10288000090204F80809090900013C42B9A5BDA9DB
:10289000A5423C060101090109FC040404090306E0
:1028A00060909060070909090101101010FE1010D6
:1028B0001000FE0406060901046090106080F00418
:1028C00006060901046090201090600303030903C9
:1028D0000A2040800709090901FE8282828282C69D
:1028E000BA8080070A0A0901007E8A8A8A7A0A0A5F
:1028F0000A0A0A020202090404C0C004030309020E
:10290000FD20906003060609010440C0404040E0FD
:102910000506060901047088887000F80708080990
:1029200001019048241212244890070A0A09010064
:1029300040C0404042E60A121A06070A0A0901008E
:1029400040C040404CF2020C101E070A0A09010068
:102950006090201092660A121A06070A0A090100FE
:102960001000101020408082827C070E0E090100AA
:102970002010080010282828447C44828282070EF8
:102980000E0901000810200010282828447C4482E9
:102990008282070E0E090100102844001028282802
:1029A000447C44828282070D0D09010034580010D6
:1029B000282828447C44828282070D0D09010028C2
:1029C000280010282828447C44828282070E0E09A1
:1029D00001001028281010282828447C4482828274
:1029E000070A0A0901001E2828284E784888888E80
:1029F000070D0D0901FD3C42808080808080423CB3
:102A0000082418070E0E09010020100800FE80801F
:102A100080F880808080FE070E0E090100081020DB
:102A200000FE808080F880808080FE070E0E090105
:102A30000010284400FE808080F880808080FE079F
:102A40000D0D090100282800FE808080F88080801C
:102A500080FE050E0E09020040201000F820202004
:102A60002020202020F8050E0E0902001020400032
:102A7000F82020202020202020F8050E0E0902003A
:102A800020508800F82020202020202020F8050D4C
:102A90000D090200505000F8202020202020202086
:102AA000F8070A0A09010078444242F242424244CD
:102AB00078070D0D0901003458008282C2A2928A63
:102AC00086828282070E0E090100201008007C8297
:102AD000828282828282827C070E0E0901000810A7
:102AE00020007C82828282828282827C070E0E0992
:102AF0000100102844007C82828282828282827C51
:102B0000070D0D0901003458007C82828282828286
:102B100082827C070D0D0901002828007C828282B8
:102B200082828282827C0707070901018244281081
:102B3000284482070C0C0901FF027C868A8A929243
:102B4000A2A2C27C80070E0E09010020100800829C
:102B5000828282828282824438070E0E0901000836
:102B600010200082828282828282824438070E0E86
:102B7000090100102844008282828282828282447B
:102B800038070D0D09010028280082828282828286
:102B900082824438070E0E0901000810200082824C
:102BA0004428101010101010070A0A090100808034
:102BB000FC828282FC808080060A0A090100384477
:102BC0004448D04844444458070B0B0901002010E6
:102BD00008007C02027E82867A070B0B090100083E
:102BE0001020007C02027E82867A070B0B0901000E
:102BF000102844007C02027E82867A070A0A0901B4
:102C0000003458007C02027E82867A070A0A090193
:102C1000002828007C02027E82867A070C0C0901BB
:102C20000010282810007C02027E82867A0707079F
:102C30000901006C12127E90926C070A0A0901FDCC
:102C40007C82808080827C104830070B0B09010059
:102C5000201008007C8282FE80827C070B0B090119
:102C600000081020007C8282FE80827C070B0B090A
:102C70000100102844007C8282FE80827C070A0AC0
:102C80000901002828007C8282FE80827C050C0CD1
:102C90000902008040200000E02020202020F805CC
:102CA0000C0C0902001020400000E0202020202011
:102CB000F8050C0C0902002050880000E0202020BC
:102CC0002020F8050B0B09020050500000E02020E6
:102CD000202020F8070B0B090100483050083C4425
:102CE0008282824438070A0A090100345800BCC2B3
:102CF0008282828282070B0B090100201008007C6F
:102D000082828282827C070B0B090100081020005E
:102D10007C82828282827C070B0B0901001028448E
:102D2000007C82828282827C070A0A090100345870
:102D3000007C82828282827C070A0A09010028289C
:102D4000007C82828282827C070909090100103896
:102D50001000FE001038100709090901FF027C8AE3
:102D60008A92A2A27C80070B0B0901004020100070
:102D70008282828282867A070B0B0901000810206A
:102D8000008282828282867A070B0B09010010285A
:102D900044008282828282867A070A0A0901002818
:102DA00028008282828282867A070E0E0901FD0443
:102DB00008100042422424241818109060070B0BBE
:102DC0000901FE8080B8C4828282C4B88080070D69
:102DD0000D0901FD242400424224242418181090D7
:102DE0006000060900FE000000000001090008FE66
:102DF000000005080806000040F0C8888898781090
:102E0000050808060000C0F88888888888F8050545
:102E1000050600012030F8302005080806000020D3
:102E200070F820202020E00509090600FF2070A886
:102E3000A8B8888870200509090600FFE080C0B0A6
:102E4000A8283028280509090600FFF8A8888888DE
:102E50008888A8F8050A0A0600FE205050505088BD
:102E6000A8A8887003030306000340A040000609D9
:102E700000FE0701920321207FFF07FF07FF0000EC
:102E800000060000010707060200808080808000A5
:102E900080030202060105A0A005070706000050F6
:102EA00050F850F850500507070600002078A07031
:102EB00028F020050707060000C0C8102040981819
:102EC0000507070600006090A040A8906802030371
:102ED000060104C0408003070706010020408080EF
:102EE000804020030707060100804020202040800A
:102EF00005050506000120A870A8200505050600A7
:102F0000012020F820200203030602FFC0408005B4
:102F10000101060003F8020202060200C0C0050516
:102F20000506000108102040800507070600007014
:102F300088888888887003070706010040C04040E1
:102F40004040E0050707060000708808708080F8A0
:102F5000050707060000F81020100808F00507070D
:102F600006000010305090F810100507070600000A
:102F7000F880F00808887005070706000070808058
:102F8000F0888870050707060000F8081020202048
:102F9000200507070600007088887088887005077C
:102FA0000706000070888878080870020505060288
:102FB00000C0C000C0C00206060602FFC0C000C0BC
:102FC00040800407070600001020408040201005C4
:102FD0000303060002F800F804070706010080401A
:102FE0002010204080050707060000708808102088
:102FF000002005070706000070880868A8A870056B
:103000000707060000708888F88888880507070683
:103010000000F08888F08888F00507070600007037
:10302000888080808870050707060000F0888888FF
:103030008888F0050707060000F88080F08080F897
:10304000050707060000F88080F0808080050707EC
:10305000060000708880B8888870050707060000A1
:10306000888888F8888888010707060200808080A1
:10307000808080800507070600003810101010902F
:10308000600507070600008890A0C0A0908805078B
:1030900007060000808080808080F8050707060012
:1030A0000088D8A8888888880507070600008888CF
:1030B000C8A898888805070706000070888888884F
:1030C0008870050707060000F08888F0808080057A
:1030D000070706000070888888A89068050707061B
:1030E0000000F08888F0A0908805070706000078A7
:1030F0008080700808F0050707060000F8202020EF
:1031000020202005070706000088888888888870A6
:10311000050707060000888888888850200507076B
:103120000600008888888888A850050707060000E0
:1031300088885020508888050707060000888888FE
:1031400050202020050707060000F80810204080C6
:10315000F8030707060100E08080808080E0050515
:10316000050600018040201008030707060100E063
:103170002020202020E005030306000420508805BD
:103180000101060000F80202020602058040050562
:10319000050600007008788878050707060000809B
:1031A00080B0C88888F0050505060000708080881A
:1031B00070050707060000080868988888780505E4
:1031C000050600007088F8807005070706000030CB
:1031D00048E0404040400506060600FF70888878B9
:1031E00008700507070600008080B0C8888888013D
:1031F00007070602008000808080808003080806A0
:1032000001FF200020202020A04004070706000026
:10321000808090A0C0A090030707060100C0404036
:10322000404040E0050505060000D0A8A8A8A80574
:103230000505060000B0C888888805050506000059
:1032400070888888700506060600FFF08888F08080
:10325000800506060600FF788888780808050505B9
:10326000060000B0C880808005050506000070805B
:103270007008F00407070600004040E0404040307E
:10328000050505060000888888986805050506007C
:103290000088888850200505050600008888A8A8B1
:1032A00050050505060000885020508805060606D2
:1032B00000FF888888780870050505060000F8106A
:1032C0002040F803070706010020404080404020CE
:1032D0000107070602008080808080808003070746
:1032E00006010080404020404080050202060002A6
:1032F0006890000000060000486F6D65202573256A
:103300007325732066697273740020666972737422
:103310000A005A0059005800486F6D652000534458
:103320002063617264206F6B0A006F70656E526F6C
:103330006F74206661696C65640A00766F6C756DE8
:10334000652E696E6974206661696C65640A005354
:103350004420696E6974206661696C0A00656E714B
:1033600075657565696E672022000000C8C10000A0
:103370000000000000000000484200004842000039
:103380008040000000005761726E696E673A204805
:103390006F6D696E672042756D7020446976697340
:1033A0006F72203C20310A000202040000A040009D
:1033B00000A0400000A0400080A24300009643000F
:1033C00000AF43FFFFFF4D36303020486F74656E0D
:1033D0006420746F6F20636F6C6420746F20636867
:1033E000616E67652066696C616D656E740A005078
:1033F00072696E7420706175736564004D31323589
:1034000000004D3234005072696E742061626F7238
:10341000746564004D3231004E6F20534420636167
:103420007264004368616E67652053442063617273
:1034300064004D3231005072696E742066726F6D97
:103440002053440053746F70207072696E74004989
:103450006E69742E20534420636172640052657358
:10346000756D65207072696E7400506175736520AA
:103470007072696E7400436F6E74726F6C0050727C
:1034800065706172650054756E6500496E666F20E7
:1034900073637265656E004D3630302042300043F4
:1034A00068616E67652066696C616D656E74004663
:1034B0006C6F7700466C6F770046616E20737065A5
:1034C00065640046616E20737065656400426564E2
:1034D00000426564004E6F7A7A6C65004E6F7A7AAE
:1034E0006C65005370656564005370656564004DDC
:1034F00061696E00544845524D414C2052554E4131
:1035000057415900546865726D616C2052756E6147
:1035100077617900FFD0FFE0FFCFFF64FFD1FF327A
:10352000380C060201FF64FFD0FFFE56547261762C
:10353000206D696E005654726176206D696E00567A
:1035400054726176206D696E00566D696E00566D1D
:10355000696E00566D696E00566D617820450056A3
:103560006D6178204500566D6178204500566D618B
:1035700078205A00566D6178205A00566D61782087
:103580005A00566D6178205900566D6178205900B7
:10359000566D6178205900566D6178205800566D3F
:1035A0006178205800566D61782058004D6F74691D
:1035B0006F6E00416D6178204500416D6178204556
:1035C00000416D6178205A00416D6178205A0041B8
:1035D0006D6178205900416D6178205900416D611D
:1035E00078205800416D6178205800412D74726137
:1035F00076656C00412D74726176656C00412D72A8
:1036000065747261637400412D72657472616374D4
:1036100000416363656C00416363656C004D6F74CA
:10362000696F6E00526573656E643A20006F6B00BF
:10363000627573793A2070617573656420666F7284
:1036400020696E7075740A00627573793A20706132
:103650007573656420666F7220757365720A006207
:103660007573793A2070726F63657373696E670A58
:10367000004B494C4C45442E20004B494C4C206398
:10368000617573656420627920746F6F206D756356
:103690006820696E6163746976652074696D652060
:1036A0002D2063757272656E7420636F6D6D616E2F
:1036B000643A2000506C65617365207265736574AF
:1036C000005052494E5445522048414C5445440004
:1036D0005072696E7465722068616C7465642E2026
:1036E0006B696C6C28292063616C6C6564210A002D
:1036F00049D528D511241FBECFEFD0E4DEBFCDBF02
:1037000012E0A0E0B1E0EAE3F4EC01E00BBF02C09C
:1037100007900D92A038B107D9F723E1A0E8B2E0F5
:1037200001C01D92A13DB207E1F71BE1C9E7DBE152
:1037300004C02197FE010E947BE1C837D107C9F779
:103740000E9467CD0C9410E20C9400002F923F92DF
:103750004F925F926F927F928F929F92AF92BF92A1
:10376000CF92DF92EF92FF920F931F93CF93DF934D
:10377000CDB7DEB7C555D1090FB6F894DEBF0FBE81
:10378000CDBF81E090E090937C0D80937B0D809184
:10379000CA138D3409F4CDC3843511F40C9421304F
:1037A000873411F00C9463308091C8139091C91341
:1037B0008B31910509F469C264F497FF02C00C943F
:1037C0007D308230910554F1049709F417C20C94AE
:1037D0007D308A35910509F432C32CF44C9709F4F5
:1037E00084C20C947D308B35910509F42CC38C3543
:1037F000910511F00C947D300E942D58A3E92A2EDA
:10380000A1E03A2EBFE5CB2EBDE0DB2EE12CF12C62
:1038100000E010E028961FAE289756C380910F0154
:10382000882311F40C947D3013E9812E11E0912E40
:103830000BE6C02E0DE0D02E85E3E82E8DE0F82EAD
:1038400096E9A92E9CE0B92E00E010E0D4018D91FC
:103850004D010E943538882371F10E940238F80129
:10386000EA57FD4F2081211104C020918A022223B2
:1038700031F0F701208131814281538103C020E082
:1038800030E0A9010E942CDF0330110559F0D50169
:103890002D913D914D915C912B013C01C301B201F1
:1038A0000E942BDF462F572FBC01F6014083518326
:1038B000628373830AC0F70180819181A281B38101
:1038C000F60180839183A283B3830F5F1F4FF4E0DF
:1038D000CF0ED11C24E0E20EF11C34E0A30EB11C8B
:1038E0000430110509F0B2CF86E40E946F388823B6
:1038F000C9F00E94023820E030E0A9010E94AFE048
:10390000181684F40E94023820E030E040E752E4C8
:103910000E94AFDF60930001709301018093020168
:103920009093030180912C01882309F4B4C0C090C6
:103930007B0CD0907C0CE0907D0CF0907E0CA7016D
:10394000960160916B0D70916C0D80916D0D909151
:103950006E0D0E9411DB87FF08C0C0926B0DD092E4
:103960006C0DE0926D0DF0926E0DC0907F0CD090BA
:10397000800CE090810CF090820CA7019601609180
:103980006F0D7091700D8091710D9091720D0E946C
:1039900011DB87FF08C0C0926F0DD092700DE092CE
:1039A000710DF092720DC0902001D0902101E09035
:1039B0002201F0902301A701960160916B0D709197
:1039C0006C0D80916D0D90916E0D0E94AFE01816F8
:1039D00044F4C0926B0DD0926C0DE0926D0DF0929C
:1039E0006E0DC0902401D0902501E0902601F0904A
:1039F0002701A701960160916F0D7091700D809164
:103A0000710D9091720D0E94AFE0181644F4C092AF
:103A10006F0DD092700DE092710DF092720DC0900A
:103A2000830CD090840CE090850CF090860CA7015C
:103A300096016091730D7091740D8091750D909148
:103A4000760D0E9411DB87FF08C0C092730DD092E3
:103A5000740DE092750DF092760DC0902801D09013
:103A60002901E0902A01F0902B01A70196016091B5
:103A7000730D7091740D8091750D9091760D0E946B
:103A8000AFE0181644F4C092730DD092740DE0921A
:103A9000750DF092760D0E942B398091900D83FD6B
:103AA00086C0C090770DD090780DE090790DF090A1
:103AB0007A0D2091410D3091420D4091430D50916E
:103AC000440DC701B6010E9411DB882309F46FC0C1
:103AD0000E9437B2882301F1C092410DD092420D6D
:103AE000E092430DF092440DE9E7FBE184918F01F0
:103AF0000F5F1F4F882321F00E943639F801F6CF5F
:103B0000E6E5F1E084918F010F5F1F4F882321F0DC
:103B10000E943639F801F6CFC090770DD090780D1D
:103B2000E090790DF0907A0D2091410D3091420D89
:103B30004091430D5091440DC701B6010E942BDF07
:103B40009F77E091490C44E0E49FF0011124ED5C83
:103B5000FE4F20813181428153810E9477DB20E03A
:103B600030E048E453E40E94AFE0181604F5C09238
:103B7000410DD092420DE092430DF092440DE9E7E1
:103B8000FBE184918F010F5F1F4F882321F00E947A
:103B90003639F801F6CFE7E3F1E084918F010F5F4A
:103BA0001F4F882321F00E943639F801F6CF60912B
:103BB0003B0170913C01072E000C880B990B0E9471
:103BC00018DB2091000130910101409102015091D8
:103BD00003010E9477DB2AE037ED43E25CE30E94B9
:103BE00077DB0E945C3680E1EBE6FDE0A5E3BDE01B
:103BF00001900D928A95E1F70C947D3080E50E944A
:103C00006F38882329F00E94BE376B017C0103C006
:103C1000C12CD12C760183E50E946F38882361F096
:103C20000E94023820E030E04AE754E40E9477DB4B
:103C30000E9428E06B017C010E942D588091450173
:103C4000811105C060E081E791E00E9400A70E9419
:103C50002B398091981390919913A0919A13B09158
:103C60009B13C80ED91EEA1EFB1E0E94CDC0DC01AC
:103C7000CB018C199D09AE09BF09B7FD02C00C9498
:103C80007D3080E00E946BC8F0CF0E9412AC8111A1
:103C90000C947D3080E090E0A0E7B1EC89839A83BA
:103CA000AB83BC8380E090E0A1E9B3E48D839E8385
:103CB000AF83B88780E090E0A0EAB1E489879A8773
:103CC000AB87BC8780E50E946F38882319F00E947B
:103CD000CE3701C060E068A3BE016F5F7F4FCE01A9
:103CE00080960E9451620C947D300E942D588091E4
:103CF000000190910101A0910201B0910301809314
:103D0000820290938302A0938402B09385028091F3
:103D10003B0190913C01909381028093800284E664
:103D200090E090933C0180933B010E942B3981E00D
:103D30008093050E88E50E943538E82E89E50E94BB
:103D40003538082F8AE50E943538F82EE11005C075
:103D5000011105C011E0182705C0011102C010E0D3
:103D600001C0182F0E94EA38111104C0E11002C0EE
:103D70000023C1F180E090E0A0EAB0E48093730DED
:103D80009093740DA093750DB093760D9C01AD01C9
:103D900060913D0D70913E0D80913F0D9091400DD1
:103DA0000E9411DB87FF0BC019821A821B821C82C2
:103DB000BE016F5F7F4F83E79DE00E945436111173
:103DC00005C0E11003C0011107C00CC080E090E005
:103DD0000E943CB11123B9F381E090E00E943CB114
:103DE000111102C0FF2021F082E090E00E943CB15E
:103DF0000E9440378091040E8093050E80918202CC
:103E000090918302A0918402B09185028093000179
:103E100090930101A0930201B0930301809180026D
:103E20009091810290933C0180933B010E942B3939
:103E300083E0809331010E9494410C947D30109274
:103E40008A020C947D3081E080938A020C947D304C
:103E50000E9402384B015C010330110559F0F70153
:103E6000EA56F34F20813181428153810E942BDF3A
:103E70004B015C01F701EB5CF24F20813181428103
:103E80005381C501B4010E942BDF2B013C012DEBB6
:103E900037E346E855EB0E94AFE087FD1DC02DEBF0
:103EA00037E346E855E3C301B2010E9411DB18165F
:103EB0009CF00F5F1F4FB4E0CB0ED11CE4E0EE0E80
:103EC000F11C0430110559F1D1018D911D010E94A1
:103ED0006F38882371F3BCCF0330110569F48092E9
:103EE000410D9092420DA092430DB092440DB1E06D
:103EF0002896BFAF2897DDCFA3019201F60160811C
:103F00007181828193810E942CDFD6016D937D9314
:103F10008D939C931397C8010E948236CACF28962E
:103F2000FFAD2897F1110E94B0AC0E9494410C940F
:103F30007D308091C8139091C9138237910511F497
:103F40000C9456280CF0DBC08B34910509F470C535
:103F50000CF067C08831910509F4ADC2B4F5823127
:103F6000910511F40C948427BCF497FF02C00C94C3
:103F70007D30823091050CF4B4C1419711F00C945E
:103F80007D3060E08EEA91E00E9400A75E985E9826
:103F900015985E980C947D308531910509F470C2B6
:103FA0003CF4449711F00C947D30E6ECF1E025C22E
:103FB0008631910509F468C2479711F00C947D3061
:103FC000E091C613F091C71369C28C31910509F4D1
:103FD000DBC2A4F48A31910509F48CC20CF098C2BA
:103FE0001092340E0E94EEAC87ED91E09093160C87
:103FF0008093150C0E94E0360C947D308F31910532
:1040000009F430C42CF44E9709F4C8C20C947D30E6
:104010008032910509F4DAC38A9709F4C9C40C9473
:104020007D308836910509F40FC50CF040C082350B
:10403000910509F460C714F58D34910509F400C5A4
:104040000CF4FAC48135910511F00C947D300E9476
:10405000B9850E942D580E94F8C71092180D109231
:10406000170D68EE73E080E090E00E9423A660E008
:1040700088E193E00E9400A70C947D30843591057F
:1040800009F442C70CF43BC78535910509F473C7A1
:104090008C35910511F00C947D3023E9C22E21E07E
:1040A000D22E35E4E32E3DE0F32E10E07FC78D36AF
:1040B000910509F434C69CF48A36910509F469C661
:1040C0000CF4E9C58B36910509F488C68C36910548
:1040D00011F00C947D30109232010C947D308F36AB
:1040E000910509F41BC50CF406C58037910509F448
:1040F00086C58137910509F486C50C947D30833DD2
:10410000910511F40C94492B0CF06FC08139910585
:1041100011F40C94652944F58737910511F40C943A
:10412000F62884F48537910511F40C94AE2814F028
:104130000C94B7288337910511F00C947D30EFED86
:10414000F3E0BAC78937910511F40C94602914F48F
:104150000C945A298D37910509F452C68C38910573
:1041600009F47DC50C947D30893C910511F40C94C3
:10417000222A7CF48E3B910509F4EFC5883C910519
:1041800011F40C94DC298B39910511F00C947D30DD
:104190009FC58C3C910511F40C94582A84F48B3CF7
:1041A000910511F00C947D3071EEE72E72E1F72E3F
:1041B00003E911E0E4E0DE2ED00E0C94492A8D3C98
:1041C000910511F40C94C22A8E3C910511F00C94C7
:1041D0007D3053E9C52E51E0D52E66E3E62E63E02F
:1041E000F62E00E010E00C94372B803921E0920786
:1041F00011F40C94C42D84F58C3241E0940711F431
:104200000C94A62C8CF48D3D910511F40C94362C55
:10421000823E910511F40C947D2C8C3D910511F09A
:104220000C947D300C94292C8E32A1E09A0711F465
:104230000C946D2D14F40C94CF2C8F32E1E09E077A
:1042400011F40C94C12D8336914011F00C947D3003
:10425000EEE5FBE10C94F52F863F21E0920711F487
:104260000C94C92E14F58C3A41E0940711F40C9487
:10427000C72D4CF48A39914011F00C947D300E9486
:104280008B380C947D30843FB1E09B0711F40C9483
:10429000B02E853F914011F00C947D300E9427672D
:1042A00080E00E9493630C947D308835F2E09F0794
:1042B00011F40C94CC2E4CF4873F914011F00C94E7
:1042C0007D300E9464380C947D30803A43E094073E
:1042D00009F4BBC2873E934011F40C940C300C944B
:1042E0007D30A090C613B090C71380E50E946F3850
:1042F000882359F00E94BE376B017C0111E0672BC7
:10430000682B692B31F410E004C010E0C12CD12CD3
:10431000760183E50E946F388823F1F00E9402380D
:1043200020E030E04AE754E40E9477DB0E9428E076
:104330006B017C01111112C0672B682B692B71F482
:10434000A114B10459F0D5018C91882339F061E0B2
:10435000C5010E941FA707C0112391F360E08BE9FC
:1043600091E00E9400A783E090E090937C0D809301
:104370007B0D81E08093E90C0E942D580E942B391F
:10438000C114D104E104F104F1F0809198139091EB
:104390009913A0919A13B0919B13C80ED91EEA1ECF
:1043A000FB1E0E94CDC0DC01CB018C199D09AE091A
:1043B000BF09B7FF1EC08091E90C8823D1F080E0CF
:1043C0000E946BC8EECF8091E90C882321F080E039
:1043D0000E946BC8F8CF8091240E9091250E60E06A
:1043E000029719F489E891E002C08AE791E00E94FF
:1043F00000A71092E90C0C947D3084918F010F5F1F
:104400001F4F882321F00E943639F801F6CF109211
:10441000BA101092B91040E050E0BA0185E69EE073
:104420000E940E6B8BE1E5E6FEE0DE011596019041
:104430000D928A95E1F78091630E9091640E9C83B2
:104440008B8381EC91E09A83898340E050E0BE0148
:104450006F5F7F4F86E792E00E946672CE01019601
:104460000E94F0C7E7EBF1E084918F010F5F1F4FCF
:10447000882311F40C947D300E943639F801F4CF72
:104480000E94A5AA0C947D301092340E1092350E25
:104490000C947D30803209F4108231968081811134
:1044A000F9CF40E061E08091C6139091C7130E945C
:1044B000A7740C947D3019821A821B821C8218A268
:1044C00019A21AA21BA280917D0D882341F040E021
:1044D000BE016F5F7F4FCE0180960E9446B38091F0
:1044E000350E882319F081E08093340E0E94D2AB00
:1044F0000C947D308091350E882311F40C947D301E
:1045000083E50E946F3881110C9484300C947D30C7
:104510008091350E882351F1ECEDF1E084918F010B
:104520000F5F1F4F882321F00E943639F801F6CF24
:104530006091B0107091B1108091B2109091B31051
:104540004AE00E94DA3B8FE20E9436396091AC105B
:104550007091AD108091AE109091AF104AE00E9422
:10456000DA3B8AE00E9436390C947D30EEEEF1E0C1
:1045700084918F010F5F1F4F882311F40C947D30BD
:104580000E943639F801F4CF40E060E08091C61314
:104590009091C7130E94A7740C947D308091350EC2
:1045A000882311F40C947D308FEF9FE00E94CB6A3A
:1045B0008FEF9FE00E946B711092330E1092320EBB
:1045C000E090C613F090C7138091350E882311F444
:1045D0000C947D300E9434B91D8218861C821B8287
:1045E00081EC91E09A83898381E69EE09093810E2D
:1045F0008093800EF70180818F3209F068C06FE2EE
:1046000070E0C7010E94CDE18C010F5F1F4F9E013A
:104610002F5F3F4F49010115110509F45EC06FE29C
:1046200070E0C8010E94CDE16C01009709F456C00A
:104630000817190708F052C05C01A01AB10AA501B9
:10464000B801CE0180960E94F6E1E0E2F0E0EC0FC6
:10465000FD1FEA0DFB1D10828E01005E1F4FD80169
:104660008D918D01882319F00E943639F8CF8AE0A8
:104670000E9436396091800E7091810E611571052E
:1046800011F06C5F7F4F21E0AE01405E5F4FCE01C5
:1046900005960E947471811112C0BE01605E7F4F49
:1046A00085E292E00E9493928EE20E9436398AE07F
:1046B0000E943639C4010E94F0C70C947D3090925C
:1046C000810E8092800E86010F5F1F4FA4CF82E87B
:1046D0009EE09093810E8093800E87016091800E02
:1046E0007091810E6115710511F06C5F7F4F18A2FA
:1046F0001BA222E0A801CE0180960E947471811154
:1047000002C0F12C1EC0CE0180960E94A2B8882360
:10471000C1F36CA57DA58EA59FA541E00E941869F7
:10472000882379F3E8A9B0E2EB9FF0011124E65F5A
:10473000F54F309731F385EE80831BA20E94D86835
:10474000F82ECE0180960E947C38FF2009F1EFEF11
:10475000F1E084917F012FEFE21AF20A882321F021
:104760000E943639F701F5CFD8018D918D0188234C
:1047700019F00E943639F8CF8AE00E94363910923B
:10478000B0101092B1101092B2101092B31018C065
:10479000EDE0F2E084917F01BFEFEB1AFB0A882382
:1047A00021F00E943639F701F5CFF80181918F0190
:1047B000882319F00E943639F8CF8EE20E943639EC
:1047C000CE0101960E94F0C70C947D308091340E8A
:1047D00081110E942D588091350E882311F40C947C
:1047E0007D3080E50E946F38882319F00E94F237EF
:1047F00003C080E50E943538182F482F61E0809172
:10480000C6139091C7130E94A77483E50E946F3866
:10481000882381F00E94CE37AB01BC014093B010D9
:104820005093B1106093B2107093B3108FEF9FE06C
:104830000E940E6B8091350E882319F081E08093E1
:10484000340E11110C947D3051CE8091C61390918D
:10485000C71321E02093330E40E060E00E94A7746C
:104860000C947D300E9436BBFCE3CF2ED12CE12C82
:10487000F12CA70196010E94EFDE762E672ECA0169
:10488000B901A70196010E94EFDE6B017C01CA010C
:10489000B90128E130E040E050E00E94EFDE4B013A
:1048A0005C01C9016DE671E00E9434E18E010F5F89
:1048B0001F4F6115710599F06F927F92DF92CF9231
:1048C0009F928F929F938F937F936F9381E692E055
:1048D0009F938F931F930F930E94A8DA12C00097A3
:1048E000B1F06F927F92DF92CF929F928F929F93BF
:1048F0008F9381E592E09F938F931F930F930E9474
:10490000A8DA0FB6F894DEBF0FBECDBF36C0811453
:104910009104A104B10479F06F927F92DF92CF925B
:104920009F928F9285E492E09F938F931F930F93B2
:104930000E94A8DAE6CFC114D104E104F10469F0C1
:104940006F927F92DF92CF928DE392E09F938F934D
:104950001F930F930E94A8DAD4CF6F927F9289E3BE
:1049600092E09F938F931F930F930E94A8DA0F906A
:104970000F900F900F900F900F9060E0C8010E9471
:104980001FA7E9E7FBE184917F01BFEFEB1AFB0A68
:10499000882321F00E943639F701F5CFB80185E769
:1049A00092E00E9493928AE00E9436390C947D3006
:1049B00083E50E946F38882311F40C947D300E94A7
:1049C000DE37E82E80E50E946F38882311F40C94BE
:1049D0007D300E94CE37162FC62ED72ED7FE02C0AE
:1049E0000C947D30EEEBF5E088E28E0F9491191770
:1049F00029F031968E13FACF0C949530EEE5FBE159
:104A000084918F010F5F1F4F882321F00E94363958
:104A1000F801F6CFE2E8F2E084918F010F5F1F4FBB
:104A2000882311F40C947D300E943639F801F4CFBC
:104A30000E94D2AB0C947D300E94EEAC0C947D3081
:104A40000E943FB90C947D3088E690E00E94423C81
:104A500081110C947D308091900D83FF02C00C94E5
:104A60007D3083E50E946F38882309F440C00E949E
:104A700002380E9421E07093160D6093150D80E0BE
:104A80000E946E850E94023820E030E04AEA52E43B
:104A90000E9411DB18163CF00E943FB960E088E9E3
:104AA00092E00E9400A70E9402382091950D30915B
:104AB000960D4091970D5091980D0E94AFE01816F9
:104AC000B4F480EE91E09F938F938091480C90E036
:104AD00001969F938F9381E992E09F938F931F920A
:104AE0000E94B7AB0FB6F894DEBF0FBECDBF0E94D9
:104AF00066D20C947D308EE40E946F38882311F4C6
:104B00000C947D300E94CE3760935B0D70935C0DEA
:104B100080935D0D90935E0D0C947D3083E50E9433
:104B20003538882359F083E50E946F38882319F0BF
:104B30000E94DE3701C080E08093900DE9E7FBE141
:104B400084918F010F5F1F4F882321F00E94363917
:104B5000F801F6CFE8EBF2E084918F010F5F1F4F71
:104B6000882321F00E943639F801F6CF8091900D0C
:104B70008823A1F1EAEACE2EE2E0DE2EE12CF12C30
:104B800020E08091900D90E00E2C02C095958795C5
:104B90000A94E2F780FF17C0BB24B394B20E22231D
:104BA00019F08CE20E943639F60125913491F90111
:104BB000849189010F5F1F4F882321F00E943639AD
:104BC0009801F5CF2B2DFFEFEF1AFF0A32E0C30E4D
:104BD000D11C45E0E416F104A1F60CC0E4EBF2E0D0
:104BE00084918F010F5F1F4F882321F00E94363977
:104BF000F801F6CF8AE00E9436390C947D308FEBB5
:104C000092E00E9402C883E50E946F38882369F011
:104C10000E94DE378D3320F480938E010C947D301A
:104C20008CE380938E010C947D30E9E7FBE1849165
:104C30008F010F5F1F4F882321F00E943639F80142
:104C4000F6CF40918E0150E060E070E088EC92E099
:104C50000E944B5F8AE00E9436390C947D3080912F
:104C6000900D83FF02C00C947D3083E50E946F3865
:104C7000882311F40C947D300E9402380E9421E0B8
:104C80006437710514F063E770E070931A0D609358
:104C9000190D0C947D3089E690E00E94423C811110
:104CA00011C0EFECF2E084918F010F5F1F4F88235A
:104CB00021F00E943639F801F6CF0E9476838AE00F
:104CC0000E94363910927C0D10927B0D0C94F633B5
:104CD00083E50E946F38882311F40C947D300E9484
:104CE000DE37182F8D3308F01CE3109395130E94C4
:104CF000CDC06B017C01212F30E0A8EEB3E00E9413
:104D00001CDFC60ED71EE81EF91EC0929113D0926A
:104D10009213E0929313F09294130C947D308DE6ED
:104D200090E00E94423C81110C947D308091900D66
:104D300083FF02C00C947D3083E50E946F382E966D
:104D40008FAF2E9781110C94AB3082E50E946F38A3
:104D500081110C94AB300C947D308091900D83FFC9
:104D600002C00C947D3060E08BE093E00E9400A7CD
:104D700083E50E946F382E968FAF2E9781110C9489
:104D8000463282E50E946F3881110C9446320C94B1
:104D90007D3080E50E946F38811108C083E50E9454
:104DA0006F38811109C03FEF20E00AC00E94DE3752
:104DB00081110C947D30F2CF0E94CE37362F272FF1
:104DC000832F922F8F3F910519F010F08FEF90E015
:104DD0009093180D8093170D0C947D3080E50E9400
:104DE0006F38811106C01092180D1092170D0C9497
:104DF0007D300E94CE37672B11F00C947D30F3CFBD
:104E00008CE40E943538882319F00E94023804C0CF
:104E100060E070E080E090EC6BAF7CAF8DAF9EAF58
:104E200080E090E0A0E7B1EC89839A83AB83BC83F8
:104E300080E090E0A1E9B3E48D839E83AF83B887DF
:104E400080E090E0A0EAB1E489879A87AB87BC87CD
:104E500088E50E946F38882379F088E50E946F38D2
:104E6000882319F00E94023803C060E070E0CB0193
:104E700069837A838B839C8389E50E946F388823BA
:104E800079F089E50E946F38882319F00E94023872
:104E900003C060E070E0CB016D837E838F839887D1
:104EA0008AE50E946F38882379F08AE50E946F387E
:104EB000882319F00E94023803C060E070E0CB0143
:104EC00069877A878B879C8718A219A21AA21BA2CE
:104ED00080917D0D81110C947D3000E020E0AE01C9
:104EE000405E5F4FBE016F5F7F4FCE01CB960E9449
:104EF00057B20C947D30109289020C947D3081E081
:104F0000809389020C947D3083E50E946F3888235A
:104F1000A1F00E94023820E030E04AE754E40E9409
:104F200077DB0E9428E060938F017093900180935B
:104F30009101909392010C947D3088E50E94353860
:104F400081110C94B13389E50E94353881110C949C
:104F5000B1338AE50E94353881110C94B13385E470
:104F60000E94353881110C94B1330E942D580E9453
:104F7000F8C70C947D3083E50E943538882311F4FE
:104F80000C947D300E94023820E030E04AE754E47F
:104F90000E9477DB0E9428E060939C1370939D131E
:104FA00080939E1390939F130C947D30D6018D9126
:104FB0006D010E943538882309F46DC0133009F063
:104FC00063C00E9402384B015C0120E030E040EAFF
:104FD00051E40E9411DB87FF4EC0A501940160914E
:104FE000510D7091520D8091530D9091540D0E946E
:104FF000AFDF2B013C019B01AC0160911E0370915E
:105000001F0380912003909121030E9477DB60931E
:105010001E0370931F038093200390932103A30129
:1050200092016091ED127091EE128091EF129091C9
:10503000F0120E9477DB6093ED127093EE12809372
:10504000EF129093F01260916E0C70916F0C809142
:10505000700C9091710C0E9416DBA30192010E94CA
:1050600077DB0E9428E060936E0C70936F0C809346
:10507000700C9093710C8092510D9092520DA092F1
:10508000530DB092540D07C00E940238F70160839F
:105090007183828393831F5FF4E0EF0EF11C143061
:1050A00009F084CF0E94E7930C947D300E942D5824
:1050B0000E9494410C947D3084918F010F5F1F4FAB
:1050C000882321F00E943639F801F6CF60E08FEC9A
:1050D00093E00E94DB4060E088EC93E00E94DB40BC
:1050E00061E08DEB93E00E94DB4061E08DEA93E0AC
:1050F0000E94DB4060E084EA93E00E94DB4061E0D4
:105100008AE993E00E94DB4060E080E993E00E943E
:10511000DB4060E088E893E00E94DB4060E08AE7E3
:1051200093E00E94DB4060E08CE693E00E94DB406D
:1051300060E08DE593E00E94DB4060E08FE493E067
:105140000E94DB4060E089E393E00E94DB4060E086
:1051500088E293E00E94DB400C947D3060E0809117
:10516000C6139091C7130E941FA70C947D3085E44D
:105170000E946F38882319F00E94F23703C085E43B
:105180000E943538882361F0E9E7FBE184918F01C3
:105190000F5F1F4F882321F00E943639F801F6CFA8
:1051A00081E40E946F38882319F00E94F23703C00F
:1051B00081E40E943538882361F0ECEAF4E08491C0
:1051C0008F010F5F1F4F882321F00E943639F801AD
:1051D000F6CF0091C6131091C713D8018D918D01A0
:1051E000882309F407CD0E943639F7CFE8ECF4E0C4
:1051F00084918F010F5F1F4F882321F00E94363961
:10520000F801F6CFE0ECF4E084918F010F5F1F4FBF
:10521000882321F00E943639F801F6CF329B03C073
:105220000DEC11E002C002ED11E0F80181918F0157
:10523000882319F00E943639F8CF8AE00E94363967
:10524000E8EBF4E084918F010F5F1F4F882321F07A
:105250000E943639F801F6CF339B03C00DEC11E004
:1052600002C002ED11E0D8018D918D01882319F063
:105270000E943639F8CF8AE00E943639E0EBF4E03C
:1052800084918F010F5F1F4F882321F00E943639D0
:10529000F801F6CF349B03C00DEC11E002C002ED23
:1052A00011E0F80181918F01882309F4A3CC0E94B9
:1052B0003639F7CF81E08093050E8093040E1DC729
:1052C0001092050E1092040E18C783E50E946F38E5
:1052D000882319F00E94CE3702C060E070E08B0195
:1052E000112702301105CCF0EEE5FBE184918F012E
:1052F0000F5F1F4F882321F00E943639F801F6CF47
:10530000E2EEF4E084918F010F5F1F4F882309F4D0
:10531000F4C60E943639F801F5CF88E40E946F3850
:105320008823A9F00E94CE376A3A71053CF06530B7
:10533000F1E07F072CF064E071E002C06AEA70E0FF
:10534000F801EE0FFF1FE65DF34F7183608386E483
:105350000E946F388823A9F00E94CE37F801EE0F23
:10536000FF1FE25DF34F718360836F3F710519F09A
:1053700014F06FEF70E077FF02C060E070E07183BF
:10538000608382E40E946F38882309F4B6C60E94C5
:10539000CE376530710534F0653671052CF064E662
:1053A00070E002C065E070E0000F111FF801EA5DD7
:1053B000F34F71836083A1C688EC90E00E94423C69
:1053C00081119BC684E40E9435388823C1F10E9474
:1053D000023811E020E030E0A9010E9411DB8111C8
:1053E00001C010E010932603112349F10E940238F6
:1053F000E091480C24E0E29FF0011124EE5DFC4FA7
:10540000608371838283938320E030E0A9016091FF
:1054100022037091230380912403909125030E941D
:1054200011DB81110CC080E090E0A0EEBFE380931F
:10543000220390932303A0932403B09325030E9497
:10544000A25F5BC6F1EFEF2EF2E1FF2E03E911E060
:10545000A4E0DA2ED00ED8018D918D010E9435384E
:10546000882349F00E9402380E9428E0F7016083F7
:10547000718382839383F4E0EF0EF11CD012EBCFA3
:105480000E94BA923AC6F4E0EF0EF11CD01609F46D
:1054900034C6D8018D918D010E943538882399F347
:1054A0000E940238F7016083718382839383EBCF7C
:1054B00083E50E9435388823D9F00E940238AB0179
:1054C000BC014093091350930A1360930B1370931C
:1054D0000C134093011350930213609303137093C2
:1054E00004138EE595E00E94855F8AE00E943639BC
:1054F00080E50E943538882399F00E940238AB017C
:10550000BC014093091350930A1360930B137093DB
:105510000C1381E495E00E94855F8AE00E94363991
:1055200082E50E943538882399F00E940238AB0149
:10553000BC014093051350930613609307137093B7
:10554000081382E295E00E94855F8AE00E94363966
:1055500084E50E943538882309F4CFC50E940238BB
:10556000AB01BC01409301135093021360930313EA
:105570007093041384E095E00E94855F8AE00E94A6
:105580003639BBC583E50E943538882351F00E9427
:1055900002386093DD127093DE128093DF129093D5
:1055A000E01284E50E943538882351F00E940238C9
:1055B0006093D9127093DA128093DB129093DC120D
:1055C00082E40E943538882351F00E94BE376093F0
:1055D0005E0C70935F0C8093600C9093610C88E577
:1055E0000E943538882351F00E94023860931203DC
:1055F00070931303809314039093150389E50E941D
:105600003538882351F00E94023860931603709356
:10561000170380931803909319038AE50E94353885
:10562000882351F00E94023860931A0370931B0381
:1056300080931C0390931D0385E40E9435388823D2
:1056400009F45BC50E94023860931E0370931F0328
:10565000809320039093210350C50F5F1F4FF4E008
:10566000EF0EF11C0330110511F40C94951FD601B7
:105670008D916D010E943538882379F30E9402389C
:10568000F7016083718382839383C8010E9482360D
:10569000E4CFE9E7FBE184918F010F5F1F4F88237F
:1056A00021F00E943639F801F6CF83E50E943538A3
:1056B000882321F00E94F23780932C01EEEAF5E076
:1056C00084918F010F5F1F4F882321F00E9436398C
:1056D000F801F6CF80912C01811103C0EAEAF5E0D0
:1056E00002C0E6EAF5E084918F010F5F1F4F882327
:1056F00021F00E943639F801F6CFEEE9F5E0849109
:105700008F010F5F1F4F882321F00E943639F80167
:10571000F6CF2091960C3091970C4091980C5091B7
:10572000990C60917B0C70917C0C80917D0C909118
:105730007E0C0E942CDFAB01BC018CE995E00E943D
:10574000855F20919A0C30919B0C40919C0C50915C
:105750009D0C60917F0C7091800C8091810C9091D8
:10576000820C0E942CDFAB01BC0189E995E00E940C
:10577000855F20919E0C30919F0C4091A00C509120
:10578000A10C6091830C7091840C8091850C909198
:10579000860C0E942CDFAB01BC0186E995E00E94DB
:1057A000855FEEE8F5E084918F010F5F1F4F88233E
:1057B00021F00E943639F801F6CF2091960C3091F5
:1057C000970C4091980C5091990C60912001709128
:1057D000210180912201909123010E942CDFAB01D5
:1057E000BC018CE895E00E94855F20919A0C309175
:1057F0009B0C40919C0C50919D0C609124017091E8
:10580000250180912601909127010E942CDFAB0198
:10581000BC0189E895E00E94855F20919E0C309143
:105820009F0C4091A00C5091A10C609128017091A7
:10583000290180912A0190912B010E942CDFAB015C
:10584000BC0186E895E00E94855F8AE00E943639B7
:1058500054C483E50E946F38882309F44EC40E9423
:10586000CE3770933C0160933B0147C48DED90E0CF
:105870000E94423C811141C483E50E946F38882315
:1058800009F43BC40091480C10E00E94CE37000F91
:10589000111FF801E75CFE4F718360838091480C13
:1058A00090E08C01000F111F000F111F98012D5C5B
:1058B0003E4F7901880F991FFC01E75CFE4F608124
:1058C0007181072E000C880B990B0E9418DB2AE0CF
:1058D00037ED43E25CE30E9477DBF801EF56F24FCD
:1058E00020813181428153810E9477DBD7016D9302
:1058F0007D938D939C93139700C480E50E94353867
:10590000882309F4FAC30E94CE376B017C0183E53A
:105910000E946F38882321F00E94CE378B0102C08D
:105920000FEF1FEFC8010196039708F0E6C3D7FCFD
:10593000E4C39C2DEEEBF5E088E28E0F24919217E4
:1059400009F4DBC331968E13F9CF27C783E50E9494
:105950006F38882319F00E94CE3702C064E071E0EE
:1059600079A368A380E50E946F38882339F00E94EC
:10597000CE376938B3E17B0730F402C068EE73E0DC
:105980007A83698304C088E893E19A838983BE019E
:10599000605E7F4FCE0101960E9483ABAEC385E46B
:1059A0000E946F38811110C080E50E94353888232D
:1059B00091F00E9402386093190C70931A0C809336
:1059C0001B0C90931C0C07C00E94DE37882361F3E8
:1059D000EEE5FBE171C089E40E943538882381F04F
:1059E0000E9402382CEA35EC47E25EE30E9477DB46
:1059F0006093210C7093220C8093230C9093240CC1
:105A000084E40E943538882381F00E9402382CEA11
:105A100035EC47E25EE30E94AFDF60931D0C7093AC
:105A20001E0C80931F0C9093200CE9E7FBE18491FE
:105A30008F010F5F1F4F882321F00E943639F80134
:105A4000F6CF4091190C50911A0C60911B0C70917B
:105A50001C0C8EEE95E00E94855F2CEA35EC47E247
:105A60005EE36091210C7091220C8091230C909147
:105A7000240C0E94AFDFAB01BC018AEE95E00E94CE
:105A8000685F2CEA35EC47E25EE360911D0C709193
:105A90001E0C80911F0C9091200C0E9477DBAB01B3
:105AA000BC0186EE95E00E94685F8AE00E9436396C
:105AB00024C30E943639F80184918F010F5F1F4F74
:105AC0008111F7CF0BEE11E0F80181918F0188234E
:105AD00009F490C80E943639F7CF83E50E94353823
