:100000000C94B3150C94DD150C94DD150C94DD15D2
:100010000C94B57C0C94B57C0C94B57C0C94B57C9C
:100020000C94DD150C94DD150C94DD150C94DD1588
:100030000C94DD150C94F7A70C94DD150C94DD15CC
:100040000C94DD150C9463370C9461C10C94DD1590
:100050000C94CC330C94C2330C94DD150C94DD1548
:100060000C94DD150C94DD150C94DD150C94DD1548
:100070000C94DD150C94DD150C94DD150C94DD1538
:100080000C94DD150C94DD150C94DD15EF32F43273
:10009000F9320333313331330D3315331D33273305
:1000A0003340364029402D404D404D403A403E407F
:1000B00044404840B8B877B7A7B7F4B8A7B7A7B7D0
:1000C000A7B7A7B7A7B7A7B7A7B7A7B7A7B7A7B740
:1000D000A7B7A7B7A7B7A7B7A7B7A7B7A7B7A7B730
:1000E000A7B7A7B7A7B7A7B7A7B7A7B7A7B7A7B720
:1000F000EEB8A7B7A7B7A7B7A7B7A7B7A7B7A7B7C8
:10010000A7B7C7B8A7B7A7B7A7B7A7B7A7B7A7B7DE
:10011000A7B7A7B7A7B7A7B70BB9A4B74E414E4922
:100120004E495459494E46CDCCCC3D0AD7233C17B5
:10013000B7D13877CC2B329595E6241FB14F0A0002
:100140000020410000C84200401C4620BCBE4CCAF2
:100150001B0E5AAEC59D7400407A10F35A00A0726F
:100160004E18090010A5D4E80000E87648170000F2
:10017000E40B54020000CA9A3B000000E1F50500C0
:100180000080969800000040420F000000A0860109
:10019000000000102700000000E8030000000064D9
:1001A00000000000000A0000000000010000000044
:1001B000002C76D888DC674F0823DFC1DFAE59E119
:1001C000B1B796E5E3E453C63AE651997696E8E688
:1001D000C28426EB898C9B62ED407C6FFCEFBC9C5B
:1001E0009F40F2BAA56FA5F490055A2AF75C936B6D
:1001F0006CF9676DC11BFCE0E40D47FEF520E6B528
:1002000000D0ED902E0300943577050080841E0801
:100210000000204E0A000000C80C333333330F981F
:100220006E12831141EF8D2114893BE65516CFFEE6
:10023000E6DB18D1844B381BF77C1D901DA4BBE472
:1002400024203284725E228100C9F124ECA1E53DB4
:1002500027434F4D4D554E49434154494F4E00445D
:10026000525952554E004552524F525300494E4634
:100270004F004543484F0057617274656E2E2E2E15
:10028000004B6C69636B207A756D20466F727473D6
:1002900065747A656E004D6F746F72656E20616E65
:1002A0006765736368616C74657400456E6420668D
:1002B000696C65206C6973740A00426567696E2019
:1002C00066696C65206C6973740A004E6F206D65F9
:1002D0006469610A00286E6F2066696C65290043B5
:1002E000757272656E742066696C653A20005344BD
:1002F000207072696E74696E67206279746520007F
:100300004E6F74205344207072696E74696E670A70
:100310000044656C6574696F6E206661696C656424
:100320002C2046696C653A200046696C652064653E
:100330006C657465643A0025697920256964202517
:1003400069682025696D20256973005072696E7493
:100350002074696D653A200020573A0045202553E6
:10036000006F66660044454255473A004D313132D0
:100370002053687574646F776E0042657474206BE7
:10038000C3BC686C742E2E2E0042657474206865A0
:10039000697A742E2E2E00416E6574204138204FEC
:1003A00046462E004348414D4245525F54454D500C
:1003B00045524154555245004241425953544550CB
:1003C00050494E470041524353004D4F54494F4E00
:1003D0005F4D4F44455300544845524D414C5F508A
:1003E000524F54454354494F4E004C4F4E475F4681
:1003F000494C454E414D45004155544F5245504F93
:1004000052545F53445F5354415455530053444333
:100410004152440050524F4D50545F535550504F2D
:10042000525400454D455247454E43595F50415245
:1004300053455200434153455F4C494748545F423E
:1004400052494748544E45535300544F47474C4533
:100450005F4C494748545300534F46545741524507
:100460005F504F574552004255494C445F504552EA
:1004700043454E54004C4556454C494E475F444118
:100480005441005A5F50524F42450052554E4F550D
:1004900054004155544F4C4556454C005052494E1E
:1004A000545F4A4F420050524F4752455353004108
:1004B00055544F5245504F52545F54454D5000567D
:1004C0004F4C554D455452494300454550524F4DB0
:1004D0000042494E4152595F46494C455F54524192
:1004E0004E534645520053455249414C5F584F4E7A
:1004F0005F584F4646004649524D574152455F4E60
:10050000414D453A4D61726C696E20322E302E3766
:100510002E322028446563203132203230323020A0
:1005200031383A32303A30382920534F555243450A
:100530005F434F44455F55524C3A68747470733A48
:100540002F2F6769746875622E636F6D2F4D61720E
:100550006C696E4669726D776172652F4D61726C60
:10056000696E2050524F544F434F4C5F5645525383
:10057000494F4E3A312E30204D414348494E455F58
:10058000545950453A416E657420413820455854BD
:1005900052554445525F434F554E543A31205555BC
:1005A00049443A63656465326132662D34316132A3
:1005B0002D343734382D396231322D633535633679
:1005C000326633363766660A002F2F20004D3134ED
:1005D0003520533C696E6465783E206F7574206FDA
:1005E000662072616E67652028302D31290A00412E
:1005F0006363656C65726174696F6E3A2050003F89
:100600004A206F7574206F662072616E67652028BE
:10061000302E303120746F20302E33290A002020F4
:100620004D61783A200020204D696E3A2000536FCA
:10063000667420656E6473746F70733A200046525E
:100640003A0020466C6F773A200020643A00206917
:100650003A0020703A00496E76616C6964206578D2
:100660007472756465720A006469730043290A0034
:1006700061626C656420286D696E2074656D702000
:1006800000436F6C642065787472756465732061D3
:1006900072652000566F7268657220257325732578
:1006A0007320686F6D656E00486F6D657665727357
:1006B00061747A20616B746976004572723A2054D5
:1006C0006F6F206661722100546F6F206661722027
:1006D00066726F6D207265666572656E6365207007
:1006E0006F696E740A00454550524F4D204F4B0ABA
:1006F00000446F6E65207072696E74696E67206663
:10070000696C650A004D3737004D33310072026D58
:100710000266025F0251024572726F72207772693F
:1007200074696E6720746F20454550524F4D210A01
:10073000002121204B494C4C206361757365642076
:10074000627920746F6F206D75636820696E6163D4
:10075000746976652074696D65202D2063757272E9
:10076000656E7420636F6D6D616E643A20004D3468
:100770003130004D313132004D31303800414E477B
:100780004548414C54454E005072696E7465722064
:1007900073746F707065642064756520746F206574
:1007A00072726F72732E20466978207468652065B6
:1007B00072726F7220616E6420757365204D3939D5
:1007C0003920746F20726573746172742E202854FE
:1007D000656D7065726174757265206973207265EC
:1007E0007365742E20536574206974206166746586
:1007F000722072657374617274696E67290A004EA3
:100800006F20436865636B73756D2077697468202A
:100810006C696E65206E756D6265722C204C61731B
:1008200074204C696E653A2000636865636B73756C
:100830006D206D69736D617463682C204C617374F5
:10084000204C696E653A20004C696E65204E756DCE
:10085000626572206973206E6F74204C617374201E
:100860004C696E65204E756D6265722B312C204C83
:10087000617374204C696E653A20004D313130004F
:1008800053442072656164206572726F720A004D74
:10089000656469756D2065726B616E6E7400426986
:1008A000747465206E65757374617274656E00444E
:1008B0005255434B455220474553544F50505400D6
:1008C00025533A202553004142474542524F434861
:1008D000454E005072696E7465722068616C746573
:1008E000642E206B696C6C28292063616C6C6564D4
:1008F000210A006563686F3A004572726F723A00B0
:10090000204D393220580020496E76616C69642090
:10091000657874727564657220001000C902100158
:100920002C014001220170011801B0010E01F001FB
:1009300004015002FA00B002F0003003E600D003D8
:10094000DC009004D2007005C800A006BE000008BC
:10095000B400B009AA00D00BA000600E9600601190
:100960008C000015820020197800C01D6E00A022A6
:100970006400B0275A00902C500000314600E0344B
:100980003C0010383200903A2800603C1E00A03D28
:100990001400803E0A00203F00002020506C616E51
:1009A0006E657242756666657242797465733A2047
:1009B000002046726565204D656D6F72793A2000A2
:1009C000436F6D70696C65643A2044656320313211
:1009D00020323032300A00204C617374205570642C
:1009E000617465643A20323032302D31302D31352A
:1009F000207C20417574686F723A2028474D5A292F
:100A00000A00322E302E372E320A004D61726C6988
:100A10006E0020536F66747761726520526573654E
:100A2000740A00205761746368646F6720526573AD
:100A300065740A002042726F776E206F75742052C1
:100A4000657365740A002045787465726E616C2068
:100A500052657365740A00506F77657255700A00AD
:100A60006175746F25632E67004732385859004D01
:100A700031303031006572726F722077726974693B
:100A80006E6720746F2066696C650A00446F6E653E
:100A900020736176696E672066696C652E0A004D69
:100AA000323900456E6473746F70700025532025D1
:100AB0006320256320256320256300656E647374BD
:100AC0006F7073206869743A20004845495A454E52
:100AD000204552464F4C474C4F530048656174695E
:100AE0006E67206661696C656400202D20496E7612
:100AF000616C6964206578747275646572206E75C6
:100B00006D62657220210A00200820C39C42455274
:100B100053434852495454454E004D415854454D55
:100B200050207472696767657265640020082055FB
:100B30004E54455253434852495454454E004D4932
:100B40004E54454D50207472696767657265640044
:100B5000202F002042403A0020403A004472756342
:100B60006B20766F6D204D656469756D00447275FC
:100B7000636B2070617573696572742E2E2E002070
:100B80002573206D6D0020302C312020206D6D00EC
:100B900020312C302020206D6D0031302C30202071
:100BA000206D6D0041636873656E206265776567CF
:100BB000656E004265776567652045787472756477
:100BC000657200426577656765205A004265776502
:100BD0006765205900426577656765205800220ADD
:100BE00000556E6B6E6F776E20636F6D6D616E6416
:100BF0003A202200416E657420413820626572659A
:100C0000697400447275636B742E2E2E0020453A71
:100C100000205A3A0020593A000000000102000961
:100C20000A000000000403080700000000000000A4
:100C300000000000000000000020746F6F206C6F47
:100C40006E6720657874727573696F6E2070726557
:100C500076656E7465640A0020636F6C6420657845
:100C600074727573696F6E2070726576656E7465E7
:100C7000640A00DB0FC93F45BCDA3F8FB30240FC7A
:100C8000F0274056946140FE4B9B4084A5D840E03D
:100C9000231841346A5641E859974164DBD5416EC7
:100CA000271742B4B75542CE1A9742C8AED542B5BF
:100CB000885A43D40684BFA65FA7BF7443E0BF1021
:100CC000B11AC01C2C58C0E8F697C0B849D6C04E1F
:100CD0004E17C124D355C1802497C1A0B5D5C112E8
:100CE0001A17C244AE55C2781797C26CACD5C2670A
:100CF000885AC32062797465733B20637263200055
:100D00004E6F20454550524F4D2E0A00205200454F
:100D10004550524F4D206461746173697A65206556
:100D200072726F722E0A002073746F726564207382
:100D3000657474696E67732072657472696576652F
:100D400064202800202863616C63756C617465649D
:100D500029210A0020213D2000454550524F4D20B9
:100D6000435243206D69736D61746368202D2028A0
:100D700073746F726564292000496E6465783A2047
:100D80000044494749504F5453204C6F6164656497
:100D90000A0044494749504F5453204C6F616469DD
:100DA0006E670A00204D61726C696E3D56383229BB
:100DB0000A00454550524F4D2076657273696F6E3B
:100DC000206D69736D617463682028454550524FEA
:100DD0004D3D0048617264636F64656420446566DC
:100DE00061756C742053657474696E6773204C6F01
:100DF000616465640A003B200020204D33303420BC
:100E0000500020490020204D3330312050005049FF
:100E1000442073657474696E67733A00204600203D
:100E2000480020204D3134352053004D61746572E7
:100E300069616C2068656174757020706172616DA4
:100E400065746572733A0020204D323036205800A8
:100E5000486F6D65206F66667365743A00204A00BE
:100E600020204D323035204200416476616E63654A
:100E7000643A20423C6D696E5F7365676D656E74A0
:100E80005F74696D655F75733E20533C6D696E5F7D
:100E900066656564726174653E20543C6D696E5F81
:100EA00074726176656C5F66656564726174653ED7
:100EB000204A3C6A756E635F6465763E002054008C
:100EC00020204D323034205000416363656C6572E0
:100ED0006174696F6E2028756E6974732F7332297F
:100EE0003A20503C7072696E745F616363656C3E5A
:100EF00020523C726574726163745F616363656CF8
:100F00003E20543C74726176656C5F616363656C0E
:100F10003E0020204D3230312058004D6178696DFF
:100F2000756D20416363656C65726174696F6E20D5
:100F300028756E6974732F7332293A0020204D3260
:100F400030332058004D6178696D756D2066656598
:100F50006472617465732028756E6974732F7329C8
:100F60003A0053746570732070657220756E6974F1
:100F70003A0020440020204D3230302053002044DD
:100F8000697361626C65640A0046696C616D656EC7
:100F9000742073657474696E67733A0020204D3154
:100FA00034392043203B20556E69747320696E20CC
:100FB00043656C736975730A0020286D6D290020E4
:100FC00020473231202020203B20556E6974732049
:100FD000696E206D6D000000C8430000C84300002A
:100FE0000041000048420000C8420000C842000022
:100FF000C8430000C842D0070000D00700006400CA
:101000000000102700004D38340054656D70657283
:10101000617475720041425300504C41004CC3BC96
:10102000667465720044C3BC736500486175707472
:101030006D656EC3BC004D6F746F72656E20646524
:10104000616B746976696572656E004175746F20B5
:10105000486F6D6500473238002420457874722E41
:1010600020566F7277C3A4726D656E0024204265AE
:10107000747420566F7277C3A4726D656E004162FE
:101080006BC3BC686C656E002420566F7277C3A476
:10109000726D656E004261627973746570205A00EA
:1010A000466C757373726174650047657363687726
:1010B0002E00191015107C3C3E5E2B3D3F2F5B5DD2
:1010C0003B2C2A225C004572772E2045696E737492
:1010D000656C6C756E67656E004B6F6E66696775E3
:1010E000726174696F6E004B6F6E6669672E206C5B
:1010F0006164656E005374616E64617264776572D9
:101100007465206C6164656E004B6F6E6669672E56
:101110002073706569636865726E00242045696E8E
:101120007374656C6C756E67656E0053746F7000D8
:101130004D3231004D656469756D20667265696771
:101140006562656E004D32320053442D4472756302
:101150006B20666F72747365747A656E004D65649A
:1011600069756D20696E697469616C2E004A7573CA
:1011700074696572756E670053442D447275636BB4
:101180002061626272656368656E0053442D44722B
:1011900075636B2070617573696572656E00496E69
:1011A000666F00000004C2000020C10000000000C3
:1011B000005C4300005C430000704345696E73743B
:1011C000656C6C2E206765737065692E00536574BD
:1011D00074696E67732053746F7265642028003FD2
:1011E000005765726B7365696E7374656C6C756EB0
:1011F00067656E00447275636B2061626765627239
:101200006F6368656E004D32350050617573652EF1
:101210002E2E00454550524F4D2056657273696F12
:101220006E204665686C657200454550524F4D20F2
:10123000496E646578204665686C65720045455066
:10124000524F4D20435243204665686C65720049F9
:10125000676E6F72696572656E005265736574655D
:101260006E006F70656E00545249474745524544C1
:10127000007A5F6D696E00795F6D696E00785F6DF1
:10128000696E005265706F7274696E6720656E6476
:1012900073746F70207374617475730A00486F6D96
:1012A000696E672067657363686569746572740049
:1012B0005761726E696E673A20486F6D696E67207C
:1012C00042756D702044697669736F72203C2031DD
:1012D0000A000000C8420000C8420000804002022C
:1012E000040000A0400000A0400000004000007D7D
:1012F000430000664300007043FFFFFF0000220030
:10130000250028002B0000002100240027002A00CF
:10131000020202020202020204040404040404049D
:10132000030303030303030301010101010101019D
:1013300001020408102040800102040810204080AF
:10134000010204081020408080402010080402019F
:101350002008204E494348542045525245494348AD
:101360005400546865726D616C2052756E617761CE
:1013700079002053697A653A200043616E6E6F747C
:10138000206F70656E20737562646972200053442B
:101390002063617264206F6B0A006F70656E526F1C
:1013A0006F74206661696C65640A00766F6C756D98
:1013B000652E696E6974206661696C65640A004E09
:1013C0006F20534420636172640A004D3234004D33
:1013D0003233202573006F70656E206661696C651D
:1013E000642C2046696C653A200046696C65207360
:1013F000656C65637465640A0046696C65206F708E
:10140000656E65643A2000454E4420535542524F64
:101410005554494E450A002220706F7300222070F7
:101420006172656E743A2200535542524F555449C9
:101430004E452043414C4C207461726765743A22DA
:101440000053756263616C6C20C3BC626572736328
:101450006872697474656E00457863656564656477
:10146000206D617820535542524F5554494E4520C6
:1014700064657074683A310A0057726974696E67FE
:1014800020746F2066696C653A2000667265736827
:1014900000646F696E67004E6F772000476568C310
:1014A000A47573650046696C616D656E74647572D0
:1014B00063686D65737365720061757300616E00BA
:1014C0004520696E206D6DC2B30056206D696E2097
:1014D0004C65657266616872740056206D696E2095
:1014E0000056206D617820450056206D6178205AA5
:1014F0000056206D617820590056206D6178205883
:10150000001FE0201020102010102010202010209C
:101510001030300840048003001FE03FF03FF03FF0
:10152000F01FE01FE03FF03FF03FF00FC0078003E7
:10153000003FFFF038007030FC3020FC10207810A5
:101540002030102C00D02E31D02F7BD02F7BD02EEE
:1015500031D02C00D020301020781020FC1030FC2E
:10156000303800703FFFF03FFFF0380070318630B8
:101570002387102787902F87D02F03D0203010206B
:1015800078102078102030102F03D02F87D0278795
:10159000902387103186303800703FFFF01FFFF82E
:1015A0001FFFF80410400208200208200410400821
:1015B00020801041001041000820800410400000ED
:1015C000001FFFF81FFFF82568753A25303268754F
:1015D00000256875642025303268753A25303268F8
:1015E0007500202020202020200041206D617820DF
:1015F000450041206D6178205A0041206D617820BE
:10160000590041206D617820580041204C65657279
:10161000666168727400412045696E7A756700459D
:101620002053746570732F6D6D005A20537465706C
:10163000732F6D6D00592053746570732F6D6D009D
:10164000582053746570732F6D6D0042657374C3B9
:10165000A4746967656E004D3432380046696C6168
:101660006D656E74004A756E6374696F6E204465B3
:10167000760042657363686C65756E6967756E6741
:1016800000476573636877696E6469676B65697441
:10169000005365747A6520486F6D65766572736175
:1016A000747A0041626272656368656E005A757291
:1016B000C3BC636B004265776567756E67005374E2
:1016C0006172746520447275636B00447275636B5C
:1016D000656E0043616E6E6F7420656E7465722076
:1016E0007375626469723A2000022E2E0001416B0C
:1016F0007475616C6973696572656E00486F7465B5
:101700006E64207A75206B616C740057656974652E
:101710007200426574740020436F756E7420583AED
:1017200000453100626564002C2073797374656D27
:101730002073746F707065642120486561746572F0
:101740005F49443A200024F4D43050C38E20C2A212
:101750004017828B7011127A910D816CD90AA861A1
:10176000E108C7586607615143061E4B5D05C14538
:10177000A7041A411104093D980371393103403619
:10178000DB0265339102D4305402802E1D02632C9B
:10179000EE01752AC501B028A001102781018F250F
:1017A00064012B244B01E0223401AC211F018D2068
:1017B0000D01801FFC00841EED00971DDF00B81C8A
:1017C000D200E61BC600201BBC00641AB200B2198E
:1017D000A8000A19A0006A189900D11791004017B3
:1017E0008B00B516840031167E00B31579003A15CA
:1017F0007300C7146F0058146A00EE136600881354
:10180000630025135E00C7125B006C1257001512AF
:101810005400C111510070114F0021114B00D6101E
:1018200049008D1047004610440002104200C00FCE
:101830004000800F3E00420F3C00060F3B00CB0EE5
:101840003800930E37005C0E3500270E3400F30D80
:101850003200C10D3100900D3000600D2E00320DB0
:101860002D00050D2C00D90C2B00AE0C2900850C89
:1018700029005C0C2700350C27000E0C2600E80B15
:101880002400C40B2400A00B23007D0B23005A0B63
:101890002100390B2100180B2000F80A1F00D90A7B
:1018A0001E00BB0A1E009D0A1D00800A1D00630A5F
:1018B0001C00470A1B002C0A1B00110A1A00F7091A
:1018C0001A00DD091900C4091900AB0919009209B1
:1018D00017007B091800630917004C091600360928
:1018E0001600200916000A091500F5081500E00881
:1018F0001400CC081400B8081400A40814009008C0
:1019000013007D0812006B081300580812004608E7
:1019100012003408110023081100120811000108F8
:101920001100F0071000E0071000D0071000C007FA
:101930001000B0070F00A107100091070E008307E9
:101940000F0074070F0065070E0057070E004907C8
:101950000E003B070D002E070E0020070D00130799
:101960000D0006070D00F9060C00ED060D00E0065F
:101970000C00D4060C00C8060C00BC060C00B00617
:101980000C00A4060B0099060C008D060B008206C5
:101990000B0077060B006C060B0061060A00570669
:1019A0000B004C060A0042060A0038060A002E0602
:1019B0000A0024060A001A060A0010060900070693
:1019C0000A00FD050900F4050900EB050900E20520
:1019D0000900D9050900D0050900C7050900BE05A1
:1019E0000900B5050800AD050800A50509009C051E
:1019F0000800940508008C050800840508007C0593
:101A00000800740508006C050700650508005D0501
:101A10000700560508004E0507004705070040056A
:101A2000080038050700310507002A0507002305CF
:101A300007001C050600160507000F05070008052E
:101A4000060002050700FB040600F5040700EE048B
:101A50000600E8040600E2040700DB040600D504E3
:101A60000600CF040600C9040600C3040600BD0436
:101A70000600B7040600B1040500AC040600A60485
:101A80000600A00405009B040600950405009004D0
:101A900006008A04050085040500800406007A0417
:101AA000050075040500700405006B04050066045C
:101AB0000500610405005C0405005704050052049C
:101AC00005004D04050048040500430405003E04DC
:101AD00004003A04050035040500300404002C0419
:101AE000050027040400230405001E0404001A0452
:101AF000040016040500110404000D040400090488
:101B000005000404040000040400FC030400F803BE
:101B10000400F4030400F0030400EC030400E803F1
:101B20000400E4030400E0030400DC030400D80321
:101B30000400D4030400D0030400CC030400C80351
:101B40000300C503030024F404D9201BC40C5C0E5D
:101B50009804C4095F0265077101F405F900FB04EC
:101B6000B30048048700C10369005803550003030C
:101B70004500BE023A008402310053022A002902C5
:101B8000250004022000E4011C00C8011900AF0177
:101B90001700980114008401130071011000610105
:101BA000100051010E0043010D0036010B002B0106
:101BB0000B0020010B00150109000C0109000301B5
:101BC0000800FB000800F3000800EB000700E40039
:101BD0000600DE000600D8000600D2000600CC0099
:101BE0000500C7000500C2000500BD000400B900E3
:101BF0000400B5000400B1000400AD000400A90019
:101C00000400A5000300A20003009F0004009B0045
:101C10000300980003009500020093000300900069
:101C200003008D0002008B00030088000200860084
:101C3000020084000300810002007F0002007D009A
:101C400002007B00020079000200770001007600AC
:101C500002007400020072000100710002006F00B7
:101C600002006D0001006C0002006A0001006900C2
:101C700002006700010066000100650001006400C9
:101C800002006200010061000100600001005F00CD
:101C900002005D0001005C0001005B0001005A00D1
:101CA00001005900010058000100570001005600D2
:101CB00001005500010054000100530000005300D2
:101CC00001005200010051000100500001004F00CE
:101CD00001004E0000004E0001004D0001004C00CC
:101CE00001004B0000004B0001004A0001004900C8
:101CF00001004800000048000100470001004600C4
:101D000000004600010045000000450001004400BD
:101D100001004300000043000100420000004200B7
:101D200001004100000041000100400001003F00AF
:101D300000003F0001003E0000003E0001003D00A9
:101D400000003D0001003C0000003C0000003C00A1
:101D500001003B0000003B0001003A0000003A0097
:101D6000010039000000390001003800000038008F
:101D70000000380001003700000037000100360085
:101D8000000036000000360001003500000035007C
:101D90000000350001003400000034000000340071
:101DA0000100330000003300000033000100320066
:101DB000000032000000320001003100000031005C
:101DC0000000310001003000000030000000300051
:101DD00001002F0000002F0000002F0000002F0046
:101DE00001002E0000002E0000002E0001002D003A
:101DF00000002D0000002D0000002D0001002C002F
:101E000000002C0000002C0000002C0001002B0022
:101E100000002B0000002B0000002B0001002A0016
:101E200000002A0000002A0000002A00010029000A
:101E300000002900000029000000290000002900FE
:101E400001002800000028000000280000002800F1
:101E500000002800010027000000270000002700E4
:101E600000002700000027000100260000002600D7
:101E700000002600000026000000260001002500CA
:101E800000002500000025000000250000002500BE
:101E900000002500010024000000240000002400B0
:101EA00000002400000024000100230000002300A3
:101EB0000000230000002300000023000000230096
:101EC0000000230001002200000022000000220088
:101ED000000022000000220000002200010021007A
:101EE000000021000000210000002100000021006E
:101EF000000021000000210001002000000020005F
:101F00000000200000002000000020000000200051
:101F1000000020000000200001001F0000001F0042
:101F200000001F0000001F0000001F0000001F0035
:101F300000001F0001001E0000001E0000001E0027
:101F400000001E000000043700001E290000511B85
:101F500000005810000010090000CC0400007802B6
:101F60000000410100004361703A00656E717565C3
:101F70007565696E672022006F6B00526573656E30
:101F8000643A200023646566696E652044454641D5
:101F9000554C545F004B6420004B6920004B70206F
:101FA00000504944204175746F74756E65206669F0
:101FB0006E697368656421205075742074686520AB
:101FC0006C617374204B702C204B6920616E64200F
:101FD0004B6420636F6E7374616E74732066726FEE
:101FE0006D2062656C6F7720696E746F20436F6E31
:101FF00066696775726174696F6E2E680A00504970
:1020000044204175746F74756E65206661696C65F6
:1020100064212074696D656F75740A000A20436C31
:10202000617373696320504944200A00204B643A6D
:102030002000204B693A2000204B703A20000A20F3
:102040004E6F206F76657273686F6F740A0020544C
:10205000753A2000204B753A2000206D61783A20B7
:1020600000206D696E3A200020643A2000206269E9
:1020700061733A2000504944204175746F74756E45
:10208000652073746172740A00504944204175746C
:102090006F74756E65206661696C65642120546596
:1020A0006D706572617475726520746F6F206869F8
:1020B00067680A00504944204175746F74756E65F5
:1020C00000504944204175746F74756E65206661D7
:1020D000696C65642120426164206578747275645E
:1020E0006572206E756D6265720A004572723A20E3
:1020F0007574663820666F6E74206E6F7420696E1A
:10210000697469616C697A65642E00000C0F00FEC9
:1021100007022503BB01FFFE0AFE08FE05080806AC
:10212000000040F0C888889878100508080600006C
:10213000C0F88888888888F80505050600012030E1
:10214000F830200508080600002070F82020202024
:10215000E00509090600FF2070A8A8B8888870204B
:10216000070505070001D86C366CD805090906007B
:10217000FFF8A88888888888A8F8050A0A0600FE5B
:10218000205050505088A8A888700303030600030D
:1021900040A040FFFFFFFFFFFFFFFFFFFFFFFFFF2C
:1021A000FFFFFFFFFFFFFFFFFF0000000605FF012D
:1021B00007070602008080808080008003030306FA
:1021C0000105A0A0A005060606000050F85050F832
:1021D000500509090600FF2070A8A07028A87020EB
:1021E000050707060000C8C8102040989805070793
:1021F00006000040A0A040A8906801030306020565
:102200008080800309090601FF20404080808040D3
:1022100040200309090601FF804040202020404063
:102220008005070706000020A8702070A82005057B
:10223000050600012020F820200203030601FFC04C
:102240004080050101060003F8020202060100C0F9
:10225000C005070706000008101020404080050751
:1022600007060000708898A8C88870030707060151
:102270000040C040404040E005070706000070886D
:1022800008102040F8050707060000F8081030087D
:10229000887005070706000010305090F8101005F0
:1022A0000707060000F880F0080888700507070691
:1022B0000000304080F0888870050707060000F8AD
:1022C000081010202020050707060000708888707D
:1022D00088887005070706000070888878081060F5
:1022E000020505060100C0C000C0C00206060601C6
:1022F000FFC0C000C04080030505060101204080EA
:102300004020050303060002F800F8030505060156
:1023100001804020408005070706000070881020DB
:102320002000200507070600007088B8A8B8807054
:10233000050707060000708888F888888805070761
:10234000060000F04848704848F0050707060000FE
:1023500070888080808870050707060000F0484874
:10236000484848F0050707060000F88080F08080A4
:10237000F8050707060000F88080F08080800507D8
:10238000070600007088808098887005070706009F
:1023900000888888F8888888030707060100E040DD
:1023A00040404040E00507070600003810101010BC
:1023B00090600507070600008890A0C0A0908805DF
:1023C0000707060000808080808080F805070706E8
:1023D000000088D8A8888888880507070600008834
:1023E00088C8A8988888050707060000708888882C
:1023F000888870050707060000F08888F0808080D4
:1024000005070706000070888888A89068050707F8
:10241000060000F08888F0A09088050707060000F5
:1024200070888070088870050707060000F8202073
:1024300020202020050707060000888888888888D3
:102440007005070706000088888888505020050717
:102450000706000088888888A8A850050707060096
:102460000088885020508888050707060000888863
:102470005020202020050707060000F80810204003
:1024800080F80309090601FFE08080808080808059
:10249000E0050707060000804040201010080309EF
:1024A000090601FFE020202020202020E005030372
:1024B0000600052050880501010600FEF80303030D
:1024C0000601058040200505050600007008788893
:1024D000780507070600008080F0888888F00505E9
:1024E0000506000070808088700507070600000858
:1024F0000878888888780505050600007088F080CF
:1025000070050707060000304840E04040400507DE
:10251000070600FE7088888878087005070706009F
:10252000008080F088888888030707060100400043
:10253000C0404040E00409090601FE1000301010C0
:102540001010906005070706000080808890E090DA
:1025500088030707060100C04040404040E00505F1
:1025600005060000D0A8A8A8A8050505060000B02B
:10257000C888888805050506000070888888700569
:1025800007070600FEF0888888F0808005070706A8
:1025900000FE78888888780808050505060000B0E0
:1025A000C880808005050506000078807008F00569
:1025B00007070600002020F8202020180505050642
:1025C00000008888889868050505060000888888C6
:1025D00050200505050600008888A8A850050505B7
:1025E00006000088502050880507070600FE8888EE
:1025F0008850204080050505060000F8102040F8AE
:102600000309090601FF204040408040404020016E
:1026100009090602FF808080808080808080030915
:10262000090601FF804040402040404080050303F0
:1026300006000248A890FFFFFFFFFFFFFFFFFFFF1C
:10264000FFFFFFFFFFFFFFFFFFFFFFFFFFFFFFFF9A
:10265000FFFFFFFFFFFFFF0000000605FF01070768
:10266000060200800080808080800507070600FF4A
:102670002070A8A0A8702005070706000030484079
:10268000E04048B0050505060000A8508850A805A0
:1026900007070600008850F820F8202001070706E9
:1026A000020080808000808080040808060100709D
:1026B000806090906010E0030101060107A006070A
:1026C000070600007884B4A4B484780305050601E5
:1026D0000460A06000E00505050600002850A05039
:1026E00028050303060001F8080803010106010399
:1026F000E00607070600007884B4A4A484780501E6
:1027000001060007F80404040601056090906005C6
:1027100007070600002020F8202000F80305050622
:10272000010440A02040E0030505060104C020404C
:1027300020C00303030601052040800507070600AB
:10274000FE88888898E8808005080806000078E8F8
:10275000E8E868282828020202060203C0C0030233
:10276000020601FE20C003050506010440C04040EA
:10277000E003050506010540A04000E0050505064B
:102780000000A0502850A0050A0A06000040C048DA
:10279000506050B0507810050A0A06000040C0484A
:1027A000506050A8081038050A0A060000C02048EA
:1027B00030E050B0507810050707060000200020D8
:1027C00020408870050A0A060000402000708888B2
:1027D000F8888888050A0A0600001020007088889A
:1027E000F8888888050A0A0600002050007088884A
:1027F000F8888888050A0A06000068B00070888892
:10280000F88888880509090600005000708888F853
:10281000888888050A0A060000205020708888F8F9
:1028200088888805070706000078A0A0F0A0A0B857
:102830000509090600FE7088808080887010600598
:102840000A0A060000402000F88080F08080F80529
:102850000A0A060000102000F88080F08080F80549
:102860000A0A060000205000F88080F08080F805F9
:1028700009090600005000F88080F08080F8030A03
:102880000A060100804000E04040404040E0030A6A
:102890000A060100204000E04040404040E0030ABA
:1028A0000A06010040A000E04040404040E003092B
:1028B00009060100A000E04040404040E005070755
:1028C000060000704848E8484870050A0A060000FB
:1028D00068B0008888C8A8988888050A0A06000099
:1028E00040200070888888888870050A0A060000E1
:1028F00010200070888888888870050A0A06000001
:1029000020500070888888888870050A0A060000B0
:1029100068B00070888888888870050909060000FA
:102920005000708888888888700505050600018831
:10293000502050880509090600FF087098A8A8A82B
:10294000C87080050A0A0600004020008888888830
:10295000888870050A0A0600001020008888888888
:10296000888870050A0A0600002050008888888838
:1029700088887005090906000050008888888888C2
:102980008870050A0A060000102000888850202060
:10299000202004070706010080E0909090E0800569
:1029A0000707060000708890A09088B00508080608
:1029B00000004020007008788878050808060000AC
:1029C000102000700878887805080806000020505C
:1029D00000700878887805080806000068B0007064
:1029E0000878887805070706000050007008788886
:1029F00078050808060000205020700878887805BF
:102A00000505060000702870A0780507070600FE7F
:102A1000708880887010600508080600004020005B
:102A20007088F0807005080806000010200070888B
:102A3000F080700508080600002050007088F080C3
:102A40007005070706000050007088F080700308CA
:102A500008060100804000C0404040E0030808062E
:102A60000100204000C0404040E00308080601008B
:102A700040A000C0404040E0030707060100A0005E
:102A8000C0404040E0050909060000502050087889
:102A90008888887005080806000068B000B0C888FB
:102AA0008888050808060000402000708888887023
:102AB0000508080600001020007088888870050846
:102AC00008060000205000708888887005080806F5
:102AD000000068B00070888888700507070600004D
:102AE000500070888888700505050600012000F8F0
:102AF00000200505050600007898A8C8F00508081C
:102B000006000040200088888888700508080600B4
:102B100000102000888888887005080806000020BA
:102B200050008888888870050707060000500088D4
:102B300088888870050A0A0600FE102000888888A8
:102B4000502040800509090600FE8080F0888888B2
:102B5000F080800509090600FE5000888888502012
:102B60004080D0C9D7CA11241FBECFEFD0E4DEBF4A
:102B7000CDBF11E0A0E0B1E0ECE6F3EB01E00BBF6C
:102B800002C007900D92AC3CB107D9F722E1ACEC42
:102B9000B1E001C01D92A435B207E1F715E1C2EB27
:102BA000D5E104C02197FE010E94EAD6C13BD107BE
:102BB000C9F70E94ABC10C94AAD90C940000A4E3FD
:102BC000B0E0E5EEF5E10C940BD78CAB809162118F
:102BD0008D3409F431C3843511F40C94E325873422
:102BE00011F00C940426809160119091611185314F
:102BF000910511F40C9406264CF497FD19C382300C
:102C0000910544F1049709F450C212C38A35910525
:102C100009F499C224F44C9709F485C209C38B3591
:102C2000910509F494C28C35910509F001C327E69A
:102C3000222E21E0322E3DE8E32E3AE0F32EA9E1E8
:102C4000B1E0B9A3A8A340EEC42E44E0D42E00E026
:102C500010E0BEC28091F903813011F00C94062679
:102C60007AE9C72E7AE0D72EE9E1EE2EE1E0FE2EDA
:102C7000F0EEAF2EF4E0BF2E10E088E5810F0E9449
:102C8000902C882319F10E941D2C2B013C01812FCF
:102C90000E94C12B882351F0D7012D913D914D9178
:102CA0005C91C301B2010E9443D709C0F5012081A4
:102CB000318142815381C301B2010E9442D7D601C2
:102CC0006D937D938D939C9313970AC0F701808138
:102CD0009181A281B381F60180839183A283B38322
:102CE0001F5FF4E0CF0ED11C24E0E20EF11C34E0B3
:102CF000A30EB11C133009F685E40E94902C8823A2
:102D000001F10E941D2C6B017C0183E00E94C12B0C
:102D1000882371F0209125013091260140912701EF
:102D200050912801C701B6010E9443D76B017C0175
:102D3000C092A60AD092A70AE092A80AF092A90A25
:102D400010C08091250190912601A0912701B0919A
:102D500028018093A60A9093A70AA093A80AB0938B
:102D6000A90A86E40E94902C8823C9F00E941D2C99
:102D700020E030E0A9010E94A6D8181684F40E9431
:102D80001D2C20E030E040E752E40E94BAD7609367
:102D900000017093010180930201909303018091DF
:102DA0003101882309F4BCC01091990A10FF3CC07E
:102DB000C0903301D0903401E0903501F09036019D
:102DC00020919A0A30919B0A40919C0A50919D0A49
:102DD000C701B6010E94A6D8181644F4C0929A0AF8
:102DE000D0929B0AE0929C0AF0929D0AC0903F010B
:102DF000D0904001E0904101F090420120919A0A68
:102E000030919B0A40919C0A50919D0AC701B601DE
:102E10000E9417D087FF08C0C0929A0AD0929B0ADE
:102E2000E0929C0AF0929D0A11FF3CC0C0903701CD
:102E3000D0903801E0903901F0903A0120919E0A3B
:102E400030919F0A4091A00A5091A10AC701B60192
:102E50000E94A6D8181644F4C0929E0AD0929F0AE7
:102E6000E092A00AF092A10AC0904301D0904401E0
:102E7000E0904501F090460120919E0A30919F0A12
:102E80004091A00A5091A10AC701B6010E9417D033
:102E900087FF08C0C0929E0AD0929F0AE092A00AC3
:102EA000F092A10A12FF3CC0C0903B01D0903C01BF
:102EB000E0903D01F0903E012091A20A3091A30ADA
:102EC0004091A40A5091A50AC701B6010E94A6D854
:102ED000181644F4C092A20AD092A30AE092A40A5F
:102EE000F092A50AC0904701D0904801E0904901B6
:102EF000F0904A012091A20A3091A30A4091A40ABD
:102F00005091A50AC701B6010E9417D087FF08C0DB
:102F1000C092A20AD092A30AE092A40AF092A50A53
:102F20008091CC0983FD85C0209125013091260137
:102F300040912701509128016091A60A7091A70A3B
:102F40008091A80A9091A90A0E9417D0882309F4B9
:102F500070C08091190581111BC06091D50C7091D2
:102F6000D60C8091D70C9091D80C0E9422D8209139
:102F70002D0130912E01215031096217730744F45D
:102F80000E94EC2D88E59CE00E94CF2D11E001C04D
:102F900010E02091250130912601409127015091A8
:102FA00028016091A60A7091A70A8091A80A9091C1
:102FB000A90A0E9442D76B017C0120E030E0A90100
:102FC0000E94A6D887FF04C0F7FAF094F7F8F094AF
:102FD0002091290130912A0140912B0150912C011F
:102FE000C701B6010E947CD020E030E048E453E401
:102FF0000E94A6D818163CF40E94EC2D89E39CE0B0
:103000000E94CF2D02C01123A1F08091A60A9091B9
:10301000A70AA091A80AB091A90A809325019093CC
:103020002601A0932701B093280186EA9AE00E9426
:1030300062772AE037ED43E25CE360910001709132
:10304000010180910201909103010E947CD06B01EB
:103050007C0160915B0170915C01072E000C880B74
:10306000990B0E941DD09B01AC01C701B6010E94C3
:103070007CD069837A838B839C838E010F5F1F4F83
:1030800026EA3AE042EA5AE06EE97AE08AE99AE012
:103090000E94D45180E1EAE9FAE0A9E1B1E00190AF
:1030A0000D928A95E1F70C94062680E50E94902CFB
:1030B000882329F00E94DA2B6B017C0103C0C12C0C
:1030C000D12C760183E50E94902C882361F00E9428
:1030D0001D2C20E030E04AE754E40E947CD00E949E
:1030E00027D86B017C010E94E2748091510A811102
:1030F00005C060E087E792E00E9448800E9455C1C9
:10310000C60ED71EE81EF91E0E9455C1DC01CB0178
:103110008C199D09AE09BF09B7FD02C00C940626A3
:103120000E943330F1CF8091990A8770873011F077
:103130000C940C2660E08FE40E949C2C81110C946E
:1031400006260C940C261092D9010C9406268FE0CA
:103150008093D9010C9406260E941D2C2B013C0162
:10316000133049F0D6012D913D914D915C910E9413
:1031700042D72B013C01E8A1F9A120813181428194
:103180005381C301B2010E9442D74B015C012DEB78
:1031900037E346E855EB0E94A6D887FD21C02DEB0A
:1031A00037E346E855E3C501B4010E9417D018166D
:1031B000BCF01F5FF4E0EF0EF11C28A139A12C5FD9
:1031C0003F4F39A328A334E0C30ED11C143031F192
:1031D000F10181911F010E94902C882351F3BCCFF3
:1031E000133051F44092250150922601609227013C
:1031F0007092280101E0DDCFA5019401D7016D9106
:103200007D918D919C910E9443D7F70160837183DA
:1032100082839383812F0E94CB7ACBCF002321F02E
:1032200085E291E00E9462770E94127C0C9406264F
:103230000E94063E0C9406268091601190916111C7
:103240008337910509F4B3C60CF0BAC08B349105ED
:1032500009F436C40CF049C08831910509F44DC217
:103260004CF58231910509F4BEC56CF497FF02C09C
:103270000C94E025823091050CF47BC1419709F450
:10328000D0C10C94E0258531910509F418C22CF4C5
:10329000449709F4E3C10C94E0258631910509F4C3
:1032A00012C2479711F00C94E025E0915E11F09165
:1032B0005F1117C28C31910509F4A5C23CF48A3123
:1032C000910509F43FC20CF424C24AC28E31910523
:1032D00009F4A8C20CF49FC28F31910509F446C3CA
:1032E000809709F400C30C94E0258836910509F411
:1032F00004C4ACF58235910509F467C504F58D3435
:10330000910509F4F6C30CF4DFC38135910511F082
:103310000C94E0250E949A370E945F7D0E94F2740F
:103320000E94882D68EE73E080E090E00E94AD2C52
:1033300060E087E993E00E9448800C94062684357B
:10334000910509F450C50CF447C58535910509F47C
:1033500081C58C35910509F4A0C50C94E0258D3606
:10336000910509F4F1C3ACF48A36910509F428C437
:103370000CF413C48B36910509F45EC48C369105A8
:1033800011F00C94E02510927D0A109213010C9418
:1033900006268F36910509F468C40CF455C48037AD
:1033A000910509F4A6C48237910511F00C94E0252B
:1033B0000E947C3D87E89DE00E9490A70C94062621
:1033C0008D3D910511F40C9404230CF056C08E3BF6
:1033D000910509F4B4C46CF58837910509F4B6C6B3
:1033E00064F48637910509F474C60CF0ACC68537D1
:1033F000910509F45EC60C94E0258C38910509F41A
:103400007FC46CF48937910511F00C94E02510927B
:103410006402109263020E94B07C0C9406268139EB
:10342000910509F49BC68B39910509F4A8C40C9445
:10343000E0258C3C910509F495C774F4893C91050D
:1034400009F44BC78B3C910509F46AC7883C910588
:1034500011F00C94E025FAC68E3C910509F4C9C719
:103460000CF4B4C7833D910509F4E1C78C3D910587
:1034700011F40C94DD220C94E0258C3A41E0940781
:1034800011F40C9404257CF58E32A1E09A0711F416
:103490000C94BE2484F48C32E1E09E0711F40C9469
:1034A000B32314F00C94D2238232914011F40C9483
:1034B0005A230C94E025803331E0930711F40C94E7
:1034C000512414F40C94FE24803951E0950711F432
:1034D0000C9401258A39914011F00C94E0250E944A
:1034E000E62C0C940626883FB1E09B0711F40C945F
:1034F0009C252CF5853FF1E09F0711F40C9496254F
:103500004CF4843F914011F00C94E0250E9425700A
:103510000C940626863F41E0940711F40C949925FB
:10352000873F914011F00C94E02561E083E50E9413
:103530009C2C91E089270E9453530C940626803AD4
:10354000A3E09A0709F404C23CF48C30924011F4D1
:103550000C94AD250C94E025873EF3E09F0711F411
:103560000C94BA25893E934011F40C94C7250C9411
:10357000E02580E50E94902C882329F00E94DA2B18
:103580006B017C0103C0C12CD12C760183E50E9424
:10359000902C882361F00E941D2C20E030E04AE747
:1035A00054E40E947CD00E9427D86B017C010E94C9
:1035B000E27480915E1190915F11009721F061E0BB
:1035C0000E94D78005C060E081E892E00E944880B8
:1035D00081E080937D0AC114D104E104F10431F04B
:1035E0000E9455C1C60ED71EE81EF91E80917D0AA5
:1035F000882311F40C942E27C114D104E104F104A2
:1036000011F40C9433270E9455C1DC01CB018C19B5
:103610009D09AE09BF09B7FF02C00C9433270C9473
:103620002E2780915A1184FF02C00C943727809175
:103630005C1187FF02C00C94372780915D11837065
:1036400011F00C94372760E086E992E00E944880F0
:103650005E985E9815985E980C9406268091080FE7
:1036600083FF25C08AEB92E00E94CF2D8091080F46
:1036700083FF17C081E49DE00E949C668BE1E1E43A
:10368000FDE0DE01119601900D928A95E1F760E070
:1036900070E0CE0101960E942D8CCE0101960E9411
:1036A00087688BEA92E00E94CF2D0C9406260E9438
:1036B000EC2D8BEC92E00E94CF2D0C9406260E94FC
:1036C000488A0C9406260E94A4898091080F877F5F
:1036D00080628093080F0C940626803209F41082D1
:1036E000319680818111F9CF60E080915E119091D7
:1036F0005F110E94238B0C9406260E94692D88235B
:1037000021F00E94B3890E942B7D0E94CC3D0C9435
:1037100006268091080F82FF03C08B7F8093080FDD
:103720008091DF04813089F782E08093DF040E947A
:1037300055C16093890A70938A0A80938B0A90938B
:103740008C0AE3CF8091080F83FD02C00C940626FB
:1037500083E50E94902C81110C9446270C94062638
:1037600083E40E94452C882319F18FED92E00E949A
:10377000CF2D8091EB0C882391F0BE016F5F7F4FBE
:1037800088EE9CE00E948E658E010F5F1F4FD8016E
:103790008D918D01882339F00E94C82DF8CF85EDD9
:1037A00092E00E94CF2D8AE00E94C82D0C9406263C
:1037B0008091080F82FF21C08EEE92E00E94CF2DF3
:1037C0006091040F7091050F8091060F9091070F83
:1037D0004AE00E94AB2E8FE20E94C82D6091000F3C
:1037E0007091010F8091020F9091030F4AE00E94A7
:1037F000AB2E0E940F300C94062680E093E00E94CE
:10380000CF2D0C94062680915E1190915F110E943D
:10381000E48A0C9406268091080F8E7F8093080F0F
:103820000C9406268091080F83FD02C00C94062696
:103830000E94EF3D8091080F83FD02C00C94062684
:1038400040915E1150915F11BE01645E7F4F80E038
:103850000E944BC08C01009711F40C9406266C8DCD
:103860007D8D19821C8222E0AC01CE0101960E945E
:103870008C68811102C0F12C14C0CE0101960E9407
:103880006F868823C1F361E0CE0101960E943B65FB
:10389000009789F325EEFC0120831C820E941C61A5
:1038A000F82ECE0101960E948768B801FF2089F0AA
:1038B00089E293E00E94DD2D8AE00E94C82D1092DB
:1038C000040F1092050F1092060F1092070F0C9420
:1038D000062681E193E00E94DD2D89E09DE00E94B3
:1038E000CF2D0C9406268091080F82FD0E94E27471
:1038F0008091080F83FD02C00C94062660E080E5ED
:103900000E949C2C182F682F80915E1190915F115E
:103910000E94238B83E50E94902C882381F00E94D3
:10392000EA2BAB01BC014093040F5093050F609349
:10393000060F7093070F88EE9CE00E94EF620E94D2
:10394000B38911110C9406260E942B7D0C94062637
:1039500020915E1130915F119091080F92609093C9
:10396000080FC9010E94E48A0C9406260E94DC7CA0
:103970006B017C0120E831E541E050E00E9453D624
:10398000C9016DE671E00E94A7D64B015C01C70139
:10399000B60120E13EE040E050E00E9453D6CA016B
:1039A000B90128E130E040E050E00E9453D62B01FD
:1039B0003C011B01C701B6012CE330E040E050E0C0
:1039C0000E9453D66B017C01CA01B9012CE330E09F
:1039D00040E050E00E9453D68E010F5F1F4F8114CC
:1039E000910499F0DF92CF927F936F935F924F9201
:1039F000BF92AF929F928F9287E393E09F938F93B2
:103A00001F930F930E94B1CF13C0A114B104B1F062
:103A1000DF92CF927F936F935F924F92BF92AF925C
:103A20008BE393E09F938F931F930F930E94B1CFEB
:103A30000FB6F894DEBF0FBECDBF32C041145104A3
:103A400079F0DF92CF927F936F935F924F928FE3E3
:103A500093E09F938F931F930F930E94B1CFE8CF72
:103A60006115710569F0DF92CF927F936F9383E4C4
:103A700093E09F938F931F930F930E94B1CFD8CF62
:103A8000DF92CF9287E493E09F938F931F930F93DE
:103A90000E94B1CF0F900F900F900F900F900F904A
:103AA00060E0C8010E94D7800E94EC2DB8018BE431
:103AB00093E00E94DD2D8AE00E94C82D0C9406261A
:103AC0000E942B7D0C9406268091DF04813011F03A
:103AD0000C94062682E08093DF040E9455C1609317
:103AE000890A70938A0A80938B0A90938C0A0C94AB
:103AF00006260E945F7D0C9406268091CC0983FFE8
:103B000002C00C9406260E94382F87FF02C00C9436
:103B1000062689E40E94902C882311F40C945627E1
:103B20000E94FD2B90E01816190614F481E090E035
:103B300026E0289FF001299FF00D1124E85DF54F44
:103B4000808191810C945F278091CC0983FF02C012
:103B50000C9406260E94382F082F87FF02C00C9471
:103B6000062689E40E94902C882311F40C94662781
:103B70000E94FD2B90E01816190614F481E090E0E5
:103B800026E0289FF001299FF00D1124E85DF54FF4
:103B90008081918110E00C9474270E94382F182F97
:103BA00087FF02C00C94BD2B88E79FE10E94CF2DB8
:103BB000812F0E9489358AE00E94C82D0C94BD2B6C
:103BC00080E50E94143E81110C94062681E40E9437
:103BD000452C882329F060910805062F10E002C0CB
:103BE0000FEF10E089E40E94902C882399F00E9446
:103BF000FD2B90E01816190614F481E090E026E001
:103C0000289FF001299FF00D1124E85DF54F0481F4
:103C1000158108C083E50E94902C882319F00E942A
:103C2000EA2B8B01B8010F3F110519F010F06FEF6F
:103C300070E060930805EAC780E50E94143E811198
:103C4000E5C710920805E2C78EE40E94902C8823F5
:103C500009F4DCC70E94EA2B6093E7117093E81126
:103C60008093E9119093EA11D1C783E50E94452C16
:103C7000882329F083E50E94143E8093CC090E949A
:103C8000EC2D85E693E00E94CF2D8091CC0988230E
:103C900069F18DE0E82E87E0F82E00E010E020E0EA
:103CA0008091CC0990E0A0E0B0E0002E04C0B69571
:103CB000A795979587950A94D2F780FF0EC0DD24CB
:103CC000D394D20E222319F08CE20E94C82DF70162
:103CD000859194910E94CF2D2D2D0F5F1F4F42E0B3
:103CE000E40EF11C05301105D9F65DCD81E693E0B7
:103CF00058CD41E060E070E08CE693E00E94EF2D4B
:103D00008091CC0983FD82C789E40E94902C88238E
:103D100011F40C94CB290E94FD2B90E01816190683
:103D200014F481E090E026E0289FF001299FF00D37
:103D30001124E85DF54F628173810C94D329809141
:103D4000CC0983FD63C789E40E94902C882311F479
:103D50000C94EC280E94FD2B90E01816190614F420
:103D600081E090E026E0289FF001299FF00D1124CA
:103D7000E85DF54F6281738110E00C94F92883E5CA
:103D80000E94902C882309F441C70E94FD2B182F14
:103D900090E0CD970CF01CE31093D0010E9455C128
:103DA0006B017C01212F30E0A8EEB3E00E947FD6AA
:103DB000C60ED71EE81EF91EC092CC01D092CD01CE
:103DC000E092CE01F092CF0121C78091D9018F7D81
:103DD00080618093D9011AC78091D9018F7E80625A
:103DE0008093D90113C783E50E94902C8823E9F0C2
:103DF0000E9455C16093D5017093D6018093D7017D
:103E00009093D8010E941D2C20E030E04AE754E452
:103E10000E947CD00E9427D8609304017093050112
:103E20008093060190930701F1C680915A1184FF97
:103E300002C00C94902A80915C1187FF02C00C9400
:103E4000902A80915D11837011F00C94902A0E9449
:103E5000F274DCC683E50E94452C882309F4D6C69B
:103E60000E9455C16093D5017093D6018093D7010C
:103E70009093D8010E941D2C20E030E04AE754E4E2
:103E80000E947CD00E9427D86093D1017093D20108
:103E90008093D3019093D401B9C60E94382F87FD37
:103EA000B5C690915A1194FD04C090915C1197FF92
:103EB0000AC0B7E6CB2EB1E0DB2E1DECE12E19E0F7
:103EC000F12E10E009C090915D11937091F7682F69
:103ED00081E00E94DB2F9AC6D6018D916D010E9470
:103EE000902C882309F459C0133009F04FC00E9468
:103EF0001D2C4B015C0120E030E040EA51E40E94BF
:103F000017D087FF3AC0A50194016091ED09709127
:103F1000EE098091EF099091F0090E94BAD72B0128
:103F20003C019B01AC016091FD097091FE098091FB
:103F3000FF099091000A0E947CD06093FD09709364
:103F4000FE098093FF099093000A6091FC04709130
:103F5000FD048091FE049091FF040E941BD0A301F8
:103F600092010E947CD00E9427D86093FC04709339
:103F7000FD048093FE049093FF048092ED099092DB
:103F8000EE09A092EF09B092F00907C00E941D2C23
:103F9000F701648B758B868B978B1F5FF4E0EF0EB8
:103FA000F11C143009F098CF0E945A782FC686EF82
:103FB00094E00E94CF2D60E086EE94E00E9486B6E9
:103FC00060E081ED94E00E9486B661E08AEC94E0C6
:103FD0000E9486B661E08FEB94E00E9486B661E0B5
:103FE0008FEA94E00E9486B660E086EA94E00E9440
:103FF00086B661E08CE994E00E9486B660E082E9D2
:1040000094E00E9486B660E08BE894E00E9486B659
:1040100060E083E894E00E9486B660E085E794E083
:104020000E9486B660E087E694E00E9486B660E073
:1040300088E594E00E9486B660E08AE494E00E94FD
:1040400086B660E084E394E00E9486B660E083E296
:1040500094E00E9486B660E084E194E00E9486B617
:1040600061E08DE094E00E9486B660E088EF93E026
:104070000E9486B660E08AEE93E00E9486B661E018
:1040800087ED93E00E9486B660E08AEC93E00E94A0
:1040900086B660E085EC93E00E9486B661E088EB2E
:1040A00093E00E9486B660E084EA93E00E9486B6C0
:1040B000ADC580915E1190915F11009709F425CBF9
:1040C000DC012C91222309F420CB60E00E94D780F0
:1040D0009DC500915E1110915F1194E0F12C40E0BC
:1040E000915021F1F8018081282F2B7F213421F478
:1040F00021812133D9F407C08035C1F481818053F7
:104100008A3048F013C0813421F0853421F441E035
:1041100002C0FF24F39498012E5F3F4F89012F5F67
:104120003F4FF80180818032C9F3DACF41110E94FC
:10413000EC2DFF2021F089EC95E00E94CF2DC801E5
:104140000E94133063C50E94917C60C581E080931A
:104150006402809363020E94B07C58C583E50E948C
:10416000902C882359F00E94FA2B823048F00E944C
:10417000E92D8DEC95E00E94CF2D48C580E090E0C0
:104180008C01112788E40E94902C8823E1F00E9482
:10419000FA2B803A910544F00E94FA2B8530914029
:1041A00034F40E94FA2B05C080EA90E002C084E05B
:1041B00091E026E0209FF001219FF00D1124E85DA1
:1041C000F54F9183808382E40E94902C8823D9F05C
:1041D0000E94FA2B059744F00E94FA2B893791052B
:1041E00034F40E94FA2B05C085E090E002C088E715
:1041F00090E026E0209FF001219FF00D1124E85D62
:10420000F54F9383828386E40E94902C882309F4DF
:10421000FDC40E94FA2B97FD09C00E94FA2B8F3F24
:10422000910509F034F40E94FA2B05C080E090E07B
:1042300002C08FEF90E026E0209FF001219FF00D5B
:104240001124E85DF54F95838483E0C40E94382FE4
:10425000182F87FDDBC40091380A84E40E94902C5B
:10426000882311F40C94B22A0E941D2C6B017C014E
:1042700020E030E0A9010E9417D0882341F124E01A
:104280001202F0011124EC5CF54FC082D182E2826F
:10429000F38220E030E0A9016091340A7091350A80
:1042A0008091360A9091370A0E9417D081110CC074
:1042B00080E090E0A0EEBFE38093340A9093350A4B
:1042C000A093360AB093370A01E00C94B22A80E03A
:1042D0008093380A0E94C06F99C40E94382F87FDCE
:1042E00095C4A7E6EA2EA1E0FA2E0DEC19E0D7015D
:1042F0008D917D010E94452C882359F00E941D2C30
:104300000E9427D8F80160837183828393830E947F
:10431000A1740C5F1F4FF9E00D3D1F0741F776C4F4
:104320000E94382F87FD72C4E7E6EE2EE1E0FE2EF4
:104330000DEC19E0FDEDCF2EF9E0DF2ED7018D91C8
:104340007D010E94452C882339F00E941D2CF80124
:1043500064A375A386A397A30C5F1F4FC016D10655
:1043600069F754C480915B1187FF02C00C94B72A8F
:1043700080915C118E7011F00C94B72A4091010A63
:104380005091020A6091030A7091040A8FEE95E041
:104390000E94CB2F4091050A5091060A6091070AAE
:1043A0007091080A8CE09DE00E94CB2F4091090A91
:1043B00050910A0A60910B0A70910C0A8DEB9EE0F5
:1043C0000E94CB2F8AE00E94C82D20C480915A11F0
:1043D00081FF02C00C94F52A80915B1181FF02C01D
:1043E0000C94F52A80915C118C7011F00C94F52AD4
:1043F0000DC477E6E72E72E0F72E10E088E5810F16
:104400000E94452C882359F00E941D2CD7016D93E2
:104410007D938D939C931397812F0E94CB7A1F5F7E
:10442000B4E0EB0EF11C133049F70C9414194090D2
:10443000E0045090E1046090E2047090E304209165
:104440003301309134014091350150913601C3015F
:10445000B2010E9443D768A379A38AA39BA380904B
:10446000E4049090E504A090E604B090E704209165
:104470003701309138014091390150913A01C5011D
:10448000B4010E9443D76CA37DA38EA39FA3C090C9
:10449000E804D090E904E090EA04F090EB04209165
:1044A0003B0130913C0140913D0150913E01C701DB
:1044B000B6010E9443D768A779A78AA79BA7209136
:1044C0003F01309140014091410150914201C301AF
:1044D000B2010E9443D72B013C012091430130914E
:1044E00044014091450150914601C501B4010E942B
:1044F00043D74B015C012091470130914801409125
:10450000490150914A01C701B6010E9443D76B018E
:104510007C010E94EC2D8EE296E00E94CF2D83E577
:104520000E94452C882321F00E940E2C809331019B
:1045300080913101882319F08CE592E002C082EF6E
:1045400094E00E94CF2D86E296E00E94CF2D48A1F4
:1045500059A16AA17BA188E19FE00E94CB2F4CA1C9
:104560005DA16EA17FA182ED9BE00E94CB2F48A5AB
:1045700059A56AA57BA589EC9BE00E94CB2F88EE0C
:1045800095E10E94CF2D8EE196E00E94CF2DB301E0
:10459000A20188E19FE00E94CB2FB501A40182ED2A
:1045A0009BE00E94CB2FB701A60189EC9BE00E9403
:1045B000CB2F8AE00E94C82D29C383E50E94902C4E
:1045C000882331F00E94FA2B90935C0180935B0169
:1045D00080915A1190915B11A0915C11B0915D1185
:1045E000892B8A2B8B2B09F011C360915B01709191
:1045F0005C018EE396E00E942C2F85E20E94C82D7C
:104600008AE00E94C82D02C30E94382FF82E87FD31
:10461000FDC283E50E94902C0F2D0F2C000C110B76
:10462000882369F10E94FA2BF801EE0FFF1FE15D6C
:10463000FE4F91838083000F111F000F111FF8019F
:10464000E75DFE4F7F01BC01990F880B990B0E941B
:104650001DD02AE037ED43E25CE30E947CD0F801F4
:10466000E55CF54F20813181428153810E947CD0ED
:10467000D7016D937D938D939C931397C7C20E942E
:10468000EC2D85E40E94C82D80E38F0D0E94C82D7B
:10469000000F111FF801E15DFE4F6081718182E41E
:1046A00096E00E942C2F85E20E94C82D8AE00E948D
:1046B000C82DACC28AE50E94902C811106C083E50A
:1046C0000E94902C882309F441C00E941D2C20E0F8
:1046D00030E040E050EC0E9417D087FF01C0DAC7FD
:1046E0000E941D2C20E030E040E050E40E94A6D85B
:1046F00018160CF4C9C70E941D2C6B017C0184E0C4
:104700000E94EB7A811122C02091E9093091EA09D7
:104710004091EB095091EC09C701B6010E947CD091
:104720000E9422D82091390A30913A0A260F371F69
:1047300030933A0A2093390A20913D0430913E0487
:10474000620F731F70933E0460933D0480915C116F
:1047500087FF01C0A5C780915D11837009F0A0C7D4
:104760000E94EC2D53C283E50E94902C882321F0F7
:104770000E94EA2B8B0102C004E011E080E50E9458
:10478000902C882349F00E94EA2BCB0169387341B1
:1047900028F088E893E102C088EE93E0B8010E9417
:1047A000128034C285E40E94143E811173C080E5FA
:1047B0000E94452C882351F00E941D2C6093DC0C34
:1047C0007093DD0C8093DE0C9093DF0C89E40E94E3
:1047D000452C882381F00E941D2C2CEA35EC47E201
:1047E0005EE30E947CD06093E00C7093E10C8093B8
:1047F000E20C9093E30C84E40E94452C882381F022
:104800000E941D2C2CEA35EC47E25EE30E94BAD7E9
:104810006093E40C7093E50C8093E60C9093E70CA6
:104820000E94EC2D4091DC0C5091DD0C6091DE0C6F
:104830007091DF0C82E596E00E94CB2F2CEA35ECDC
:1048400047E25EE36091E00C7091E10C8091E20C34
:104850009091E30C0E94BAD7AB01BC018EE496E0C4
:104860000E94CB2F2CEA35EC47E25EE36091E40C2A
:104870007091E50C8091E60C9091E70C0E947CD041
:10488000AB01BC018AE496E00E94CB2F8AE00E9433
:10489000C82DBCC10E94E92D86E596E00E94CF2D6F
:1048A000B5C180E5F2D7882349F0C7D760934A04A1
:1048B00070934B0480934C0490934D0489E4E5D7A6
:1048C000882379F0BAD72CEA35EC47E25EE30E9400
:1048D0007CD060934E0470934F0480935004909367
:1048E000510484E4D2D7882379F0A7D72CEA35EC99
:1048F00047E25EE30E94BAD7609352047093530478
:1049000080935404909355040E94EC2D40914A04E6
:1049100050914B0460914C0470914D0482E596E0F7
:104920000E94CB2F2CEA35EC47E25EE360914E0407
:1049300070914F0480915004909151040E94BAD715
:10494000AB01BC018EE496E00E94CB2F2CEA35EC43
:1049500047E25EE3609152047091530480915404E5
:10496000909155040E947CD0AB01BC018AE496E092
:104970000E94CB2F8AE00E94C82D48C183E585D7CD
:10498000182F882369F059D70E9422D870932E01DE
:1049900060932D0121E0672B09F020E02093190599
:1049A00080E573D7882351F020912D0130912E019D
:1049B000232B09F033D78093190528C1111126C183
:1049C0000E94EC2D81E896E00E94CF2D8091190580
:1049D000882319F082E491E102C088E696E00E9403
:1049E000CF2D60912D0170912E0180E796E00E94FD
:1049F0002C2F8CE696E00E94CF2D08C10E9407AFB5
:104A000005C10E94E27402C187E00E94EB7AFE01B8
:104A100031961F018823A1F10DB71EB782FF03C095
:104A20004CEB51E002C04BEC51E081FF03C02EEB98
:104A300031E002C02BEC31E080FF03C080EC91E05C
:104A400002C08BEC91E05F934F933F932F939F9322
:104A50008F9384E996E09F938F933F922F920E94C9
:104A6000B1CF0E94EC2DC1010E94133060E0C10162
:104A70000E94D7800FB6F894DEBF0FBECDBFC6C070
:104A800003EA11E129E131E039A328A399EFC92E06
:104A900092E1D92E7F01F8016591759185919491EC
:104AA000A8A1B9A18D909D90AD90BD90B9A3A8A3E8
:104AB000A50194010E9442D72B013C01F7016083BC
:104AC00071838283938320E030E040EA51EC0E94BE
:104AD000A6D887FD0AC020E030E040EA51E4C301D7
:104AE000B2010E9417D018162CF4F6018491181602
:104AF0000CF4DBC5D7018D909D90AD90BD907D01EC
:104B000020E030E040EA51ECC501B4010E94A6D893
:104B100087FDD6C520E030E040EA51E4C501B4018C
:104B20000E9417D018160CF0DDC5CAC50E94C35AE2
:104B30006DC00E9436526AC081E08093270A0E94AD
:104B400084551092270A882309F460C00E94EC2D36
:104B500086EE96E00E94CF2D59C08091080F82FF0B
:104B600004C080648093080F51C083FF4FC00E942F
:104B7000EF3D4CC081E08093F90310927C0A60E025
:104B800083E5DAD6811142C00E9485B43FC00E94FD
:104B9000DC7C6D3371058105910520F089E097E09B
:104BA0000E94A1B685E097E00E94A1B681EF96E051
:104BB000F6D786E090E1909375028093740226C048
:104BC0000E94063E23C000916011109161110E9465
:104BD00055C16093D5017093D6018093D70190930E
:104BE000D801002399F0F8D784E5D2D7B801772708
:104BF000072E000C880B990B0E94112F80E2C8D75A
:104C000086E596E0CCD702C00E94063EFCA9F111D1
:104C1000B4C50E9475B4B1C50E94E274109232010D
:104C20000E9455C16093D5017093D6018093D7013E
:104C30009093D8018091000190910101A09102010F
:104C4000B09103018093DC019093DD01A093DE011C
:104C5000B093DF0180915B0190915C019093DB0147
:104C60008093DA0184E690E090935C0180935B018D
:104C700081E0809364020E94B07C8AE506D6382EDB
:104C800088E503D6082F89E500D60813E5C030165D
:104C900011F0102F04C011E001E03324339482E5B9
:104CA0003FD6882361F0C9D56B017C0120E030E05C
:104CB000A9010E9417D0882309F49BC006C0C12C0B
:104CC000D12C60EAE62E60E4F62E011103C0112318
:104CD00009F499C020E030E0A901C701B6010E94A3
:104CE00043D76B017C018090210190902201A0901C
:104CF0002301B0902401A50194010E9417D02091B6
:104D0000190130911A0140911B0150911C0128A3F7
:104D100039A34AA35BA340901D0150901E016090EF
:104D20001F017090200120E030E040E753E487FD50
:104D30000FC5C701B6010E9417D087FD06C0C12C60
:104D4000D12C50E7E52E53E4F52E80E090E0A0E86A
:104D5000B0E48C8F9D8FAE8FBF8F89839A83AB8396
:104D6000BC83A7019601C501B4010E9417D087FF3B
:104D70000CC0C0922101D0922201E0922301F09256
:104D80002401CE014C960E94FE7A88A199A1AAA185
:104D9000BBA18093190190931A01A0931B01B093BA
:104DA0001C0140921D0150921E0160921F017092E1
:104DB0002001CE0101960E94FE7AA7019601609122
:104DC00021017091220180912301909124010E9480
:104DD000A6D8181664F4C0922101D0922201E09264
:104DE0002301F0922401CE014C960E94FE7A0E948B
:104DF000E274002319F080E00E94467B112319F031
:104E000081E00E94467B332019F082E00E94467BBD
:104E10000E940E7B80916302809364028091DC018A
:104E20009091DD01A091DE01B091DF01809300013E
:104E300090930101A0930201B09303018091DA01E4
:104E40009091DB0190935C0180935B0183E0809300
:104E500018010E94127CDACE182F21CF10927D0A01
:104E60000E94CC3DD3CE0E9433300C94F61A88E5D4
:104E70000CD581115E9889E508D581115E988AE587
:104E800004D5882309F4C2CE1598C0CEA3D4AB01B3
:104E9000BC014093040F5093050F6093060F70936D
:104EA000070F88EE9CE00E94EF62B0CE83E538D514
:104EB000882309F4ABCEC1D40E9422D8CB010E9432
:104EC000793561E080E00E94C4C7A0CE83E528D593
:104ED000182F811105C082E523D5882309F496CEC9
:104EE000ACD40E9422D8CB010E94793561E081E0E8
:104EF0000E94C4C76091D90C7091DA0C072E000C87
:104F0000880B990B0E941DD06B017C018090D50C01
:104F10009090D60CA090D70CB090D80CA50194011D
:104F20000E94A6D818160CF433C2111119C0A5019D
:104F30009401C701B6010E94A6D818160CF428C225
:104F40008FE793E09F938F938CE593E09F938F93EC
:104F50001F920E94BC800F900F900F900F900F90A7
:104F600081E08093130118A619A61AA61BA61CA6F9
:104F70001DA61EA61FA620E03CE34CE156E428AB8C
:104F800039AB4AAB5BABC12CD12C90E8E92E9FEB3F
:104F9000F92E312C22242394412C512C3201609182
:104FA000D90C7091DA0C072E000C880B990B0E941B
:104FB0001DD04B015C01A70196010E9417D08823E8
:104FC000C9F02091D50C3091D60C4091D70C50915E
:104FD000D80CC501B401111107C00E9417D0382E9A
:104FE000331C3324331C08C00E9417D087FDC6C170
:104FF000312C02C0460157010E9455C16B017C0152
:10500000DC01CB012CA53DA54EA55FA5821B930B12
:10501000A40BB50BB7FD2FC0D701C60188519C4F1B
:10502000AF4FBF4F8CA79DA7AEA7BFA7802F0E94F1
:10503000893588E593E0B3D54114510461047104C6
:10504000B1F0D301C2018059984EAF4FBF4FBC01A0
:10505000CD016C197D098E099F0928EE33E040E0EF
:1050600050E00E9453D6CA01B901DBD602C08FE3DB
:105070008FD58AE08DD5F7D70E9455C16093D501B1
:105080007093D6018093D7019093D8012091D50CCD
:105090003091D60C4091D70C5091D80C2CA33DA345
:1050A0004EA35FA3C501B4010E9442D768A379A3B0
:1050B0008AA39BA320E030E0A9010E94A6D887FF25
:1050C00009C088A199A1AAA1BBA1B05888A399A39E
:1050D000AAA3BBA34114510461047104E9F420E0C4
:1050E00030E040E85FE368A179A18AA19BA10E941A
:1050F00017D087FF1FC0222029F080ED97E0A0E0A5
:10510000B0E003C080E090E0DC0126013701480EEA
:10511000591E6A1E7B1E0EC020E030E040E450E4C1
:1051200068A179A18AA19BA10E94A6D8181614F49F
:10513000260137013320A9F128A539A54AA55BA589
:10514000211531054105510541F0D701C601821BEA
:10515000930BA40BB50BB7FD24C02CA13DA14EA110
:105160005FA168A979A98AA99BA90E9442D720E0DA
:1051700030E040EC5FE30E9417D087FDFFC0D7010D
:10518000C601805A9541AF4FBF4F88A799A7AAA7DC
:10519000BBA72CA13DA14EA15FA128AB39AB4AAB67
:1051A0005BAB80911301882309F4E8C041145104DA
:1051B0006104710421F4212C75016401F0CE30E703
:1051C000C31A37E1D30AE108F108C418D508E60884
:1051D000F708F7FCF0CFD2C083E5A2D3182F8111D6
:1051E00005C082E59DD3882309F410CD26D30E9403
:1051F00022D8683771050CF090C170934804609311
:1052000047040E94133460E081E00E94C4C76091AB
:10521000470470914804072E000C880B990B0E94DC
:105220001DD0209143043091440440914504509195
:1052300046040E94A6D818160CF0C6C089E893E070
:1052400060E00E94488081E08093130118A619A6AF
:105250001AA61BA61CA61DA61EA61FA680E09CE3E0
:10526000ACE1B6E488AB99ABAAABBBABC12CD12CFB
:1052700000E8E02E0FEBF02E00E033243394412CB5
:10528000512C32016091470470914804072E000CA4
:10529000880B990B0E941DD04B015C01A701960160
:1052A0000E9417D0882309F498C0209143043091BC
:1052B00044044091450450914604C501B4011111C4
:1052C00086C00E9417D0082F001F0027001F0E94D1
:1052D00055C16B017C01DC01CB012CA53DA54EA580
:1052E0005FA5821B930BA40BB50BB7FF79C0BBD690
:1052F0000E9455C16093D5017093D6018093D70168
:105300009093D80120914304309144044091450486
:10531000509146042CA33DA34EA35FA3C501B40145
:105320000E9442D768A379A38AA39BA320E030E020
:10533000A9010E94A6D887FF09C088A199A1AAA1A6
:10534000BBA1B05888A399A3AAA3BBA3411451043D
:105350006104710409F085C020E030E040E85FE3BB
:1053600068A179A18AA19BA10E9417D087FD68C07E
:10537000011187C0809113018111B9C0809113017F
:10538000882309F443CC109213010E94CC3D3ECCFB
:105390008EE893E0D7CD83E5C3D2882309F436CCD9
:1053A0004CD20E9422D8683771055CF4709348048F
:1053B000609347040E94133461E080E00E94C4C7F8
:1053C00025CC68E770E0F2CF8AE793E039CF0E94FE
:1053D00017D087FDD3CF00E07ACF4601570177CFB2
:1053E000D701C60188519C4FAF4FBF4F8CA79DA7D7
:1053F000AEA7BFA780E00E94893588E593E0CFD3B0
:105400004114510461047104B1F0D301C201805907
:10541000984EAF4FBF4FBC01CD016C197D098E096D
:105420009F0928EE33E040E050E00E9453D6CA01C5
:10543000B901F7D402C08FE3ABD38AE0A9D357CF29
:10544000332029F080ED97E0A0E0B0E003C080E0D9
:1054500090E0DC0126013701480E591E6A1E7B1EB2
:1054600087CF20E030E040E450E468A179A18AA130
:105470009BA10E94A6D818160CF07ACF26013701FE
:1054800077CF28A539A54AA55BA52115310541058A
:10549000510541F0D701C601821B930BA40BB50B3C
:1054A000B7FD68CF2CA13DA14EA15FA168A979A944
:1054B0008AA99BA90E9442D720E030E040E85FE340
:1054C0000E9417D087FD5ACFD701C601805A954157
:1054D000AF4FBF4F88A799A7AAA7BBA72CA13DA1F3
:1054E0004EA15FA128AB39AB4AAB5BAB43CF4114B4
:1054F00051046104710421F4312C75016401C2CEA0
:1055000030E7C31A37E1D30AE108F108C418D50817
:10551000E608F708F7FCF0CF31CF68E770E06DCE12
:105520000E94E27488E5B1D1882331F05E9A8091BF
:1055300066028E7F8093660289E5A7D1882331F0C9
:105540005E9A809166028D7F809366028AE59DD186
:10555000882309F45BCB159A809166028B7F809338
:10556000660254CB602F83E5E7D10C94682183E574
:10557000D7D1882389F061D16093010A7093020A20
:105580008093030A9093040A6093090A70930A0AAD
:1055900080930B0A90930C0A80E5C2D1882349F0CE
:1055A0004CD16093010A7093020A8093030A90938E
:1055B000040A82E5B5D1882349F03FD16093050AFA
:1055C0007093060A8093070A9093080A84E5A8D18D
:1055D000882309F41BCB31D16093090A70930A0A1E
:1055E00080930B0A90930C0A11CB82E44ED188234E
:1055F00049F0E0D06093DD097093DE098093DF0904
:105600009093E00983E541D1882349F016D1609356
:105610000D0A70930E0A80930F0A9093100A84E586
:1056200034D1882349F009D16093110A7093120A8A
:105630008093130A9093140A8AE427D1882309F4EB
:10564000E5CAFBD06B017C012AE037ED43E25CE365
:105650000E94A6D887FD13C02AE939E949E95EE32B
:10566000C701B6010E9417D018164CF0C092EC0486
:10567000D092ED04E092EE04F092EF04C7CAA9D2F2
:105680008FEF95E08CD2C2CAC12CD12CE12C30E432
:10569000F32E35C8C12CD12CE12C20ECF22E2FC8D2
:1056A00082E5F3D081115CC8B1CAB7FAB094B7F8FB
:1056B000B094D7018D929D92AD92BC9213971ACA65
:1056C00088D288EC96E06BD261E08AEB96E00E948B
:1056D00048800E94808F68E270E088EC90E00E9431
:1056E000128094CA0C5F1F4FBFEFCB1ADB0AEFEAA0
:1056F000F1E1E017F10709F0CEC987E6E82E82E074
:10570000F82E10E0F10181919191A191B1911F01C9
:10571000F70181939193A193B1937F01812F0E940F
:10572000CB7A1F5F133071F70E94127C60E088EA29
:1057300096E00E94488063E972E084E690E00E946F
:1057400012806AEB72E084E690E00E9412805ECAEA
:10575000C501B4010E9417D087FFF1CA80E090E034
:10576000A0E8B0E48C8F9D8FAE8FBF8F89839A8322
:10577000AB83BC837501640108CBE496E2E10C9431
:1057800027D7282F8091D901233021F485FD0EC021
:1057900084FD0EC090E0A0E0B0E004C0B695A795EF
:1057A000979587952A95D2F78170089581E008959D
:1057B00080E008958091560290915702009731F051
:1057C0004AE050E060E070E00C9431CE60E070E0C0
:1057D000CB0108958091560290915702009731F0C5
:1057E0004AE050E060E070E00C9404CD60E070E0CE
:1057F000CB010895EFDFCB010895ECDF97FD0AC0E0
:10580000E9DF6F3F71058105910509F02CF4E2DFB6
:10581000862F089580E008958FEF089580915602B5
:1058200090915702892B31F0E8DF91E0811103C09C
:1058300090E001C091E0892F08950F931F93CF93BB
:1058400080915602909157020097C1F0FC018F01A0
:10585000C1912C2F2F7D69F0C53411F0C536B9F7F1
:10586000F801108260E070E00E94B0CBF801C083C4
:1058700008C060E070E00E94B0CB03C060E070E060
:10588000CB01CF911F910F91089581548A3108F077
:1058900044C0E82FF0E040915A1150915B116091A3
:1058A0005C1170915D1104C0769567955795479589
:1058B0008A95D2F7842F817040FF31C0E05CFE4EA4
:1058C0009081992329F1E091B504F091B604E90F94
:1058D000F11D908120ED290F2A30A8F09E3211F49D
:1058E00091810CC09D3211F09B3259F4918120EDD1
:1058F000290F2A3040F09E3221F4928190539A3041
:1059000010F0E0E0F0E0F0935702E09356020895C3
:105910001092570210925602089580E0089508955B
:10592000B4DF882341F081E0209156023091570284
:10593000232B09F480E00895CF93DF93C82FD62F4F
:10594000EFDF882311F06ADF05C08C2F9EDF811105
:1059500001C08D2FDF91CF910895CF92DF92EF920A
:10596000FF926B017C0183E3C816D104E104F104CA
:1059700070F082E3C81AD108E108F10862E370E030
:1059800080E090E00E9462400E94F338ECCFC701B3
:10599000B6010E9462400E94F338FF90EF90DF90C2
:1059A000CF9008955E9A809166028E7F8093660202
:1059B0005E9A809166028D7F80936602159A80912F
:1059C00066028B7F809366025E9A08954F925F9283
:1059D0006F927F928F929F92AF92BF92CF92DF92FF
:1059E000EF92FF920E94B376F82E8091720D809311
:1059F000710D8093700D80936F0D84E680936E0D12
:105A00000E94C67680ED93E09093CB098093CA09FB
:105A1000F1100E94C07681E08093D7100E94E2745A
:105A200081E00E943C794B015C0180E00E943C795E
:105A30002B013C016093E3017093E4018093E50145
:105A40009093E6018092E7019092E801A092E9012B
:105A5000B092EA0182E00E943C796B017C01609384
:105A6000EB017093EC018093ED019093EE0183E0E4
:105A70000E943C794092190150921A0160921B01D8
:105A800070921C0180921D0190921E01A0921F0134
:105A9000B0922001C0922101D0922201E092230114
:105AA000F0922401609325017093260180932701D1
:105AB000909328010E940E7BFF90EF90DF90CF9093
:105AC000BF90AF909F908F907F906F905F904F901E
:105AD00008959091080F93FB882780F993FF06C0E3
